{
	"contracts/SimpleStorage.sol": {
		"Calculator": {
			"abi": [
				{
					"inputs": [
						{
							"internalType": "uint256",
							"name": "a",
							"type": "uint256"
						},
						{
							"internalType": "uint256",
							"name": "b",
							"type": "uint256"
						}
					],
					"name": "add",
					"outputs": [
						{
							"internalType": "uint256",
							"name": "",
							"type": "uint256"
						}
					],
					"stateMutability": "pure",
					"type": "function"
				},
				{
					"inputs": [
						{
							"internalType": "uint256",
							"name": "a",
							"type": "uint256"
						},
						{
							"internalType": "uint256",
							"name": "b",
							"type": "uint256"
						}
					],
					"name": "divide",
					"outputs": [
						{
							"internalType": "uint256",
							"name": "",
							"type": "uint256"
						}
					],
					"stateMutability": "pure",
					"type": "function"
				},
				{
					"inputs": [
						{
							"internalType": "uint256",
							"name": "a",
							"type": "uint256"
						},
						{
							"internalType": "uint256",
							"name": "b",
							"type": "uint256"
						}
					],
					"name": "multiply",
					"outputs": [
						{
							"internalType": "uint256",
							"name": "",
							"type": "uint256"
						}
					],
					"stateMutability": "pure",
					"type": "function"
				},
				{
					"inputs": [
						{
							"internalType": "uint256",
							"name": "a",
							"type": "uint256"
						},
						{
							"internalType": "uint256",
							"name": "b",
							"type": "uint256"
						}
					],
					"name": "subtract",
					"outputs": [
						{
							"internalType": "uint256",
							"name": "",
							"type": "uint256"
						}
					],
					"stateMutability": "pure",
					"type": "function"
				}
			],
			"devdoc": {
				"kind": "dev",
				"methods": {},
				"version": 1
			},
			"evm": {
				"assembly": "    /* \"contracts/SimpleStorage.sol\":64:819  contract Calculator {... */\n  mstore(0x40, 0x80)\n  callvalue\n  dup1\n  iszero\n  tag_1\n  jumpi\n  0x00\n  dup1\n  revert\ntag_1:\n  pop\n  dataSize(sub_0)\n  dup1\n  dataOffset(sub_0)\n  0x00\n  codecopy\n  0x00\n  return\nstop\n\nsub_0: assembly {\n        /* \"contracts/SimpleStorage.sol\":64:819  contract Calculator {... */\n      mstore(0x40, 0x80)\n      callvalue\n      dup1\n      iszero\n      tag_1\n      jumpi\n      0x00\n      dup1\n      revert\n    tag_1:\n      pop\n      jumpi(tag_2, lt(calldatasize, 0x04))\n      shr(0xe0, calldataload(0x00))\n      dup1\n      0x165c4a16\n      eq\n      tag_3\n      jumpi\n      dup1\n      0x3ef5e445\n      eq\n      tag_4\n      jumpi\n      dup1\n      0x771602f7\n      eq\n      tag_5\n      jumpi\n      dup1\n      0xf88e9fbf\n      eq\n      tag_6\n      jumpi\n    tag_2:\n      0x00\n      dup1\n      revert\n        /* \"contracts/SimpleStorage.sol\":490:591  function multiply(uint256 a, uint256 b) public pure returns (uint256) {... */\n    tag_3:\n      tag_7\n      tag_8\n      calldatasize\n      0x04\n      tag_9\n      jump\t// in\n    tag_8:\n      tag_10\n      jump\t// in\n    tag_7:\n      mload(0x40)\n        /* \"#utility.yul\":511:536   */\n      swap1\n      dup2\n      mstore\n        /* \"#utility.yul\":499:501   */\n      0x20\n        /* \"#utility.yul\":484:502   */\n      add\n        /* \"contracts/SimpleStorage.sol\":490:591  function multiply(uint256 a, uint256 b) public pure returns (uint256) {... */\n      mload(0x40)\n      dup1\n      swap2\n      sub\n      swap1\n      return\n        /* \"contracts/SimpleStorage.sol\":319:420  function subtract(uint256 a, uint256 b) public pure returns (uint256) {... */\n    tag_4:\n      tag_7\n      tag_14\n      calldatasize\n      0x04\n      tag_9\n      jump\t// in\n    tag_14:\n      tag_15\n      jump\t// in\n        /* \"contracts/SimpleStorage.sol\":153:249  function add(uint256 a, uint256 b) public pure returns (uint256) {... */\n    tag_5:\n      tag_7\n      tag_18\n      calldatasize\n      0x04\n      tag_9\n      jump\t// in\n    tag_18:\n      tag_19\n      jump\t// in\n        /* \"contracts/SimpleStorage.sol\":657:816  function divide(uint256 a, uint256 b) public pure returns (uint256) {... */\n    tag_6:\n      tag_7\n      tag_22\n      calldatasize\n      0x04\n      tag_9\n      jump\t// in\n    tag_22:\n      tag_23\n      jump\t// in\n        /* \"contracts/SimpleStorage.sol\":490:591  function multiply(uint256 a, uint256 b) public pure returns (uint256) {... */\n    tag_10:\n        /* \"contracts/SimpleStorage.sol\":551:558  uint256 */\n      0x00\n        /* \"contracts/SimpleStorage.sol\":578:583  a * b */\n      tag_26\n        /* \"contracts/SimpleStorage.sol\":582:583  b */\n      dup3\n        /* \"contracts/SimpleStorage.sol\":578:579  a */\n      dup5\n        /* \"contracts/SimpleStorage.sol\":578:583  a * b */\n      tag_27\n      jump\t// in\n    tag_26:\n        /* \"contracts/SimpleStorage.sol\":571:583  return a * b */\n      swap1\n      pop\n        /* \"contracts/SimpleStorage.sol\":490:591  function multiply(uint256 a, uint256 b) public pure returns (uint256) {... */\n    tag_25:\n      swap3\n      swap2\n      pop\n      pop\n      jump\t// out\n        /* \"contracts/SimpleStorage.sol\":319:420  function subtract(uint256 a, uint256 b) public pure returns (uint256) {... */\n    tag_15:\n        /* \"contracts/SimpleStorage.sol\":380:387  uint256 */\n      0x00\n        /* \"contracts/SimpleStorage.sol\":407:412  a - b */\n      tag_26\n        /* \"contracts/SimpleStorage.sol\":411:412  b */\n      dup3\n        /* \"contracts/SimpleStorage.sol\":407:408  a */\n      dup5\n        /* \"contracts/SimpleStorage.sol\":407:412  a - b */\n      tag_30\n      jump\t// in\n        /* \"contracts/SimpleStorage.sol\":153:249  function add(uint256 a, uint256 b) public pure returns (uint256) {... */\n    tag_19:\n        /* \"contracts/SimpleStorage.sol\":209:216  uint256 */\n      0x00\n        /* \"contracts/SimpleStorage.sol\":236:241  a + b */\n      tag_26\n        /* \"contracts/SimpleStorage.sol\":240:241  b */\n      dup3\n        /* \"contracts/SimpleStorage.sol\":236:237  a */\n      dup5\n        /* \"contracts/SimpleStorage.sol\":236:241  a + b */\n      tag_33\n      jump\t// in\n        /* \"contracts/SimpleStorage.sol\":657:816  function divide(uint256 a, uint256 b) public pure returns (uint256) {... */\n    tag_23:\n        /* \"contracts/SimpleStorage.sol\":716:723  uint256 */\n      0x00\n        /* \"contracts/SimpleStorage.sol\":748:749  0 */\n      dup1\n        /* \"contracts/SimpleStorage.sol\":744:745  b */\n      dup3\n        /* \"contracts/SimpleStorage.sol\":744:749  b > 0 */\n      gt\n        /* \"contracts/SimpleStorage.sol\":736:785  require(b > 0, \"Division by zero is not allowed\") */\n      tag_35\n      jumpi\n      mload(0x40)\n      shl(0xe5, 0x461bcd)\n      dup2\n      mstore\n        /* \"#utility.yul\":1317:1319   */\n      0x20\n        /* \"contracts/SimpleStorage.sol\":736:785  require(b > 0, \"Division by zero is not allowed\") */\n      0x04\n      dup3\n      add\n        /* \"#utility.yul\":1299:1320   */\n      mstore\n        /* \"#utility.yul\":1356:1358   */\n      0x1f\n        /* \"#utility.yul\":1336:1354   */\n      0x24\n      dup3\n      add\n        /* \"#utility.yul\":1329:1359   */\n      mstore\n        /* \"#utility.yul\":1395:1428   */\n      0x4469766973696f6e206279207a65726f206973206e6f7420616c6c6f77656400\n        /* \"#utility.yul\":1375:1393   */\n      0x44\n      dup3\n      add\n        /* \"#utility.yul\":1368:1429   */\n      mstore\n        /* \"#utility.yul\":1446:1464   */\n      0x64\n      add\n        /* \"contracts/SimpleStorage.sol\":736:785  require(b > 0, \"Division by zero is not allowed\") */\n      mload(0x40)\n      dup1\n      swap2\n      sub\n      swap1\n      revert\n    tag_35:\n        /* \"contracts/SimpleStorage.sol\":803:808  a / b */\n      tag_26\n        /* \"contracts/SimpleStorage.sol\":807:808  b */\n      dup3\n        /* \"contracts/SimpleStorage.sol\":803:804  a */\n      dup5\n        /* \"contracts/SimpleStorage.sol\":803:808  a / b */\n      tag_39\n      jump\t// in\n        /* \"#utility.yul\":14:360   */\n    tag_9:\n        /* \"#utility.yul\":82:88   */\n      0x00\n        /* \"#utility.yul\":90:96   */\n      dup1\n        /* \"#utility.yul\":143:145   */\n      0x40\n        /* \"#utility.yul\":131:140   */\n      dup4\n        /* \"#utility.yul\":122:129   */\n      dup6\n        /* \"#utility.yul\":118:141   */\n      sub\n        /* \"#utility.yul\":114:146   */\n      slt\n        /* \"#utility.yul\":111:163   */\n      iszero\n      tag_43\n      jumpi\n        /* \"#utility.yul\":159:160   */\n      0x00\n        /* \"#utility.yul\":156:157   */\n      dup1\n        /* \"#utility.yul\":149:161   */\n      revert\n        /* \"#utility.yul\":111:163   */\n    tag_43:\n      pop\n      pop\n        /* \"#utility.yul\":204:227   */\n      dup1\n      calldataload\n      swap3\n        /* \"#utility.yul\":324:326   */\n      0x20\n        /* \"#utility.yul\":309:327   */\n      swap1\n      swap2\n      add\n        /* \"#utility.yul\":296:328   */\n      calldataload\n      swap2\n      pop\n        /* \"#utility.yul\":14:360   */\n      jump\t// out\n        /* \"#utility.yul\":547:674   */\n    tag_40:\n        /* \"#utility.yul\":608:618   */\n      0x4e487b71\n        /* \"#utility.yul\":603:606   */\n      0xe0\n        /* \"#utility.yul\":599:619   */\n      shl\n        /* \"#utility.yul\":596:597   */\n      0x00\n        /* \"#utility.yul\":589:620   */\n      mstore\n        /* \"#utility.yul\":639:643   */\n      0x11\n        /* \"#utility.yul\":636:637   */\n      0x04\n        /* \"#utility.yul\":629:644   */\n      mstore\n        /* \"#utility.yul\":663:667   */\n      0x24\n        /* \"#utility.yul\":660:661   */\n      0x00\n        /* \"#utility.yul\":653:668   */\n      revert\n        /* \"#utility.yul\":679:847   */\n    tag_27:\n        /* \"#utility.yul\":752:761   */\n      dup1\n      dup3\n      mul\n        /* \"#utility.yul\":783:792   */\n      dup2\n      iszero\n        /* \"#utility.yul\":800:815   */\n      dup3\n      dup3\n      div\n        /* \"#utility.yul\":794:816   */\n      dup5\n      eq\n        /* \"#utility.yul\":780:817   */\n      or\n        /* \"#utility.yul\":770:841   */\n      tag_25\n      jumpi\n        /* \"#utility.yul\":821:839   */\n      tag_25\n      tag_40\n      jump\t// in\n        /* \"#utility.yul\":852:980   */\n    tag_30:\n        /* \"#utility.yul\":919:928   */\n      dup2\n      dup2\n      sub\n        /* \"#utility.yul\":940:951   */\n      dup2\n      dup2\n      gt\n        /* \"#utility.yul\":937:974   */\n      iszero\n      tag_25\n      jumpi\n        /* \"#utility.yul\":954:972   */\n      tag_25\n      tag_40\n      jump\t// in\n        /* \"#utility.yul\":985:1110   */\n    tag_33:\n        /* \"#utility.yul\":1050:1059   */\n      dup1\n      dup3\n      add\n        /* \"#utility.yul\":1071:1081   */\n      dup1\n      dup3\n      gt\n        /* \"#utility.yul\":1068:1104   */\n      iszero\n      tag_25\n      jumpi\n        /* \"#utility.yul\":1084:1102   */\n      tag_25\n      tag_40\n      jump\t// in\n        /* \"#utility.yul\":1475:1692   */\n    tag_39:\n        /* \"#utility.yul\":1515:1516   */\n      0x00\n        /* \"#utility.yul\":1541:1542   */\n      dup3\n        /* \"#utility.yul\":1531:1663   */\n      tag_57\n      jumpi\n        /* \"#utility.yul\":1585:1595   */\n      0x4e487b71\n        /* \"#utility.yul\":1580:1583   */\n      0xe0\n        /* \"#utility.yul\":1576:1596   */\n      shl\n        /* \"#utility.yul\":1573:1574   */\n      0x00\n        /* \"#utility.yul\":1566:1597   */\n      mstore\n        /* \"#utility.yul\":1620:1624   */\n      0x12\n        /* \"#utility.yul\":1617:1618   */\n      0x04\n        /* \"#utility.yul\":1610:1625   */\n      mstore\n        /* \"#utility.yul\":1648:1652   */\n      0x24\n        /* \"#utility.yul\":1645:1646   */\n      0x00\n        /* \"#utility.yul\":1638:1653   */\n      revert\n        /* \"#utility.yul\":1531:1663   */\n    tag_57:\n      pop\n        /* \"#utility.yul\":1677:1686   */\n      div\n      swap1\n        /* \"#utility.yul\":1475:1692   */\n      jump\t// out\n\n    auxdata: 0xa2646970667358221220f8722a2ffb36d66f39b4c5170a6d5daf76ed2452fcd6f4874a757b5daa8be41a64736f6c634300081a0033\n}\n",
				"bytecode": {
					"linkReferences": {},
					"object": "6080604052348015600e575f80fd5b506101fa8061001c5f395ff3fe608060405234801561000f575f80fd5b506004361061004a575f3560e01c8063165c4a161461004e5780633ef5e44514610073578063771602f714610086578063f88e9fbf14610099575b5f80fd5b61006161005c366004610134565b6100ac565b60405190815260200160405180910390f35b610061610081366004610134565b6100c0565b610061610094366004610134565b6100cb565b6100616100a7366004610134565b6100d6565b5f6100b78284610168565b90505b92915050565b5f6100b7828461017f565b5f6100b78284610192565b5f80821161012a5760405162461bcd60e51b815260206004820152601f60248201527f4469766973696f6e206279207a65726f206973206e6f7420616c6c6f77656400604482015260640160405180910390fd5b6100b782846101a5565b5f8060408385031215610145575f80fd5b50508035926020909101359150565b634e487b7160e01b5f52601160045260245ffd5b80820281158282048414176100ba576100ba610154565b818103818111156100ba576100ba610154565b808201808211156100ba576100ba610154565b5f826101bf57634e487b7160e01b5f52601260045260245ffd5b50049056fea2646970667358221220f8722a2ffb36d66f39b4c5170a6d5daf76ed2452fcd6f4874a757b5daa8be41a64736f6c634300081a0033",
					"opcodes": "PUSH1 0x80 PUSH1 0x40 MSTORE CALLVALUE DUP1 ISZERO PUSH1 0xE JUMPI PUSH0 DUP1 REVERT JUMPDEST POP PUSH2 0x1FA DUP1 PUSH2 0x1C PUSH0 CODECOPY PUSH0 RETURN INVALID PUSH1 0x80 PUSH1 0x40 MSTORE CALLVALUE DUP1 ISZERO PUSH2 0xF JUMPI PUSH0 DUP1 REVERT JUMPDEST POP PUSH1 0x4 CALLDATASIZE LT PUSH2 0x4A JUMPI PUSH0 CALLDATALOAD PUSH1 0xE0 SHR DUP1 PUSH4 0x165C4A16 EQ PUSH2 0x4E JUMPI DUP1 PUSH4 0x3EF5E445 EQ PUSH2 0x73 JUMPI DUP1 PUSH4 0x771602F7 EQ PUSH2 0x86 JUMPI DUP1 PUSH4 0xF88E9FBF EQ PUSH2 0x99 JUMPI JUMPDEST PUSH0 DUP1 REVERT JUMPDEST PUSH2 0x61 PUSH2 0x5C CALLDATASIZE PUSH1 0x4 PUSH2 0x134 JUMP JUMPDEST PUSH2 0xAC JUMP JUMPDEST PUSH1 0x40 MLOAD SWAP1 DUP2 MSTORE PUSH1 0x20 ADD PUSH1 0x40 MLOAD DUP1 SWAP2 SUB SWAP1 RETURN JUMPDEST PUSH2 0x61 PUSH2 0x81 CALLDATASIZE PUSH1 0x4 PUSH2 0x134 JUMP JUMPDEST PUSH2 0xC0 JUMP JUMPDEST PUSH2 0x61 PUSH2 0x94 CALLDATASIZE PUSH1 0x4 PUSH2 0x134 JUMP JUMPDEST PUSH2 0xCB JUMP JUMPDEST PUSH2 0x61 PUSH2 0xA7 CALLDATASIZE PUSH1 0x4 PUSH2 0x134 JUMP JUMPDEST PUSH2 0xD6 JUMP JUMPDEST PUSH0 PUSH2 0xB7 DUP3 DUP5 PUSH2 0x168 JUMP JUMPDEST SWAP1 POP JUMPDEST SWAP3 SWAP2 POP POP JUMP JUMPDEST PUSH0 PUSH2 0xB7 DUP3 DUP5 PUSH2 0x17F JUMP JUMPDEST PUSH0 PUSH2 0xB7 DUP3 DUP5 PUSH2 0x192 JUMP JUMPDEST PUSH0 DUP1 DUP3 GT PUSH2 0x12A JUMPI PUSH1 0x40 MLOAD PUSH3 0x461BCD PUSH1 0xE5 SHL DUP2 MSTORE PUSH1 0x20 PUSH1 0x4 DUP3 ADD MSTORE PUSH1 0x1F PUSH1 0x24 DUP3 ADD MSTORE PUSH32 0x4469766973696F6E206279207A65726F206973206E6F7420616C6C6F77656400 PUSH1 0x44 DUP3 ADD MSTORE PUSH1 0x64 ADD PUSH1 0x40 MLOAD DUP1 SWAP2 SUB SWAP1 REVERT JUMPDEST PUSH2 0xB7 DUP3 DUP5 PUSH2 0x1A5 JUMP JUMPDEST PUSH0 DUP1 PUSH1 0x40 DUP4 DUP6 SUB SLT ISZERO PUSH2 0x145 JUMPI PUSH0 DUP1 REVERT JUMPDEST POP POP DUP1 CALLDATALOAD SWAP3 PUSH1 0x20 SWAP1 SWAP2 ADD CALLDATALOAD SWAP2 POP JUMP JUMPDEST PUSH4 0x4E487B71 PUSH1 0xE0 SHL PUSH0 MSTORE PUSH1 0x11 PUSH1 0x4 MSTORE PUSH1 0x24 PUSH0 REVERT JUMPDEST DUP1 DUP3 MUL DUP2 ISZERO DUP3 DUP3 DIV DUP5 EQ OR PUSH2 0xBA JUMPI PUSH2 0xBA PUSH2 0x154 JUMP JUMPDEST DUP2 DUP2 SUB DUP2 DUP2 GT ISZERO PUSH2 0xBA JUMPI PUSH2 0xBA PUSH2 0x154 JUMP JUMPDEST DUP1 DUP3 ADD DUP1 DUP3 GT ISZERO PUSH2 0xBA JUMPI PUSH2 0xBA PUSH2 0x154 JUMP JUMPDEST PUSH0 DUP3 PUSH2 0x1BF JUMPI PUSH4 0x4E487B71 PUSH1 0xE0 SHL PUSH0 MSTORE PUSH1 0x12 PUSH1 0x4 MSTORE PUSH1 0x24 PUSH0 REVERT JUMPDEST POP DIV SWAP1 JUMP INVALID LOG2 PUSH5 0x6970667358 0x22 SLT KECCAK256 0xF8 PUSH19 0x2A2FFB36D66F39B4C5170A6D5DAF76ED2452FC 0xD6 DELEGATECALL DUP8 BLOBBASEFEE PUSH22 0x7B5DAA8BE41A64736F6C634300081A00330000000000 "
				},
				"gasEstimates": {
					"creation": {
						"codeDepositCost": "101200",
						"executionCost": "145",
						"totalCost": "101345"
					},
					"external": {
						"add(uint256,uint256)": "infinite",
						"divide(uint256,uint256)": "431",
						"multiply(uint256,uint256)": "infinite",
						"subtract(uint256,uint256)": "infinite"
					}
				},
				"methodIdentifiers": {
					"add(uint256,uint256)": "771602f7",
					"divide(uint256,uint256)": "f88e9fbf",
					"multiply(uint256,uint256)": "165c4a16",
					"subtract(uint256,uint256)": "3ef5e445"
				}
			},
			"storageLayout": {
				"storage": [],
				"types": null
			},
			"userdoc": {
				"kind": "user",
				"methods": {},
				"version": 1
			}
		}
	}
}