{
	"contracts/NewRegistration.sol": {
		"UserRegistration": {
			"abi": [
				{
					"inputs": [
						{
							"internalType": "string",
							"name": "_email",
							"type": "string"
						},
						{
							"internalType": "string",
							"name": "_password",
							"type": "string"
						}
					],
					"name": "authenticate",
					"outputs": [
						{
							"internalType": "bool",
							"name": "",
							"type": "bool"
						}
					],
					"stateMutability": "view",
					"type": "function"
				},
				{
					"inputs": [],
					"name": "deactivate",
					"outputs": [],
					"stateMutability": "nonpayable",
					"type": "function"
				},
				{
					"inputs": [
						{
							"internalType": "address",
							"name": "user",
							"type": "address"
						}
					],
					"name": "isActive",
					"outputs": [
						{
							"internalType": "bool",
							"name": "",
							"type": "bool"
						}
					],
					"stateMutability": "view",
					"type": "function"
				},
				{
					"inputs": [
						{
							"internalType": "address",
							"name": "user",
							"type": "address"
						}
					],
					"name": "isRegistered",
					"outputs": [
						{
							"internalType": "bool",
							"name": "",
							"type": "bool"
						}
					],
					"stateMutability": "view",
					"type": "function"
				},
				{
					"inputs": [
						{
							"internalType": "string",
							"name": "_email",
							"type": "string"
						},
						{
							"internalType": "string",
							"name": "_password",
							"type": "string"
						}
					],
					"name": "register",
					"outputs": [],
					"stateMutability": "nonpayable",
					"type": "function"
				}
			],
			"devdoc": {
				"kind": "dev",
				"methods": {},
				"version": 1
			},
			"evm": {
				"assembly": "    /* \"contracts/NewRegistration.sol\":60:1972  contract UserRegistration {... */\n  mstore(0x40, 0x80)\n  callvalue\n  dup1\n  iszero\n  tag_1\n  jumpi\n  0x00\n  dup1\n  revert\ntag_1:\n  pop\n  dataSize(sub_0)\n  dup1\n  dataOffset(sub_0)\n  0x00\n  codecopy\n  0x00\n  return\nstop\n\nsub_0: assembly {\n        /* \"contracts/NewRegistration.sol\":60:1972  contract UserRegistration {... */\n      mstore(0x40, 0x80)\n      callvalue\n      dup1\n      iszero\n      tag_1\n      jumpi\n      0x00\n      dup1\n      revert\n    tag_1:\n      pop\n      jumpi(tag_2, lt(calldatasize, 0x04))\n      shr(0xe0, calldataload(0x00))\n      dup1\n      0x3ffbd47f\n      eq\n      tag_3\n      jumpi\n      dup1\n      0x51b42b00\n      eq\n      tag_4\n      jumpi\n      dup1\n      0x544541b3\n      eq\n      tag_5\n      jumpi\n      dup1\n      0x9f8a13d7\n      eq\n      tag_6\n      jumpi\n      dup1\n      0xc3c5a547\n      eq\n      tag_7\n      jumpi\n    tag_2:\n      0x00\n      dup1\n      revert\n        /* \"contracts/NewRegistration.sol\":426:853  function register(string memory _email, string memory _password) public {... */\n    tag_3:\n      tag_8\n      0x04\n      dup1\n      calldatasize\n      sub\n      dup2\n      add\n      swap1\n      tag_9\n      swap2\n      swap1\n      tag_10\n      jump\t// in\n    tag_9:\n      tag_11\n      jump\t// in\n    tag_8:\n      stop\n        /* \"contracts/NewRegistration.sol\":917:1154  function deactivate() public {... */\n    tag_4:\n      tag_12\n      tag_13\n      jump\t// in\n    tag_12:\n      stop\n        /* \"contracts/NewRegistration.sol\":1604:1969  function authenticate(string memory _email, string memory _password) public view returns (bool) {... */\n    tag_5:\n      tag_14\n      0x04\n      dup1\n      calldatasize\n      sub\n      dup2\n      add\n      swap1\n      tag_15\n      swap2\n      swap1\n      tag_10\n      jump\t// in\n    tag_15:\n      tag_16\n      jump\t// in\n    tag_14:\n      mload(0x40)\n      tag_17\n      swap2\n      swap1\n      tag_18\n      jump\t// in\n    tag_17:\n      mload(0x40)\n      dup1\n      swap2\n      sub\n      swap1\n      return\n        /* \"contracts/NewRegistration.sol\":1402:1507  function isActive(address user) public view returns (bool) {... */\n    tag_6:\n      tag_19\n      0x04\n      dup1\n      calldatasize\n      sub\n      dup2\n      add\n      swap1\n      tag_20\n      swap2\n      swap1\n      tag_21\n      jump\t// in\n    tag_20:\n      tag_22\n      jump\t// in\n    tag_19:\n      mload(0x40)\n      tag_23\n      swap2\n      swap1\n      tag_18\n      jump\t// in\n    tag_23:\n      mload(0x40)\n      dup1\n      swap2\n      sub\n      swap1\n      return\n        /* \"contracts/NewRegistration.sol\":1210:1323  function isRegistered(address user) public view returns (bool) {... */\n    tag_7:\n      tag_24\n      0x04\n      dup1\n      calldatasize\n      sub\n      dup2\n      add\n      swap1\n      tag_25\n      swap2\n      swap1\n      tag_21\n      jump\t// in\n    tag_25:\n      tag_26\n      jump\t// in\n    tag_24:\n      mload(0x40)\n      tag_27\n      swap2\n      swap1\n      tag_18\n      jump\t// in\n    tag_27:\n      mload(0x40)\n      dup1\n      swap2\n      sub\n      swap1\n      return\n        /* \"contracts/NewRegistration.sol\":426:853  function register(string memory _email, string memory _password) public {... */\n    tag_11:\n        /* \"contracts/NewRegistration.sol\":518:523  users */\n      0x00\n        /* \"contracts/NewRegistration.sol\":518:535  users[msg.sender] */\n      dup1\n        /* \"contracts/NewRegistration.sol\":524:534  msg.sender */\n      caller\n        /* \"contracts/NewRegistration.sol\":518:535  users[msg.sender] */\n      0xffffffffffffffffffffffffffffffffffffffff\n      and\n      0xffffffffffffffffffffffffffffffffffffffff\n      and\n      dup2\n      mstore\n      0x20\n      add\n      swap1\n      dup2\n      mstore\n      0x20\n      add\n      0x00\n      keccak256\n        /* \"contracts/NewRegistration.sol\":518:548  users[msg.sender].isRegistered */\n      0x02\n      add\n      0x00\n      swap1\n      sload\n      swap1\n      0x0100\n      exp\n      swap1\n      div\n      0xff\n      and\n        /* \"contracts/NewRegistration.sol\":517:548  !users[msg.sender].isRegistered */\n      iszero\n        /* \"contracts/NewRegistration.sol\":509:579  require(!users[msg.sender].isRegistered, \"User is already registered\") */\n      tag_29\n      jumpi\n      mload(0x40)\n      0x08c379a000000000000000000000000000000000000000000000000000000000\n      dup2\n      mstore\n      0x04\n      add\n      tag_30\n      swap1\n      tag_31\n      jump\t// in\n    tag_30:\n      mload(0x40)\n      dup1\n      swap2\n      sub\n      swap1\n      revert\n    tag_29:\n        /* \"contracts/NewRegistration.sol\":626:632  _email */\n      dup2\n        /* \"contracts/NewRegistration.sol\":600:605  users */\n      0x00\n        /* \"contracts/NewRegistration.sol\":600:617  users[msg.sender] */\n      dup1\n        /* \"contracts/NewRegistration.sol\":606:616  msg.sender */\n      caller\n        /* \"contracts/NewRegistration.sol\":600:617  users[msg.sender] */\n      0xffffffffffffffffffffffffffffffffffffffff\n      and\n      0xffffffffffffffffffffffffffffffffffffffff\n      and\n      dup2\n      mstore\n      0x20\n      add\n      swap1\n      dup2\n      mstore\n      0x20\n      add\n      0x00\n      keccak256\n        /* \"contracts/NewRegistration.sol\":600:623  users[msg.sender].email */\n      0x00\n      add\n        /* \"contracts/NewRegistration.sol\":600:632  users[msg.sender].email = _email */\n      swap1\n      dup2\n      tag_32\n      swap2\n      swap1\n      tag_33\n      jump\t// in\n    tag_32:\n      pop\n        /* \"contracts/NewRegistration.sol\":703:712  _password */\n      dup1\n        /* \"contracts/NewRegistration.sol\":686:713  abi.encodePacked(_password) */\n      add(0x20, mload(0x40))\n      tag_34\n      swap2\n      swap1\n      tag_35\n      jump\t// in\n    tag_34:\n      mload(0x40)\n      0x20\n      dup2\n      dup4\n      sub\n      sub\n      dup2\n      mstore\n      swap1\n      0x40\n      mstore\n        /* \"contracts/NewRegistration.sol\":676:714  keccak256(abi.encodePacked(_password)) */\n      dup1\n      mload\n      swap1\n      0x20\n      add\n      keccak256\n        /* \"contracts/NewRegistration.sol\":643:648  users */\n      0x00\n        /* \"contracts/NewRegistration.sol\":643:660  users[msg.sender] */\n      dup1\n        /* \"contracts/NewRegistration.sol\":649:659  msg.sender */\n      caller\n        /* \"contracts/NewRegistration.sol\":643:660  users[msg.sender] */\n      0xffffffffffffffffffffffffffffffffffffffff\n      and\n      0xffffffffffffffffffffffffffffffffffffffff\n      and\n      dup2\n      mstore\n      0x20\n      add\n      swap1\n      dup2\n      mstore\n      0x20\n      add\n      0x00\n      keccak256\n        /* \"contracts/NewRegistration.sol\":643:673  users[msg.sender].passwordHash */\n      0x01\n      add\n        /* \"contracts/NewRegistration.sol\":643:714  users[msg.sender].passwordHash = keccak256(abi.encodePacked(_password)) */\n      dup2\n      swap1\n      sstore\n      pop\n        /* \"contracts/NewRegistration.sol\":797:801  true */\n      0x01\n        /* \"contracts/NewRegistration.sol\":764:769  users */\n      0x00\n        /* \"contracts/NewRegistration.sol\":764:781  users[msg.sender] */\n      dup1\n        /* \"contracts/NewRegistration.sol\":770:780  msg.sender */\n      caller\n        /* \"contracts/NewRegistration.sol\":764:781  users[msg.sender] */\n      0xffffffffffffffffffffffffffffffffffffffff\n      and\n      0xffffffffffffffffffffffffffffffffffffffff\n      and\n      dup2\n      mstore\n      0x20\n      add\n      swap1\n      dup2\n      mstore\n      0x20\n      add\n      0x00\n      keccak256\n        /* \"contracts/NewRegistration.sol\":764:794  users[msg.sender].isRegistered */\n      0x02\n      add\n      0x00\n        /* \"contracts/NewRegistration.sol\":764:801  users[msg.sender].isRegistered = true */\n      0x0100\n      exp\n      dup2\n      sload\n      dup2\n      0xff\n      mul\n      not\n      and\n      swap1\n      dup4\n      iszero\n      iszero\n      mul\n      or\n      swap1\n      sstore\n      pop\n        /* \"contracts/NewRegistration.sol\":841:845  true */\n      0x01\n        /* \"contracts/NewRegistration.sol\":812:817  users */\n      0x00\n        /* \"contracts/NewRegistration.sol\":812:829  users[msg.sender] */\n      dup1\n        /* \"contracts/NewRegistration.sol\":818:828  msg.sender */\n      caller\n        /* \"contracts/NewRegistration.sol\":812:829  users[msg.sender] */\n      0xffffffffffffffffffffffffffffffffffffffff\n      and\n      0xffffffffffffffffffffffffffffffffffffffff\n      and\n      dup2\n      mstore\n      0x20\n      add\n      swap1\n      dup2\n      mstore\n      0x20\n      add\n      0x00\n      keccak256\n        /* \"contracts/NewRegistration.sol\":812:838  users[msg.sender].isActive */\n      0x02\n      add\n      0x01\n        /* \"contracts/NewRegistration.sol\":812:845  users[msg.sender].isActive = true */\n      0x0100\n      exp\n      dup2\n      sload\n      dup2\n      0xff\n      mul\n      not\n      and\n      swap1\n      dup4\n      iszero\n      iszero\n      mul\n      or\n      swap1\n      sstore\n      pop\n        /* \"contracts/NewRegistration.sol\":426:853  function register(string memory _email, string memory _password) public {... */\n      pop\n      pop\n      jump\t// out\n        /* \"contracts/NewRegistration.sol\":917:1154  function deactivate() public {... */\n    tag_13:\n        /* \"contracts/NewRegistration.sol\":965:970  users */\n      0x00\n        /* \"contracts/NewRegistration.sol\":965:982  users[msg.sender] */\n      dup1\n        /* \"contracts/NewRegistration.sol\":971:981  msg.sender */\n      caller\n        /* \"contracts/NewRegistration.sol\":965:982  users[msg.sender] */\n      0xffffffffffffffffffffffffffffffffffffffff\n      and\n      0xffffffffffffffffffffffffffffffffffffffff\n      and\n      dup2\n      mstore\n      0x20\n      add\n      swap1\n      dup2\n      mstore\n      0x20\n      add\n      0x00\n      keccak256\n        /* \"contracts/NewRegistration.sol\":965:995  users[msg.sender].isRegistered */\n      0x02\n      add\n      0x00\n      swap1\n      sload\n      swap1\n      0x0100\n      exp\n      swap1\n      div\n      0xff\n      and\n        /* \"contracts/NewRegistration.sol\":957:1022  require(users[msg.sender].isRegistered, \"User is not registered\") */\n      tag_37\n      jumpi\n      mload(0x40)\n      0x08c379a000000000000000000000000000000000000000000000000000000000\n      dup2\n      mstore\n      0x04\n      add\n      tag_38\n      swap1\n      tag_39\n      jump\t// in\n    tag_38:\n      mload(0x40)\n      dup1\n      swap2\n      sub\n      swap1\n      revert\n    tag_37:\n        /* \"contracts/NewRegistration.sol\":1041:1046  users */\n      0x00\n        /* \"contracts/NewRegistration.sol\":1041:1058  users[msg.sender] */\n      dup1\n        /* \"contracts/NewRegistration.sol\":1047:1057  msg.sender */\n      caller\n        /* \"contracts/NewRegistration.sol\":1041:1058  users[msg.sender] */\n      0xffffffffffffffffffffffffffffffffffffffff\n      and\n      0xffffffffffffffffffffffffffffffffffffffff\n      and\n      dup2\n      mstore\n      0x20\n      add\n      swap1\n      dup2\n      mstore\n      0x20\n      add\n      0x00\n      keccak256\n        /* \"contracts/NewRegistration.sol\":1041:1067  users[msg.sender].isActive */\n      0x02\n      add\n      0x01\n      swap1\n      sload\n      swap1\n      0x0100\n      exp\n      swap1\n      div\n      0xff\n      and\n        /* \"contracts/NewRegistration.sol\":1033:1099  require(users[msg.sender].isActive, \"User is already deactivated\") */\n      tag_40\n      jumpi\n      mload(0x40)\n      0x08c379a000000000000000000000000000000000000000000000000000000000\n      dup2\n      mstore\n      0x04\n      add\n      tag_41\n      swap1\n      tag_42\n      jump\t// in\n    tag_41:\n      mload(0x40)\n      dup1\n      swap2\n      sub\n      swap1\n      revert\n    tag_40:\n        /* \"contracts/NewRegistration.sol\":1141:1146  false */\n      0x00\n        /* \"contracts/NewRegistration.sol\":1112:1117  users */\n      dup1\n        /* \"contracts/NewRegistration.sol\":1112:1129  users[msg.sender] */\n      0x00\n        /* \"contracts/NewRegistration.sol\":1118:1128  msg.sender */\n      caller\n        /* \"contracts/NewRegistration.sol\":1112:1129  users[msg.sender] */\n      0xffffffffffffffffffffffffffffffffffffffff\n      and\n      0xffffffffffffffffffffffffffffffffffffffff\n      and\n      dup2\n      mstore\n      0x20\n      add\n      swap1\n      dup2\n      mstore\n      0x20\n      add\n      0x00\n      keccak256\n        /* \"contracts/NewRegistration.sol\":1112:1138  users[msg.sender].isActive */\n      0x02\n      add\n      0x01\n        /* \"contracts/NewRegistration.sol\":1112:1146  users[msg.sender].isActive = false */\n      0x0100\n      exp\n      dup2\n      sload\n      dup2\n      0xff\n      mul\n      not\n      and\n      swap1\n      dup4\n      iszero\n      iszero\n      mul\n      or\n      swap1\n      sstore\n      pop\n        /* \"contracts/NewRegistration.sol\":917:1154  function deactivate() public {... */\n      jump\t// out\n        /* \"contracts/NewRegistration.sol\":1604:1969  function authenticate(string memory _email, string memory _password) public view returns (bool) {... */\n    tag_16:\n        /* \"contracts/NewRegistration.sol\":1694:1698  bool */\n      0x00\n        /* \"contracts/NewRegistration.sol\":1719:1724  users */\n      dup1\n        /* \"contracts/NewRegistration.sol\":1719:1736  users[msg.sender] */\n      0x00\n        /* \"contracts/NewRegistration.sol\":1725:1735  msg.sender */\n      caller\n        /* \"contracts/NewRegistration.sol\":1719:1736  users[msg.sender] */\n      0xffffffffffffffffffffffffffffffffffffffff\n      and\n      0xffffffffffffffffffffffffffffffffffffffff\n      and\n      dup2\n      mstore\n      0x20\n      add\n      swap1\n      dup2\n      mstore\n      0x20\n      add\n      0x00\n      keccak256\n        /* \"contracts/NewRegistration.sol\":1719:1749  users[msg.sender].isRegistered */\n      0x02\n      add\n      0x00\n      swap1\n      sload\n      swap1\n      0x0100\n      exp\n      swap1\n      div\n      0xff\n      and\n        /* \"contracts/NewRegistration.sol\":1711:1776  require(users[msg.sender].isRegistered, \"User is not registered\") */\n      tag_44\n      jumpi\n      mload(0x40)\n      0x08c379a000000000000000000000000000000000000000000000000000000000\n      dup2\n      mstore\n      0x04\n      add\n      tag_45\n      swap1\n      tag_39\n      jump\t// in\n    tag_45:\n      mload(0x40)\n      dup1\n      swap2\n      sub\n      swap1\n      revert\n    tag_44:\n        /* \"contracts/NewRegistration.sol\":1836:1841  users */\n      0x00\n        /* \"contracts/NewRegistration.sol\":1836:1853  users[msg.sender] */\n      dup1\n        /* \"contracts/NewRegistration.sol\":1842:1852  msg.sender */\n      caller\n        /* \"contracts/NewRegistration.sol\":1836:1853  users[msg.sender] */\n      0xffffffffffffffffffffffffffffffffffffffff\n      and\n      0xffffffffffffffffffffffffffffffffffffffff\n      and\n      dup2\n      mstore\n      0x20\n      add\n      swap1\n      dup2\n      mstore\n      0x20\n      add\n      0x00\n      keccak256\n        /* \"contracts/NewRegistration.sol\":1836:1866  users[msg.sender].passwordHash */\n      0x01\n      add\n      sload\n        /* \"contracts/NewRegistration.sol\":1821:1830  _password */\n      dup3\n        /* \"contracts/NewRegistration.sol\":1804:1831  abi.encodePacked(_password) */\n      add(0x20, mload(0x40))\n      tag_46\n      swap2\n      swap1\n      tag_35\n      jump\t// in\n    tag_46:\n      mload(0x40)\n      0x20\n      dup2\n      dup4\n      sub\n      sub\n      dup2\n      mstore\n      swap1\n      0x40\n      mstore\n        /* \"contracts/NewRegistration.sol\":1794:1832  keccak256(abi.encodePacked(_password)) */\n      dup1\n      mload\n      swap1\n      0x20\n      add\n      keccak256\n        /* \"contracts/NewRegistration.sol\":1794:1866  keccak256(abi.encodePacked(_password)) == users[msg.sender].passwordHash */\n      eq\n        /* \"contracts/NewRegistration.sol\":1794:1961  keccak256(abi.encodePacked(_password)) == users[msg.sender].passwordHash && keccak256(abi.encodePacked(_email)) == keccak256(abi.encodePacked(users[msg.sender].email)) */\n      dup1\n      iszero\n      tag_47\n      jumpi\n      pop\n        /* \"contracts/NewRegistration.sol\":1936:1941  users */\n      0x00\n        /* \"contracts/NewRegistration.sol\":1936:1953  users[msg.sender] */\n      dup1\n        /* \"contracts/NewRegistration.sol\":1942:1952  msg.sender */\n      caller\n        /* \"contracts/NewRegistration.sol\":1936:1953  users[msg.sender] */\n      0xffffffffffffffffffffffffffffffffffffffff\n      and\n      0xffffffffffffffffffffffffffffffffffffffff\n      and\n      dup2\n      mstore\n      0x20\n      add\n      swap1\n      dup2\n      mstore\n      0x20\n      add\n      0x00\n      keccak256\n        /* \"contracts/NewRegistration.sol\":1936:1959  users[msg.sender].email */\n      0x00\n      add\n        /* \"contracts/NewRegistration.sol\":1919:1960  abi.encodePacked(users[msg.sender].email) */\n      add(0x20, mload(0x40))\n      tag_48\n      swap2\n      swap1\n      tag_49\n      jump\t// in\n    tag_48:\n      mload(0x40)\n      0x20\n      dup2\n      dup4\n      sub\n      sub\n      dup2\n      mstore\n      swap1\n      0x40\n      mstore\n        /* \"contracts/NewRegistration.sol\":1909:1961  keccak256(abi.encodePacked(users[msg.sender].email)) */\n      dup1\n      mload\n      swap1\n      0x20\n      add\n      keccak256\n        /* \"contracts/NewRegistration.sol\":1897:1903  _email */\n      dup4\n        /* \"contracts/NewRegistration.sol\":1880:1904  abi.encodePacked(_email) */\n      add(0x20, mload(0x40))\n      tag_50\n      swap2\n      swap1\n      tag_35\n      jump\t// in\n    tag_50:\n      mload(0x40)\n      0x20\n      dup2\n      dup4\n      sub\n      sub\n      dup2\n      mstore\n      swap1\n      0x40\n      mstore\n        /* \"contracts/NewRegistration.sol\":1870:1905  keccak256(abi.encodePacked(_email)) */\n      dup1\n      mload\n      swap1\n      0x20\n      add\n      keccak256\n        /* \"contracts/NewRegistration.sol\":1870:1961  keccak256(abi.encodePacked(_email)) == keccak256(abi.encodePacked(users[msg.sender].email)) */\n      eq\n        /* \"contracts/NewRegistration.sol\":1794:1961  keccak256(abi.encodePacked(_password)) == users[msg.sender].passwordHash && keccak256(abi.encodePacked(_email)) == keccak256(abi.encodePacked(users[msg.sender].email)) */\n    tag_47:\n        /* \"contracts/NewRegistration.sol\":1787:1961  return keccak256(abi.encodePacked(_password)) == users[msg.sender].passwordHash && keccak256(abi.encodePacked(_email)) == keccak256(abi.encodePacked(users[msg.sender].email)) */\n      swap1\n      pop\n        /* \"contracts/NewRegistration.sol\":1604:1969  function authenticate(string memory _email, string memory _password) public view returns (bool) {... */\n      swap3\n      swap2\n      pop\n      pop\n      jump\t// out\n        /* \"contracts/NewRegistration.sol\":1402:1507  function isActive(address user) public view returns (bool) {... */\n    tag_22:\n        /* \"contracts/NewRegistration.sol\":1455:1459  bool */\n      0x00\n        /* \"contracts/NewRegistration.sol\":1479:1484  users */\n      dup1\n        /* \"contracts/NewRegistration.sol\":1479:1490  users[user] */\n      0x00\n        /* \"contracts/NewRegistration.sol\":1485:1489  user */\n      dup4\n        /* \"contracts/NewRegistration.sol\":1479:1490  users[user] */\n      0xffffffffffffffffffffffffffffffffffffffff\n      and\n      0xffffffffffffffffffffffffffffffffffffffff\n      and\n      dup2\n      mstore\n      0x20\n      add\n      swap1\n      dup2\n      mstore\n      0x20\n      add\n      0x00\n      keccak256\n        /* \"contracts/NewRegistration.sol\":1479:1499  users[user].isActive */\n      0x02\n      add\n      0x01\n      swap1\n      sload\n      swap1\n      0x0100\n      exp\n      swap1\n      div\n      0xff\n      and\n        /* \"contracts/NewRegistration.sol\":1472:1499  return users[user].isActive */\n      swap1\n      pop\n        /* \"contracts/NewRegistration.sol\":1402:1507  function isActive(address user) public view returns (bool) {... */\n      swap2\n      swap1\n      pop\n      jump\t// out\n        /* \"contracts/NewRegistration.sol\":1210:1323  function isRegistered(address user) public view returns (bool) {... */\n    tag_26:\n        /* \"contracts/NewRegistration.sol\":1267:1271  bool */\n      0x00\n        /* \"contracts/NewRegistration.sol\":1291:1296  users */\n      dup1\n        /* \"contracts/NewRegistration.sol\":1291:1302  users[user] */\n      0x00\n        /* \"contracts/NewRegistration.sol\":1297:1301  user */\n      dup4\n        /* \"contracts/NewRegistration.sol\":1291:1302  users[user] */\n      0xffffffffffffffffffffffffffffffffffffffff\n      and\n      0xffffffffffffffffffffffffffffffffffffffff\n      and\n      dup2\n      mstore\n      0x20\n      add\n      swap1\n      dup2\n      mstore\n      0x20\n      add\n      0x00\n      keccak256\n        /* \"contracts/NewRegistration.sol\":1291:1315  users[user].isRegistered */\n      0x02\n      add\n      0x00\n      swap1\n      sload\n      swap1\n      0x0100\n      exp\n      swap1\n      div\n      0xff\n      and\n        /* \"contracts/NewRegistration.sol\":1284:1315  return users[user].isRegistered */\n      swap1\n      pop\n        /* \"contracts/NewRegistration.sol\":1210:1323  function isRegistered(address user) public view returns (bool) {... */\n      swap2\n      swap1\n      pop\n      jump\t// out\n        /* \"#utility.yul\":7:82   */\n    tag_53:\n        /* \"#utility.yul\":40:46   */\n      0x00\n        /* \"#utility.yul\":73:75   */\n      0x40\n        /* \"#utility.yul\":67:76   */\n      mload\n        /* \"#utility.yul\":57:76   */\n      swap1\n      pop\n        /* \"#utility.yul\":7:82   */\n      swap1\n      jump\t// out\n        /* \"#utility.yul\":88:205   */\n    tag_54:\n        /* \"#utility.yul\":197:198   */\n      0x00\n        /* \"#utility.yul\":194:195   */\n      dup1\n        /* \"#utility.yul\":187:199   */\n      revert\n        /* \"#utility.yul\":211:328   */\n    tag_55:\n        /* \"#utility.yul\":320:321   */\n      0x00\n        /* \"#utility.yul\":317:318   */\n      dup1\n        /* \"#utility.yul\":310:322   */\n      revert\n        /* \"#utility.yul\":334:451   */\n    tag_56:\n        /* \"#utility.yul\":443:444   */\n      0x00\n        /* \"#utility.yul\":440:441   */\n      dup1\n        /* \"#utility.yul\":433:445   */\n      revert\n        /* \"#utility.yul\":457:574   */\n    tag_57:\n        /* \"#utility.yul\":566:567   */\n      0x00\n        /* \"#utility.yul\":563:564   */\n      dup1\n        /* \"#utility.yul\":556:568   */\n      revert\n        /* \"#utility.yul\":580:682   */\n    tag_58:\n        /* \"#utility.yul\":621:627   */\n      0x00\n        /* \"#utility.yul\":672:674   */\n      0x1f\n        /* \"#utility.yul\":668:675   */\n      not\n        /* \"#utility.yul\":663:665   */\n      0x1f\n        /* \"#utility.yul\":656:661   */\n      dup4\n        /* \"#utility.yul\":652:666   */\n      add\n        /* \"#utility.yul\":648:676   */\n      and\n        /* \"#utility.yul\":638:676   */\n      swap1\n      pop\n        /* \"#utility.yul\":580:682   */\n      swap2\n      swap1\n      pop\n      jump\t// out\n        /* \"#utility.yul\":688:868   */\n    tag_59:\n        /* \"#utility.yul\":736:813   */\n      0x4e487b7100000000000000000000000000000000000000000000000000000000\n        /* \"#utility.yul\":733:734   */\n      0x00\n        /* \"#utility.yul\":726:814   */\n      mstore\n        /* \"#utility.yul\":833:837   */\n      0x41\n        /* \"#utility.yul\":830:831   */\n      0x04\n        /* \"#utility.yul\":823:838   */\n      mstore\n        /* \"#utility.yul\":857:861   */\n      0x24\n        /* \"#utility.yul\":854:855   */\n      0x00\n        /* \"#utility.yul\":847:862   */\n      revert\n        /* \"#utility.yul\":874:1155   */\n    tag_60:\n        /* \"#utility.yul\":957:984   */\n      tag_111\n        /* \"#utility.yul\":979:983   */\n      dup3\n        /* \"#utility.yul\":957:984   */\n      tag_58\n      jump\t// in\n    tag_111:\n        /* \"#utility.yul\":949:955   */\n      dup2\n        /* \"#utility.yul\":945:985   */\n      add\n        /* \"#utility.yul\":1087:1093   */\n      dup2\n        /* \"#utility.yul\":1075:1085   */\n      dup2\n        /* \"#utility.yul\":1072:1094   */\n      lt\n        /* \"#utility.yul\":1051:1069   */\n      0xffffffffffffffff\n        /* \"#utility.yul\":1039:1049   */\n      dup3\n        /* \"#utility.yul\":1036:1070   */\n      gt\n        /* \"#utility.yul\":1033:1095   */\n      or\n        /* \"#utility.yul\":1030:1118   */\n      iszero\n      tag_112\n      jumpi\n        /* \"#utility.yul\":1098:1116   */\n      tag_113\n      tag_59\n      jump\t// in\n    tag_113:\n        /* \"#utility.yul\":1030:1118   */\n    tag_112:\n        /* \"#utility.yul\":1138:1148   */\n      dup1\n        /* \"#utility.yul\":1134:1136   */\n      0x40\n        /* \"#utility.yul\":1127:1149   */\n      mstore\n        /* \"#utility.yul\":917:1155   */\n      pop\n        /* \"#utility.yul\":874:1155   */\n      pop\n      pop\n      jump\t// out\n        /* \"#utility.yul\":1161:1290   */\n    tag_61:\n        /* \"#utility.yul\":1195:1201   */\n      0x00\n        /* \"#utility.yul\":1222:1242   */\n      tag_115\n      tag_53\n      jump\t// in\n    tag_115:\n        /* \"#utility.yul\":1212:1242   */\n      swap1\n      pop\n        /* \"#utility.yul\":1251:1284   */\n      tag_116\n        /* \"#utility.yul\":1279:1283   */\n      dup3\n        /* \"#utility.yul\":1271:1277   */\n      dup3\n        /* \"#utility.yul\":1251:1284   */\n      tag_60\n      jump\t// in\n    tag_116:\n        /* \"#utility.yul\":1161:1290   */\n      swap2\n      swap1\n      pop\n      jump\t// out\n        /* \"#utility.yul\":1296:1604   */\n    tag_62:\n        /* \"#utility.yul\":1358:1362   */\n      0x00\n        /* \"#utility.yul\":1448:1466   */\n      0xffffffffffffffff\n        /* \"#utility.yul\":1440:1446   */\n      dup3\n        /* \"#utility.yul\":1437:1467   */\n      gt\n        /* \"#utility.yul\":1434:1490   */\n      iszero\n      tag_118\n      jumpi\n        /* \"#utility.yul\":1470:1488   */\n      tag_119\n      tag_59\n      jump\t// in\n    tag_119:\n        /* \"#utility.yul\":1434:1490   */\n    tag_118:\n        /* \"#utility.yul\":1508:1537   */\n      tag_120\n        /* \"#utility.yul\":1530:1536   */\n      dup3\n        /* \"#utility.yul\":1508:1537   */\n      tag_58\n      jump\t// in\n    tag_120:\n        /* \"#utility.yul\":1500:1537   */\n      swap1\n      pop\n        /* \"#utility.yul\":1592:1596   */\n      0x20\n        /* \"#utility.yul\":1586:1590   */\n      dup2\n        /* \"#utility.yul\":1582:1597   */\n      add\n        /* \"#utility.yul\":1574:1597   */\n      swap1\n      pop\n        /* \"#utility.yul\":1296:1604   */\n      swap2\n      swap1\n      pop\n      jump\t// out\n        /* \"#utility.yul\":1610:1758   */\n    tag_63:\n        /* \"#utility.yul\":1708:1714   */\n      dup3\n        /* \"#utility.yul\":1703:1706   */\n      dup2\n        /* \"#utility.yul\":1698:1701   */\n      dup4\n        /* \"#utility.yul\":1685:1715   */\n      calldatacopy\n        /* \"#utility.yul\":1749:1750   */\n      0x00\n        /* \"#utility.yul\":1740:1746   */\n      dup4\n        /* \"#utility.yul\":1735:1738   */\n      dup4\n        /* \"#utility.yul\":1731:1747   */\n      add\n        /* \"#utility.yul\":1724:1751   */\n      mstore\n        /* \"#utility.yul\":1610:1758   */\n      pop\n      pop\n      pop\n      jump\t// out\n        /* \"#utility.yul\":1764:2189   */\n    tag_64:\n        /* \"#utility.yul\":1842:1847   */\n      0x00\n        /* \"#utility.yul\":1867:1933   */\n      tag_123\n        /* \"#utility.yul\":1883:1932   */\n      tag_124\n        /* \"#utility.yul\":1925:1931   */\n      dup5\n        /* \"#utility.yul\":1883:1932   */\n      tag_62\n      jump\t// in\n    tag_124:\n        /* \"#utility.yul\":1867:1933   */\n      tag_61\n      jump\t// in\n    tag_123:\n        /* \"#utility.yul\":1858:1933   */\n      swap1\n      pop\n        /* \"#utility.yul\":1956:1962   */\n      dup3\n        /* \"#utility.yul\":1949:1954   */\n      dup2\n        /* \"#utility.yul\":1942:1963   */\n      mstore\n        /* \"#utility.yul\":1994:1998   */\n      0x20\n        /* \"#utility.yul\":1987:1992   */\n      dup2\n        /* \"#utility.yul\":1983:1999   */\n      add\n        /* \"#utility.yul\":2032:2035   */\n      dup5\n        /* \"#utility.yul\":2023:2029   */\n      dup5\n        /* \"#utility.yul\":2018:2021   */\n      dup5\n        /* \"#utility.yul\":2014:2030   */\n      add\n        /* \"#utility.yul\":2011:2036   */\n      gt\n        /* \"#utility.yul\":2008:2120   */\n      iszero\n      tag_125\n      jumpi\n        /* \"#utility.yul\":2039:2118   */\n      tag_126\n      tag_57\n      jump\t// in\n    tag_126:\n        /* \"#utility.yul\":2008:2120   */\n    tag_125:\n        /* \"#utility.yul\":2129:2183   */\n      tag_127\n        /* \"#utility.yul\":2176:2182   */\n      dup5\n        /* \"#utility.yul\":2171:2174   */\n      dup3\n        /* \"#utility.yul\":2166:2169   */\n      dup6\n        /* \"#utility.yul\":2129:2183   */\n      tag_63\n      jump\t// in\n    tag_127:\n        /* \"#utility.yul\":1848:2189   */\n      pop\n        /* \"#utility.yul\":1764:2189   */\n      swap4\n      swap3\n      pop\n      pop\n      pop\n      jump\t// out\n        /* \"#utility.yul\":2209:2549   */\n    tag_65:\n        /* \"#utility.yul\":2265:2270   */\n      0x00\n        /* \"#utility.yul\":2314:2317   */\n      dup3\n        /* \"#utility.yul\":2307:2311   */\n      0x1f\n        /* \"#utility.yul\":2299:2305   */\n      dup4\n        /* \"#utility.yul\":2295:2312   */\n      add\n        /* \"#utility.yul\":2291:2318   */\n      slt\n        /* \"#utility.yul\":2281:2403   */\n      tag_129\n      jumpi\n        /* \"#utility.yul\":2322:2401   */\n      tag_130\n      tag_56\n      jump\t// in\n    tag_130:\n        /* \"#utility.yul\":2281:2403   */\n    tag_129:\n        /* \"#utility.yul\":2439:2445   */\n      dup2\n        /* \"#utility.yul\":2426:2446   */\n      calldataload\n        /* \"#utility.yul\":2464:2543   */\n      tag_131\n        /* \"#utility.yul\":2539:2542   */\n      dup5\n        /* \"#utility.yul\":2531:2537   */\n      dup3\n        /* \"#utility.yul\":2524:2528   */\n      0x20\n        /* \"#utility.yul\":2516:2522   */\n      dup7\n        /* \"#utility.yul\":2512:2529   */\n      add\n        /* \"#utility.yul\":2464:2543   */\n      tag_64\n      jump\t// in\n    tag_131:\n        /* \"#utility.yul\":2455:2543   */\n      swap2\n      pop\n        /* \"#utility.yul\":2271:2549   */\n      pop\n        /* \"#utility.yul\":2209:2549   */\n      swap3\n      swap2\n      pop\n      pop\n      jump\t// out\n        /* \"#utility.yul\":2555:3389   */\n    tag_10:\n        /* \"#utility.yul\":2643:2649   */\n      0x00\n        /* \"#utility.yul\":2651:2657   */\n      dup1\n        /* \"#utility.yul\":2700:2702   */\n      0x40\n        /* \"#utility.yul\":2688:2697   */\n      dup4\n        /* \"#utility.yul\":2679:2686   */\n      dup6\n        /* \"#utility.yul\":2675:2698   */\n      sub\n        /* \"#utility.yul\":2671:2703   */\n      slt\n        /* \"#utility.yul\":2668:2787   */\n      iszero\n      tag_133\n      jumpi\n        /* \"#utility.yul\":2706:2785   */\n      tag_134\n      tag_54\n      jump\t// in\n    tag_134:\n        /* \"#utility.yul\":2668:2787   */\n    tag_133:\n        /* \"#utility.yul\":2854:2855   */\n      0x00\n        /* \"#utility.yul\":2843:2852   */\n      dup4\n        /* \"#utility.yul\":2839:2856   */\n      add\n        /* \"#utility.yul\":2826:2857   */\n      calldataload\n        /* \"#utility.yul\":2884:2902   */\n      0xffffffffffffffff\n        /* \"#utility.yul\":2876:2882   */\n      dup2\n        /* \"#utility.yul\":2873:2903   */\n      gt\n        /* \"#utility.yul\":2870:2987   */\n      iszero\n      tag_135\n      jumpi\n        /* \"#utility.yul\":2906:2985   */\n      tag_136\n      tag_55\n      jump\t// in\n    tag_136:\n        /* \"#utility.yul\":2870:2987   */\n    tag_135:\n        /* \"#utility.yul\":3011:3074   */\n      tag_137\n        /* \"#utility.yul\":3066:3073   */\n      dup6\n        /* \"#utility.yul\":3057:3063   */\n      dup3\n        /* \"#utility.yul\":3046:3055   */\n      dup7\n        /* \"#utility.yul\":3042:3064   */\n      add\n        /* \"#utility.yul\":3011:3074   */\n      tag_65\n      jump\t// in\n    tag_137:\n        /* \"#utility.yul\":3001:3074   */\n      swap3\n      pop\n        /* \"#utility.yul\":2797:3084   */\n      pop\n        /* \"#utility.yul\":3151:3153   */\n      0x20\n        /* \"#utility.yul\":3140:3149   */\n      dup4\n        /* \"#utility.yul\":3136:3154   */\n      add\n        /* \"#utility.yul\":3123:3155   */\n      calldataload\n        /* \"#utility.yul\":3182:3200   */\n      0xffffffffffffffff\n        /* \"#utility.yul\":3174:3180   */\n      dup2\n        /* \"#utility.yul\":3171:3201   */\n      gt\n        /* \"#utility.yul\":3168:3285   */\n      iszero\n      tag_138\n      jumpi\n        /* \"#utility.yul\":3204:3283   */\n      tag_139\n      tag_55\n      jump\t// in\n    tag_139:\n        /* \"#utility.yul\":3168:3285   */\n    tag_138:\n        /* \"#utility.yul\":3309:3372   */\n      tag_140\n        /* \"#utility.yul\":3364:3371   */\n      dup6\n        /* \"#utility.yul\":3355:3361   */\n      dup3\n        /* \"#utility.yul\":3344:3353   */\n      dup7\n        /* \"#utility.yul\":3340:3362   */\n      add\n        /* \"#utility.yul\":3309:3372   */\n      tag_65\n      jump\t// in\n    tag_140:\n        /* \"#utility.yul\":3299:3372   */\n      swap2\n      pop\n        /* \"#utility.yul\":3094:3382   */\n      pop\n        /* \"#utility.yul\":2555:3389   */\n      swap3\n      pop\n      swap3\n      swap1\n      pop\n      jump\t// out\n        /* \"#utility.yul\":3395:3485   */\n    tag_66:\n        /* \"#utility.yul\":3429:3436   */\n      0x00\n        /* \"#utility.yul\":3472:3477   */\n      dup2\n        /* \"#utility.yul\":3465:3478   */\n      iszero\n        /* \"#utility.yul\":3458:3479   */\n      iszero\n        /* \"#utility.yul\":3447:3479   */\n      swap1\n      pop\n        /* \"#utility.yul\":3395:3485   */\n      swap2\n      swap1\n      pop\n      jump\t// out\n        /* \"#utility.yul\":3491:3600   */\n    tag_67:\n        /* \"#utility.yul\":3572:3593   */\n      tag_143\n        /* \"#utility.yul\":3587:3592   */\n      dup2\n        /* \"#utility.yul\":3572:3593   */\n      tag_66\n      jump\t// in\n    tag_143:\n        /* \"#utility.yul\":3567:3570   */\n      dup3\n        /* \"#utility.yul\":3560:3594   */\n      mstore\n        /* \"#utility.yul\":3491:3600   */\n      pop\n      pop\n      jump\t// out\n        /* \"#utility.yul\":3606:3816   */\n    tag_18:\n        /* \"#utility.yul\":3693:3697   */\n      0x00\n        /* \"#utility.yul\":3731:3733   */\n      0x20\n        /* \"#utility.yul\":3720:3729   */\n      dup3\n        /* \"#utility.yul\":3716:3734   */\n      add\n        /* \"#utility.yul\":3708:3734   */\n      swap1\n      pop\n        /* \"#utility.yul\":3744:3809   */\n      tag_145\n        /* \"#utility.yul\":3806:3807   */\n      0x00\n        /* \"#utility.yul\":3795:3804   */\n      dup4\n        /* \"#utility.yul\":3791:3808   */\n      add\n        /* \"#utility.yul\":3782:3788   */\n      dup5\n        /* \"#utility.yul\":3744:3809   */\n      tag_67\n      jump\t// in\n    tag_145:\n        /* \"#utility.yul\":3606:3816   */\n      swap3\n      swap2\n      pop\n      pop\n      jump\t// out\n        /* \"#utility.yul\":3822:3948   */\n    tag_68:\n        /* \"#utility.yul\":3859:3866   */\n      0x00\n        /* \"#utility.yul\":3899:3941   */\n      0xffffffffffffffffffffffffffffffffffffffff\n        /* \"#utility.yul\":3892:3897   */\n      dup3\n        /* \"#utility.yul\":3888:3942   */\n      and\n        /* \"#utility.yul\":3877:3942   */\n      swap1\n      pop\n        /* \"#utility.yul\":3822:3948   */\n      swap2\n      swap1\n      pop\n      jump\t// out\n        /* \"#utility.yul\":3954:4050   */\n    tag_69:\n        /* \"#utility.yul\":3991:3998   */\n      0x00\n        /* \"#utility.yul\":4020:4044   */\n      tag_148\n        /* \"#utility.yul\":4038:4043   */\n      dup3\n        /* \"#utility.yul\":4020:4044   */\n      tag_68\n      jump\t// in\n    tag_148:\n        /* \"#utility.yul\":4009:4044   */\n      swap1\n      pop\n        /* \"#utility.yul\":3954:4050   */\n      swap2\n      swap1\n      pop\n      jump\t// out\n        /* \"#utility.yul\":4056:4178   */\n    tag_70:\n        /* \"#utility.yul\":4129:4153   */\n      tag_150\n        /* \"#utility.yul\":4147:4152   */\n      dup2\n        /* \"#utility.yul\":4129:4153   */\n      tag_69\n      jump\t// in\n    tag_150:\n        /* \"#utility.yul\":4122:4127   */\n      dup2\n        /* \"#utility.yul\":4119:4154   */\n      eq\n        /* \"#utility.yul\":4109:4172   */\n      tag_151\n      jumpi\n        /* \"#utility.yul\":4168:4169   */\n      0x00\n        /* \"#utility.yul\":4165:4166   */\n      dup1\n        /* \"#utility.yul\":4158:4170   */\n      revert\n        /* \"#utility.yul\":4109:4172   */\n    tag_151:\n        /* \"#utility.yul\":4056:4178   */\n      pop\n      jump\t// out\n        /* \"#utility.yul\":4184:4323   */\n    tag_71:\n        /* \"#utility.yul\":4230:4235   */\n      0x00\n        /* \"#utility.yul\":4268:4274   */\n      dup2\n        /* \"#utility.yul\":4255:4275   */\n      calldataload\n        /* \"#utility.yul\":4246:4275   */\n      swap1\n      pop\n        /* \"#utility.yul\":4284:4317   */\n      tag_153\n        /* \"#utility.yul\":4311:4316   */\n      dup2\n        /* \"#utility.yul\":4284:4317   */\n      tag_70\n      jump\t// in\n    tag_153:\n        /* \"#utility.yul\":4184:4323   */\n      swap3\n      swap2\n      pop\n      pop\n      jump\t// out\n        /* \"#utility.yul\":4329:4658   */\n    tag_21:\n        /* \"#utility.yul\":4388:4394   */\n      0x00\n        /* \"#utility.yul\":4437:4439   */\n      0x20\n        /* \"#utility.yul\":4425:4434   */\n      dup3\n        /* \"#utility.yul\":4416:4423   */\n      dup5\n        /* \"#utility.yul\":4412:4435   */\n      sub\n        /* \"#utility.yul\":4408:4440   */\n      slt\n        /* \"#utility.yul\":4405:4524   */\n      iszero\n      tag_155\n      jumpi\n        /* \"#utility.yul\":4443:4522   */\n      tag_156\n      tag_54\n      jump\t// in\n    tag_156:\n        /* \"#utility.yul\":4405:4524   */\n    tag_155:\n        /* \"#utility.yul\":4563:4564   */\n      0x00\n        /* \"#utility.yul\":4588:4641   */\n      tag_157\n        /* \"#utility.yul\":4633:4640   */\n      dup5\n        /* \"#utility.yul\":4624:4630   */\n      dup3\n        /* \"#utility.yul\":4613:4622   */\n      dup6\n        /* \"#utility.yul\":4609:4631   */\n      add\n        /* \"#utility.yul\":4588:4641   */\n      tag_71\n      jump\t// in\n    tag_157:\n        /* \"#utility.yul\":4578:4641   */\n      swap2\n      pop\n        /* \"#utility.yul\":4534:4651   */\n      pop\n        /* \"#utility.yul\":4329:4658   */\n      swap3\n      swap2\n      pop\n      pop\n      jump\t// out\n        /* \"#utility.yul\":4664:4833   */\n    tag_72:\n        /* \"#utility.yul\":4748:4759   */\n      0x00\n        /* \"#utility.yul\":4782:4788   */\n      dup3\n        /* \"#utility.yul\":4777:4780   */\n      dup3\n        /* \"#utility.yul\":4770:4789   */\n      mstore\n        /* \"#utility.yul\":4822:4826   */\n      0x20\n        /* \"#utility.yul\":4817:4820   */\n      dup3\n        /* \"#utility.yul\":4813:4827   */\n      add\n        /* \"#utility.yul\":4798:4827   */\n      swap1\n      pop\n        /* \"#utility.yul\":4664:4833   */\n      swap3\n      swap2\n      pop\n      pop\n      jump\t// out\n        /* \"#utility.yul\":4839:5015   */\n    tag_73:\n        /* \"#utility.yul\":4979:5007   */\n      0x5573657220697320616c72656164792072656769737465726564000000000000\n        /* \"#utility.yul\":4975:4976   */\n      0x00\n        /* \"#utility.yul\":4967:4973   */\n      dup3\n        /* \"#utility.yul\":4963:4977   */\n      add\n        /* \"#utility.yul\":4956:5008   */\n      mstore\n        /* \"#utility.yul\":4839:5015   */\n      pop\n      jump\t// out\n        /* \"#utility.yul\":5021:5387   */\n    tag_74:\n        /* \"#utility.yul\":5163:5166   */\n      0x00\n        /* \"#utility.yul\":5184:5251   */\n      tag_161\n        /* \"#utility.yul\":5248:5250   */\n      0x1a\n        /* \"#utility.yul\":5243:5246   */\n      dup4\n        /* \"#utility.yul\":5184:5251   */\n      tag_72\n      jump\t// in\n    tag_161:\n        /* \"#utility.yul\":5177:5251   */\n      swap2\n      pop\n        /* \"#utility.yul\":5260:5353   */\n      tag_162\n        /* \"#utility.yul\":5349:5352   */\n      dup3\n        /* \"#utility.yul\":5260:5353   */\n      tag_73\n      jump\t// in\n    tag_162:\n        /* \"#utility.yul\":5378:5380   */\n      0x20\n        /* \"#utility.yul\":5373:5376   */\n      dup3\n        /* \"#utility.yul\":5369:5381   */\n      add\n        /* \"#utility.yul\":5362:5381   */\n      swap1\n      pop\n        /* \"#utility.yul\":5021:5387   */\n      swap2\n      swap1\n      pop\n      jump\t// out\n        /* \"#utility.yul\":5393:5812   */\n    tag_31:\n        /* \"#utility.yul\":5559:5563   */\n      0x00\n        /* \"#utility.yul\":5597:5599   */\n      0x20\n        /* \"#utility.yul\":5586:5595   */\n      dup3\n        /* \"#utility.yul\":5582:5600   */\n      add\n        /* \"#utility.yul\":5574:5600   */\n      swap1\n      pop\n        /* \"#utility.yul\":5646:5655   */\n      dup2\n        /* \"#utility.yul\":5640:5644   */\n      dup2\n        /* \"#utility.yul\":5636:5656   */\n      sub\n        /* \"#utility.yul\":5632:5633   */\n      0x00\n        /* \"#utility.yul\":5621:5630   */\n      dup4\n        /* \"#utility.yul\":5617:5634   */\n      add\n        /* \"#utility.yul\":5610:5657   */\n      mstore\n        /* \"#utility.yul\":5674:5805   */\n      tag_164\n        /* \"#utility.yul\":5800:5804   */\n      dup2\n        /* \"#utility.yul\":5674:5805   */\n      tag_74\n      jump\t// in\n    tag_164:\n        /* \"#utility.yul\":5666:5805   */\n      swap1\n      pop\n        /* \"#utility.yul\":5393:5812   */\n      swap2\n      swap1\n      pop\n      jump\t// out\n        /* \"#utility.yul\":5818:5917   */\n    tag_75:\n        /* \"#utility.yul\":5870:5876   */\n      0x00\n        /* \"#utility.yul\":5904:5909   */\n      dup2\n        /* \"#utility.yul\":5898:5910   */\n      mload\n        /* \"#utility.yul\":5888:5910   */\n      swap1\n      pop\n        /* \"#utility.yul\":5818:5917   */\n      swap2\n      swap1\n      pop\n      jump\t// out\n        /* \"#utility.yul\":5923:6103   */\n    tag_76:\n        /* \"#utility.yul\":5971:6048   */\n      0x4e487b7100000000000000000000000000000000000000000000000000000000\n        /* \"#utility.yul\":5968:5969   */\n      0x00\n        /* \"#utility.yul\":5961:6049   */\n      mstore\n        /* \"#utility.yul\":6068:6072   */\n      0x22\n        /* \"#utility.yul\":6065:6066   */\n      0x04\n        /* \"#utility.yul\":6058:6073   */\n      mstore\n        /* \"#utility.yul\":6092:6096   */\n      0x24\n        /* \"#utility.yul\":6089:6090   */\n      0x00\n        /* \"#utility.yul\":6082:6097   */\n      revert\n        /* \"#utility.yul\":6109:6429   */\n    tag_77:\n        /* \"#utility.yul\":6153:6159   */\n      0x00\n        /* \"#utility.yul\":6190:6191   */\n      0x02\n        /* \"#utility.yul\":6184:6188   */\n      dup3\n        /* \"#utility.yul\":6180:6192   */\n      div\n        /* \"#utility.yul\":6170:6192   */\n      swap1\n      pop\n        /* \"#utility.yul\":6237:6238   */\n      0x01\n        /* \"#utility.yul\":6231:6235   */\n      dup3\n        /* \"#utility.yul\":6227:6239   */\n      and\n        /* \"#utility.yul\":6258:6276   */\n      dup1\n        /* \"#utility.yul\":6248:6329   */\n      tag_168\n      jumpi\n        /* \"#utility.yul\":6314:6318   */\n      0x7f\n        /* \"#utility.yul\":6306:6312   */\n      dup3\n        /* \"#utility.yul\":6302:6319   */\n      and\n        /* \"#utility.yul\":6292:6319   */\n      swap2\n      pop\n        /* \"#utility.yul\":6248:6329   */\n    tag_168:\n        /* \"#utility.yul\":6376:6378   */\n      0x20\n        /* \"#utility.yul\":6368:6374   */\n      dup3\n        /* \"#utility.yul\":6365:6379   */\n      lt\n        /* \"#utility.yul\":6345:6363   */\n      dup2\n        /* \"#utility.yul\":6342:6380   */\n      sub\n        /* \"#utility.yul\":6339:6423   */\n      tag_169\n      jumpi\n        /* \"#utility.yul\":6395:6413   */\n      tag_170\n      tag_76\n      jump\t// in\n    tag_170:\n        /* \"#utility.yul\":6339:6423   */\n    tag_169:\n        /* \"#utility.yul\":6160:6429   */\n      pop\n        /* \"#utility.yul\":6109:6429   */\n      swap2\n      swap1\n      pop\n      jump\t// out\n        /* \"#utility.yul\":6435:6576   */\n    tag_78:\n        /* \"#utility.yul\":6484:6488   */\n      0x00\n        /* \"#utility.yul\":6507:6510   */\n      dup2\n        /* \"#utility.yul\":6499:6510   */\n      swap1\n      pop\n        /* \"#utility.yul\":6530:6533   */\n      dup2\n        /* \"#utility.yul\":6527:6528   */\n      0x00\n        /* \"#utility.yul\":6520:6534   */\n      mstore\n        /* \"#utility.yul\":6564:6568   */\n      0x20\n        /* \"#utility.yul\":6561:6562   */\n      0x00\n        /* \"#utility.yul\":6551:6569   */\n      keccak256\n        /* \"#utility.yul\":6543:6569   */\n      swap1\n      pop\n        /* \"#utility.yul\":6435:6576   */\n      swap2\n      swap1\n      pop\n      jump\t// out\n        /* \"#utility.yul\":6582:6675   */\n    tag_79:\n        /* \"#utility.yul\":6619:6625   */\n      0x00\n        /* \"#utility.yul\":6666:6668   */\n      0x20\n        /* \"#utility.yul\":6661:6663   */\n      0x1f\n        /* \"#utility.yul\":6654:6659   */\n      dup4\n        /* \"#utility.yul\":6650:6664   */\n      add\n        /* \"#utility.yul\":6646:6669   */\n      div\n        /* \"#utility.yul\":6636:6669   */\n      swap1\n      pop\n        /* \"#utility.yul\":6582:6675   */\n      swap2\n      swap1\n      pop\n      jump\t// out\n        /* \"#utility.yul\":6681:6788   */\n    tag_80:\n        /* \"#utility.yul\":6725:6733   */\n      0x00\n        /* \"#utility.yul\":6775:6780   */\n      dup3\n        /* \"#utility.yul\":6769:6773   */\n      dup3\n        /* \"#utility.yul\":6765:6781   */\n      shl\n        /* \"#utility.yul\":6744:6781   */\n      swap1\n      pop\n        /* \"#utility.yul\":6681:6788   */\n      swap3\n      swap2\n      pop\n      pop\n      jump\t// out\n        /* \"#utility.yul\":6794:7187   */\n    tag_81:\n        /* \"#utility.yul\":6863:6869   */\n      0x00\n        /* \"#utility.yul\":6913:6914   */\n      0x08\n        /* \"#utility.yul\":6901:6911   */\n      dup4\n        /* \"#utility.yul\":6897:6915   */\n      mul\n        /* \"#utility.yul\":6936:7033   */\n      tag_175\n        /* \"#utility.yul\":6966:7032   */\n      0xffffffffffffffffffffffffffffffffffffffffffffffffffffffffffffffff\n        /* \"#utility.yul\":6955:6964   */\n      dup3\n        /* \"#utility.yul\":6936:7033   */\n      tag_80\n      jump\t// in\n    tag_175:\n        /* \"#utility.yul\":7054:7093   */\n      tag_176\n        /* \"#utility.yul\":7084:7092   */\n      dup7\n        /* \"#utility.yul\":7073:7082   */\n      dup4\n        /* \"#utility.yul\":7054:7093   */\n      tag_80\n      jump\t// in\n    tag_176:\n        /* \"#utility.yul\":7042:7093   */\n      swap6\n      pop\n        /* \"#utility.yul\":7126:7130   */\n      dup1\n        /* \"#utility.yul\":7122:7131   */\n      not\n        /* \"#utility.yul\":7115:7120   */\n      dup5\n        /* \"#utility.yul\":7111:7132   */\n      and\n        /* \"#utility.yul\":7102:7132   */\n      swap4\n      pop\n        /* \"#utility.yul\":7175:7179   */\n      dup1\n        /* \"#utility.yul\":7165:7173   */\n      dup7\n        /* \"#utility.yul\":7161:7180   */\n      and\n        /* \"#utility.yul\":7154:7159   */\n      dup5\n        /* \"#utility.yul\":7151:7181   */\n      or\n        /* \"#utility.yul\":7141:7181   */\n      swap3\n      pop\n        /* \"#utility.yul\":6870:7187   */\n      pop\n      pop\n        /* \"#utility.yul\":6794:7187   */\n      swap4\n      swap3\n      pop\n      pop\n      pop\n      jump\t// out\n        /* \"#utility.yul\":7193:7270   */\n    tag_82:\n        /* \"#utility.yul\":7230:7237   */\n      0x00\n        /* \"#utility.yul\":7259:7264   */\n      dup2\n        /* \"#utility.yul\":7248:7264   */\n      swap1\n      pop\n        /* \"#utility.yul\":7193:7270   */\n      swap2\n      swap1\n      pop\n      jump\t// out\n        /* \"#utility.yul\":7276:7336   */\n    tag_83:\n        /* \"#utility.yul\":7304:7307   */\n      0x00\n        /* \"#utility.yul\":7325:7330   */\n      dup2\n        /* \"#utility.yul\":7318:7330   */\n      swap1\n      pop\n        /* \"#utility.yul\":7276:7336   */\n      swap2\n      swap1\n      pop\n      jump\t// out\n        /* \"#utility.yul\":7342:7484   */\n    tag_84:\n        /* \"#utility.yul\":7392:7401   */\n      0x00\n        /* \"#utility.yul\":7425:7478   */\n      tag_180\n        /* \"#utility.yul\":7443:7477   */\n      tag_181\n        /* \"#utility.yul\":7452:7476   */\n      tag_182\n        /* \"#utility.yul\":7470:7475   */\n      dup5\n        /* \"#utility.yul\":7452:7476   */\n      tag_82\n      jump\t// in\n    tag_182:\n        /* \"#utility.yul\":7443:7477   */\n      tag_83\n      jump\t// in\n    tag_181:\n        /* \"#utility.yul\":7425:7478   */\n      tag_82\n      jump\t// in\n    tag_180:\n        /* \"#utility.yul\":7412:7478   */\n      swap1\n      pop\n        /* \"#utility.yul\":7342:7484   */\n      swap2\n      swap1\n      pop\n      jump\t// out\n        /* \"#utility.yul\":7490:7565   */\n    tag_85:\n        /* \"#utility.yul\":7533:7536   */\n      0x00\n        /* \"#utility.yul\":7554:7559   */\n      dup2\n        /* \"#utility.yul\":7547:7559   */\n      swap1\n      pop\n        /* \"#utility.yul\":7490:7565   */\n      swap2\n      swap1\n      pop\n      jump\t// out\n        /* \"#utility.yul\":7571:7840   */\n    tag_86:\n        /* \"#utility.yul\":7681:7720   */\n      tag_185\n        /* \"#utility.yul\":7712:7719   */\n      dup4\n        /* \"#utility.yul\":7681:7720   */\n      tag_84\n      jump\t// in\n    tag_185:\n        /* \"#utility.yul\":7742:7833   */\n      tag_186\n        /* \"#utility.yul\":7791:7832   */\n      tag_187\n        /* \"#utility.yul\":7815:7831   */\n      dup3\n        /* \"#utility.yul\":7791:7832   */\n      tag_85\n      jump\t// in\n    tag_187:\n        /* \"#utility.yul\":7783:7789   */\n      dup5\n        /* \"#utility.yul\":7776:7780   */\n      dup5\n        /* \"#utility.yul\":7770:7781   */\n      sload\n        /* \"#utility.yul\":7742:7833   */\n      tag_81\n      jump\t// in\n    tag_186:\n        /* \"#utility.yul\":7736:7740   */\n      dup3\n        /* \"#utility.yul\":7729:7834   */\n      sstore\n        /* \"#utility.yul\":7647:7840   */\n      pop\n        /* \"#utility.yul\":7571:7840   */\n      pop\n      pop\n      pop\n      jump\t// out\n        /* \"#utility.yul\":7846:7919   */\n    tag_87:\n        /* \"#utility.yul\":7891:7894   */\n      0x00\n        /* \"#utility.yul\":7846:7919   */\n      swap1\n      jump\t// out\n        /* \"#utility.yul\":7925:8114   */\n    tag_88:\n        /* \"#utility.yul\":8002:8034   */\n      tag_190\n      tag_87\n      jump\t// in\n    tag_190:\n        /* \"#utility.yul\":8043:8108   */\n      tag_191\n        /* \"#utility.yul\":8101:8107   */\n      dup2\n        /* \"#utility.yul\":8093:8099   */\n      dup5\n        /* \"#utility.yul\":8087:8091   */\n      dup5\n        /* \"#utility.yul\":8043:8108   */\n      tag_86\n      jump\t// in\n    tag_191:\n        /* \"#utility.yul\":7978:8114   */\n      pop\n        /* \"#utility.yul\":7925:8114   */\n      pop\n      pop\n      jump\t// out\n        /* \"#utility.yul\":8120:8306   */\n    tag_89:\n        /* \"#utility.yul\":8180:8300   */\n    tag_193:\n        /* \"#utility.yul\":8197:8200   */\n      dup2\n        /* \"#utility.yul\":8190:8195   */\n      dup2\n        /* \"#utility.yul\":8187:8201   */\n      lt\n        /* \"#utility.yul\":8180:8300   */\n      iszero\n      tag_195\n      jumpi\n        /* \"#utility.yul\":8251:8290   */\n      tag_196\n        /* \"#utility.yul\":8288:8289   */\n      0x00\n        /* \"#utility.yul\":8281:8286   */\n      dup3\n        /* \"#utility.yul\":8251:8290   */\n      tag_88\n      jump\t// in\n    tag_196:\n        /* \"#utility.yul\":8224:8225   */\n      0x01\n        /* \"#utility.yul\":8217:8222   */\n      dup2\n        /* \"#utility.yul\":8213:8226   */\n      add\n        /* \"#utility.yul\":8204:8226   */\n      swap1\n      pop\n        /* \"#utility.yul\":8180:8300   */\n      jump(tag_193)\n    tag_195:\n        /* \"#utility.yul\":8120:8306   */\n      pop\n      pop\n      jump\t// out\n        /* \"#utility.yul\":8312:8855   */\n    tag_90:\n        /* \"#utility.yul\":8413:8415   */\n      0x1f\n        /* \"#utility.yul\":8408:8411   */\n      dup3\n        /* \"#utility.yul\":8405:8416   */\n      gt\n        /* \"#utility.yul\":8402:8848   */\n      iszero\n      tag_198\n      jumpi\n        /* \"#utility.yul\":8447:8485   */\n      tag_199\n        /* \"#utility.yul\":8479:8484   */\n      dup2\n        /* \"#utility.yul\":8447:8485   */\n      tag_78\n      jump\t// in\n    tag_199:\n        /* \"#utility.yul\":8531:8560   */\n      tag_200\n        /* \"#utility.yul\":8549:8559   */\n      dup5\n        /* \"#utility.yul\":8531:8560   */\n      tag_79\n      jump\t// in\n    tag_200:\n        /* \"#utility.yul\":8521:8529   */\n      dup2\n        /* \"#utility.yul\":8517:8561   */\n      add\n        /* \"#utility.yul\":8714:8716   */\n      0x20\n        /* \"#utility.yul\":8702:8712   */\n      dup6\n        /* \"#utility.yul\":8699:8717   */\n      lt\n        /* \"#utility.yul\":8696:8745   */\n      iszero\n      tag_201\n      jumpi\n        /* \"#utility.yul\":8735:8743   */\n      dup2\n        /* \"#utility.yul\":8720:8743   */\n      swap1\n      pop\n        /* \"#utility.yul\":8696:8745   */\n    tag_201:\n        /* \"#utility.yul\":8758:8838   */\n      tag_202\n        /* \"#utility.yul\":8814:8836   */\n      tag_203\n        /* \"#utility.yul\":8832:8835   */\n      dup6\n        /* \"#utility.yul\":8814:8836   */\n      tag_79\n      jump\t// in\n    tag_203:\n        /* \"#utility.yul\":8804:8812   */\n      dup4\n        /* \"#utility.yul\":8800:8837   */\n      add\n        /* \"#utility.yul\":8787:8798   */\n      dup3\n        /* \"#utility.yul\":8758:8838   */\n      tag_89\n      jump\t// in\n    tag_202:\n        /* \"#utility.yul\":8417:8848   */\n      pop\n      pop\n        /* \"#utility.yul\":8402:8848   */\n    tag_198:\n        /* \"#utility.yul\":8312:8855   */\n      pop\n      pop\n      pop\n      jump\t// out\n        /* \"#utility.yul\":8861:8978   */\n    tag_91:\n        /* \"#utility.yul\":8915:8923   */\n      0x00\n        /* \"#utility.yul\":8965:8970   */\n      dup3\n        /* \"#utility.yul\":8959:8963   */\n      dup3\n        /* \"#utility.yul\":8955:8971   */\n      shr\n        /* \"#utility.yul\":8934:8971   */\n      swap1\n      pop\n        /* \"#utility.yul\":8861:8978   */\n      swap3\n      swap2\n      pop\n      pop\n      jump\t// out\n        /* \"#utility.yul\":8984:9153   */\n    tag_92:\n        /* \"#utility.yul\":9028:9034   */\n      0x00\n        /* \"#utility.yul\":9061:9112   */\n      tag_206\n        /* \"#utility.yul\":9109:9110   */\n      0x00\n        /* \"#utility.yul\":9105:9111   */\n      not\n        /* \"#utility.yul\":9097:9102   */\n      dup5\n        /* \"#utility.yul\":9094:9095   */\n      0x08\n        /* \"#utility.yul\":9090:9103   */\n      mul\n        /* \"#utility.yul\":9061:9112   */\n      tag_91\n      jump\t// in\n    tag_206:\n        /* \"#utility.yul\":9057:9113   */\n      not\n        /* \"#utility.yul\":9142:9146   */\n      dup1\n        /* \"#utility.yul\":9136:9140   */\n      dup4\n        /* \"#utility.yul\":9132:9147   */\n      and\n        /* \"#utility.yul\":9122:9147   */\n      swap2\n      pop\n        /* \"#utility.yul\":9035:9153   */\n      pop\n        /* \"#utility.yul\":8984:9153   */\n      swap3\n      swap2\n      pop\n      pop\n      jump\t// out\n        /* \"#utility.yul\":9158:9453   */\n    tag_93:\n        /* \"#utility.yul\":9234:9238   */\n      0x00\n        /* \"#utility.yul\":9380:9409   */\n      tag_208\n        /* \"#utility.yul\":9405:9408   */\n      dup4\n        /* \"#utility.yul\":9399:9403   */\n      dup4\n        /* \"#utility.yul\":9380:9409   */\n      tag_92\n      jump\t// in\n    tag_208:\n        /* \"#utility.yul\":9372:9409   */\n      swap2\n      pop\n        /* \"#utility.yul\":9442:9445   */\n      dup3\n        /* \"#utility.yul\":9439:9440   */\n      0x02\n        /* \"#utility.yul\":9435:9446   */\n      mul\n        /* \"#utility.yul\":9429:9433   */\n      dup3\n        /* \"#utility.yul\":9426:9447   */\n      or\n        /* \"#utility.yul\":9418:9447   */\n      swap1\n      pop\n        /* \"#utility.yul\":9158:9453   */\n      swap3\n      swap2\n      pop\n      pop\n      jump\t// out\n        /* \"#utility.yul\":9458:10853   */\n    tag_33:\n        /* \"#utility.yul\":9575:9612   */\n      tag_210\n        /* \"#utility.yul\":9608:9611   */\n      dup3\n        /* \"#utility.yul\":9575:9612   */\n      tag_75\n      jump\t// in\n    tag_210:\n        /* \"#utility.yul\":9677:9695   */\n      0xffffffffffffffff\n        /* \"#utility.yul\":9669:9675   */\n      dup2\n        /* \"#utility.yul\":9666:9696   */\n      gt\n        /* \"#utility.yul\":9663:9719   */\n      iszero\n      tag_211\n      jumpi\n        /* \"#utility.yul\":9699:9717   */\n      tag_212\n      tag_59\n      jump\t// in\n    tag_212:\n        /* \"#utility.yul\":9663:9719   */\n    tag_211:\n        /* \"#utility.yul\":9743:9781   */\n      tag_213\n        /* \"#utility.yul\":9775:9779   */\n      dup3\n        /* \"#utility.yul\":9769:9780   */\n      sload\n        /* \"#utility.yul\":9743:9781   */\n      tag_77\n      jump\t// in\n    tag_213:\n        /* \"#utility.yul\":9828:9895   */\n      tag_214\n        /* \"#utility.yul\":9888:9894   */\n      dup3\n        /* \"#utility.yul\":9880:9886   */\n      dup3\n        /* \"#utility.yul\":9874:9878   */\n      dup6\n        /* \"#utility.yul\":9828:9895   */\n      tag_90\n      jump\t// in\n    tag_214:\n        /* \"#utility.yul\":9922:9923   */\n      0x00\n        /* \"#utility.yul\":9946:9950   */\n      0x20\n        /* \"#utility.yul\":9933:9950   */\n      swap1\n      pop\n        /* \"#utility.yul\":9978:9980   */\n      0x1f\n        /* \"#utility.yul\":9970:9976   */\n      dup4\n        /* \"#utility.yul\":9967:9981   */\n      gt\n        /* \"#utility.yul\":9995:9996   */\n      0x01\n        /* \"#utility.yul\":9990:10608   */\n      dup2\n      eq\n      tag_216\n      jumpi\n        /* \"#utility.yul\":10652:10653   */\n      0x00\n        /* \"#utility.yul\":10669:10675   */\n      dup5\n        /* \"#utility.yul\":10666:10743   */\n      iszero\n      tag_217\n      jumpi\n        /* \"#utility.yul\":10718:10727   */\n      dup3\n        /* \"#utility.yul\":10713:10716   */\n      dup8\n        /* \"#utility.yul\":10709:10728   */\n      add\n        /* \"#utility.yul\":10703:10729   */\n      mload\n        /* \"#utility.yul\":10694:10729   */\n      swap1\n      pop\n        /* \"#utility.yul\":10666:10743   */\n    tag_217:\n        /* \"#utility.yul\":10769:10836   */\n      tag_218\n        /* \"#utility.yul\":10829:10835   */\n      dup6\n        /* \"#utility.yul\":10822:10827   */\n      dup3\n        /* \"#utility.yul\":10769:10836   */\n      tag_93\n      jump\t// in\n    tag_218:\n        /* \"#utility.yul\":10763:10767   */\n      dup7\n        /* \"#utility.yul\":10756:10837   */\n      sstore\n        /* \"#utility.yul\":10625:10847   */\n      pop\n        /* \"#utility.yul\":9960:10847   */\n      jump(tag_215)\n        /* \"#utility.yul\":9990:10608   */\n    tag_216:\n        /* \"#utility.yul\":10042:10046   */\n      0x1f\n        /* \"#utility.yul\":10038:10047   */\n      not\n        /* \"#utility.yul\":10030:10036   */\n      dup5\n        /* \"#utility.yul\":10026:10048   */\n      and\n        /* \"#utility.yul\":10076:10113   */\n      tag_219\n        /* \"#utility.yul\":10108:10112   */\n      dup7\n        /* \"#utility.yul\":10076:10113   */\n      tag_78\n      jump\t// in\n    tag_219:\n        /* \"#utility.yul\":10135:10136   */\n      0x00\n        /* \"#utility.yul\":10149:10357   */\n    tag_220:\n        /* \"#utility.yul\":10163:10170   */\n      dup3\n        /* \"#utility.yul\":10160:10161   */\n      dup2\n        /* \"#utility.yul\":10157:10171   */\n      lt\n        /* \"#utility.yul\":10149:10357   */\n      iszero\n      tag_222\n      jumpi\n        /* \"#utility.yul\":10242:10251   */\n      dup5\n        /* \"#utility.yul\":10237:10240   */\n      dup10\n        /* \"#utility.yul\":10233:10252   */\n      add\n        /* \"#utility.yul\":10227:10253   */\n      mload\n        /* \"#utility.yul\":10219:10225   */\n      dup3\n        /* \"#utility.yul\":10212:10254   */\n      sstore\n        /* \"#utility.yul\":10293:10294   */\n      0x01\n        /* \"#utility.yul\":10285:10291   */\n      dup3\n        /* \"#utility.yul\":10281:10295   */\n      add\n        /* \"#utility.yul\":10271:10295   */\n      swap2\n      pop\n        /* \"#utility.yul\":10340:10342   */\n      0x20\n        /* \"#utility.yul\":10329:10338   */\n      dup6\n        /* \"#utility.yul\":10325:10343   */\n      add\n        /* \"#utility.yul\":10312:10343   */\n      swap5\n      pop\n        /* \"#utility.yul\":10186:10190   */\n      0x20\n        /* \"#utility.yul\":10183:10184   */\n      dup2\n        /* \"#utility.yul\":10179:10191   */\n      add\n        /* \"#utility.yul\":10174:10191   */\n      swap1\n      pop\n        /* \"#utility.yul\":10149:10357   */\n      jump(tag_220)\n    tag_222:\n        /* \"#utility.yul\":10385:10391   */\n      dup7\n        /* \"#utility.yul\":10376:10383   */\n      dup4\n        /* \"#utility.yul\":10373:10392   */\n      lt\n        /* \"#utility.yul\":10370:10549   */\n      iszero\n      tag_223\n      jumpi\n        /* \"#utility.yul\":10443:10452   */\n      dup5\n        /* \"#utility.yul\":10438:10441   */\n      dup10\n        /* \"#utility.yul\":10434:10453   */\n      add\n        /* \"#utility.yul\":10428:10454   */\n      mload\n        /* \"#utility.yul\":10486:10534   */\n      tag_224\n        /* \"#utility.yul\":10528:10532   */\n      0x1f\n        /* \"#utility.yul\":10520:10526   */\n      dup10\n        /* \"#utility.yul\":10516:10533   */\n      and\n        /* \"#utility.yul\":10505:10514   */\n      dup3\n        /* \"#utility.yul\":10486:10534   */\n      tag_92\n      jump\t// in\n    tag_224:\n        /* \"#utility.yul\":10478:10484   */\n      dup4\n        /* \"#utility.yul\":10471:10535   */\n      sstore\n        /* \"#utility.yul\":10393:10549   */\n      pop\n        /* \"#utility.yul\":10370:10549   */\n    tag_223:\n        /* \"#utility.yul\":10595:10596   */\n      0x01\n        /* \"#utility.yul\":10591:10592   */\n      0x02\n        /* \"#utility.yul\":10583:10589   */\n      dup9\n        /* \"#utility.yul\":10579:10593   */\n      mul\n        /* \"#utility.yul\":10575:10597   */\n      add\n        /* \"#utility.yul\":10569:10573   */\n      dup9\n        /* \"#utility.yul\":10562:10598   */\n      sstore\n        /* \"#utility.yul\":9997:10608   */\n      pop\n      pop\n      pop\n        /* \"#utility.yul\":9960:10847   */\n    tag_215:\n      pop\n        /* \"#utility.yul\":9550:10853   */\n      pop\n      pop\n      pop\n        /* \"#utility.yul\":9458:10853   */\n      pop\n      pop\n      jump\t// out\n        /* \"#utility.yul\":10859:11007   */\n    tag_94:\n        /* \"#utility.yul\":10961:10972   */\n      0x00\n        /* \"#utility.yul\":10998:11001   */\n      dup2\n        /* \"#utility.yul\":10983:11001   */\n      swap1\n      pop\n        /* \"#utility.yul\":10859:11007   */\n      swap3\n      swap2\n      pop\n      pop\n      jump\t// out\n        /* \"#utility.yul\":11013:11152   */\n    tag_95:\n        /* \"#utility.yul\":11102:11108   */\n      dup3\n        /* \"#utility.yul\":11097:11100   */\n      dup2\n        /* \"#utility.yul\":11092:11095   */\n      dup4\n        /* \"#utility.yul\":11086:11109   */\n      mcopy\n        /* \"#utility.yul\":11143:11144   */\n      0x00\n        /* \"#utility.yul\":11134:11140   */\n      dup4\n        /* \"#utility.yul\":11129:11132   */\n      dup4\n        /* \"#utility.yul\":11125:11141   */\n      add\n        /* \"#utility.yul\":11118:11145   */\n      mstore\n        /* \"#utility.yul\":11013:11152   */\n      pop\n      pop\n      pop\n      jump\t// out\n        /* \"#utility.yul\":11158:11548   */\n    tag_96:\n        /* \"#utility.yul\":11264:11267   */\n      0x00\n        /* \"#utility.yul\":11292:11331   */\n      tag_228\n        /* \"#utility.yul\":11325:11330   */\n      dup3\n        /* \"#utility.yul\":11292:11331   */\n      tag_75\n      jump\t// in\n    tag_228:\n        /* \"#utility.yul\":11347:11436   */\n      tag_229\n        /* \"#utility.yul\":11429:11435   */\n      dup2\n        /* \"#utility.yul\":11424:11427   */\n      dup6\n        /* \"#utility.yul\":11347:11436   */\n      tag_94\n      jump\t// in\n    tag_229:\n        /* \"#utility.yul\":11340:11436   */\n      swap4\n      pop\n        /* \"#utility.yul\":11445:11510   */\n      tag_230\n        /* \"#utility.yul\":11503:11509   */\n      dup2\n        /* \"#utility.yul\":11498:11501   */\n      dup6\n        /* \"#utility.yul\":11491:11495   */\n      0x20\n        /* \"#utility.yul\":11484:11489   */\n      dup7\n        /* \"#utility.yul\":11480:11496   */\n      add\n        /* \"#utility.yul\":11445:11510   */\n      tag_95\n      jump\t// in\n    tag_230:\n        /* \"#utility.yul\":11535:11541   */\n      dup1\n        /* \"#utility.yul\":11530:11533   */\n      dup5\n        /* \"#utility.yul\":11526:11542   */\n      add\n        /* \"#utility.yul\":11519:11542   */\n      swap2\n      pop\n        /* \"#utility.yul\":11268:11548   */\n      pop\n        /* \"#utility.yul\":11158:11548   */\n      swap3\n      swap2\n      pop\n      pop\n      jump\t// out\n        /* \"#utility.yul\":11554:11829   */\n    tag_35:\n        /* \"#utility.yul\":11686:11689   */\n      0x00\n        /* \"#utility.yul\":11708:11803   */\n      tag_232\n        /* \"#utility.yul\":11799:11802   */\n      dup3\n        /* \"#utility.yul\":11790:11796   */\n      dup5\n        /* \"#utility.yul\":11708:11803   */\n      tag_96\n      jump\t// in\n    tag_232:\n        /* \"#utility.yul\":11701:11803   */\n      swap2\n      pop\n        /* \"#utility.yul\":11820:11823   */\n      dup2\n        /* \"#utility.yul\":11813:11823   */\n      swap1\n      pop\n        /* \"#utility.yul\":11554:11829   */\n      swap3\n      swap2\n      pop\n      pop\n      jump\t// out\n        /* \"#utility.yul\":11835:12007   */\n    tag_97:\n        /* \"#utility.yul\":11975:11999   */\n      0x55736572206973206e6f74207265676973746572656400000000000000000000\n        /* \"#utility.yul\":11971:11972   */\n      0x00\n        /* \"#utility.yul\":11963:11969   */\n      dup3\n        /* \"#utility.yul\":11959:11973   */\n      add\n        /* \"#utility.yul\":11952:12000   */\n      mstore\n        /* \"#utility.yul\":11835:12007   */\n      pop\n      jump\t// out\n        /* \"#utility.yul\":12013:12379   */\n    tag_98:\n        /* \"#utility.yul\":12155:12158   */\n      0x00\n        /* \"#utility.yul\":12176:12243   */\n      tag_235\n        /* \"#utility.yul\":12240:12242   */\n      0x16\n        /* \"#utility.yul\":12235:12238   */\n      dup4\n        /* \"#utility.yul\":12176:12243   */\n      tag_72\n      jump\t// in\n    tag_235:\n        /* \"#utility.yul\":12169:12243   */\n      swap2\n      pop\n        /* \"#utility.yul\":12252:12345   */\n      tag_236\n        /* \"#utility.yul\":12341:12344   */\n      dup3\n        /* \"#utility.yul\":12252:12345   */\n      tag_97\n      jump\t// in\n    tag_236:\n        /* \"#utility.yul\":12370:12372   */\n      0x20\n        /* \"#utility.yul\":12365:12368   */\n      dup3\n        /* \"#utility.yul\":12361:12373   */\n      add\n        /* \"#utility.yul\":12354:12373   */\n      swap1\n      pop\n        /* \"#utility.yul\":12013:12379   */\n      swap2\n      swap1\n      pop\n      jump\t// out\n        /* \"#utility.yul\":12385:12804   */\n    tag_39:\n        /* \"#utility.yul\":12551:12555   */\n      0x00\n        /* \"#utility.yul\":12589:12591   */\n      0x20\n        /* \"#utility.yul\":12578:12587   */\n      dup3\n        /* \"#utility.yul\":12574:12592   */\n      add\n        /* \"#utility.yul\":12566:12592   */\n      swap1\n      pop\n        /* \"#utility.yul\":12638:12647   */\n      dup2\n        /* \"#utility.yul\":12632:12636   */\n      dup2\n        /* \"#utility.yul\":12628:12648   */\n      sub\n        /* \"#utility.yul\":12624:12625   */\n      0x00\n        /* \"#utility.yul\":12613:12622   */\n      dup4\n        /* \"#utility.yul\":12609:12626   */\n      add\n        /* \"#utility.yul\":12602:12649   */\n      mstore\n        /* \"#utility.yul\":12666:12797   */\n      tag_238\n        /* \"#utility.yul\":12792:12796   */\n      dup2\n        /* \"#utility.yul\":12666:12797   */\n      tag_98\n      jump\t// in\n    tag_238:\n        /* \"#utility.yul\":12658:12797   */\n      swap1\n      pop\n        /* \"#utility.yul\":12385:12804   */\n      swap2\n      swap1\n      pop\n      jump\t// out\n        /* \"#utility.yul\":12810:12987   */\n    tag_99:\n        /* \"#utility.yul\":12950:12979   */\n      0x5573657220697320616c72656164792064656163746976617465640000000000\n        /* \"#utility.yul\":12946:12947   */\n      0x00\n        /* \"#utility.yul\":12938:12944   */\n      dup3\n        /* \"#utility.yul\":12934:12948   */\n      add\n        /* \"#utility.yul\":12927:12980   */\n      mstore\n        /* \"#utility.yul\":12810:12987   */\n      pop\n      jump\t// out\n        /* \"#utility.yul\":12993:13359   */\n    tag_100:\n        /* \"#utility.yul\":13135:13138   */\n      0x00\n        /* \"#utility.yul\":13156:13223   */\n      tag_241\n        /* \"#utility.yul\":13220:13222   */\n      0x1b\n        /* \"#utility.yul\":13215:13218   */\n      dup4\n        /* \"#utility.yul\":13156:13223   */\n      tag_72\n      jump\t// in\n    tag_241:\n        /* \"#utility.yul\":13149:13223   */\n      swap2\n      pop\n        /* \"#utility.yul\":13232:13325   */\n      tag_242\n        /* \"#utility.yul\":13321:13324   */\n      dup3\n        /* \"#utility.yul\":13232:13325   */\n      tag_99\n      jump\t// in\n    tag_242:\n        /* \"#utility.yul\":13350:13352   */\n      0x20\n        /* \"#utility.yul\":13345:13348   */\n      dup3\n        /* \"#utility.yul\":13341:13353   */\n      add\n        /* \"#utility.yul\":13334:13353   */\n      swap1\n      pop\n        /* \"#utility.yul\":12993:13359   */\n      swap2\n      swap1\n      pop\n      jump\t// out\n        /* \"#utility.yul\":13365:13784   */\n    tag_42:\n        /* \"#utility.yul\":13531:13535   */\n      0x00\n        /* \"#utility.yul\":13569:13571   */\n      0x20\n        /* \"#utility.yul\":13558:13567   */\n      dup3\n        /* \"#utility.yul\":13554:13572   */\n      add\n        /* \"#utility.yul\":13546:13572   */\n      swap1\n      pop\n        /* \"#utility.yul\":13618:13627   */\n      dup2\n        /* \"#utility.yul\":13612:13616   */\n      dup2\n        /* \"#utility.yul\":13608:13628   */\n      sub\n        /* \"#utility.yul\":13604:13605   */\n      0x00\n        /* \"#utility.yul\":13593:13602   */\n      dup4\n        /* \"#utility.yul\":13589:13606   */\n      add\n        /* \"#utility.yul\":13582:13629   */\n      mstore\n        /* \"#utility.yul\":13646:13777   */\n      tag_244\n        /* \"#utility.yul\":13772:13776   */\n      dup2\n        /* \"#utility.yul\":13646:13777   */\n      tag_100\n      jump\t// in\n    tag_244:\n        /* \"#utility.yul\":13638:13777   */\n      swap1\n      pop\n        /* \"#utility.yul\":13365:13784   */\n      swap2\n      swap1\n      pop\n      jump\t// out\n        /* \"#utility.yul\":13814:14688   */\n    tag_101:\n        /* \"#utility.yul\":13917:13920   */\n      0x00\n        /* \"#utility.yul\":13954:13959   */\n      dup2\n        /* \"#utility.yul\":13948:13960   */\n      sload\n        /* \"#utility.yul\":13983:14019   */\n      tag_246\n        /* \"#utility.yul\":14009:14018   */\n      dup2\n        /* \"#utility.yul\":13983:14019   */\n      tag_77\n      jump\t// in\n    tag_246:\n        /* \"#utility.yul\":14035:14124   */\n      tag_247\n        /* \"#utility.yul\":14117:14123   */\n      dup2\n        /* \"#utility.yul\":14112:14115   */\n      dup7\n        /* \"#utility.yul\":14035:14124   */\n      tag_94\n      jump\t// in\n    tag_247:\n        /* \"#utility.yul\":14028:14124   */\n      swap5\n      pop\n        /* \"#utility.yul\":14155:14156   */\n      0x01\n        /* \"#utility.yul\":14144:14153   */\n      dup3\n        /* \"#utility.yul\":14140:14157   */\n      and\n        /* \"#utility.yul\":14171:14172   */\n      0x00\n        /* \"#utility.yul\":14166:14332   */\n      dup2\n      eq\n      tag_249\n      jumpi\n        /* \"#utility.yul\":14346:14347   */\n      0x01\n        /* \"#utility.yul\":14341:14682   */\n      dup2\n      eq\n      tag_250\n      jumpi\n        /* \"#utility.yul\":14133:14682   */\n      jump(tag_248)\n        /* \"#utility.yul\":14166:14332   */\n    tag_249:\n        /* \"#utility.yul\":14250:14254   */\n      0xff\n        /* \"#utility.yul\":14246:14255   */\n      not\n        /* \"#utility.yul\":14235:14244   */\n      dup4\n        /* \"#utility.yul\":14231:14256   */\n      and\n        /* \"#utility.yul\":14226:14229   */\n      dup7\n        /* \"#utility.yul\":14219:14257   */\n      mstore\n        /* \"#utility.yul\":14312:14318   */\n      dup2\n        /* \"#utility.yul\":14305:14319   */\n      iszero\n        /* \"#utility.yul\":14298:14320   */\n      iszero\n        /* \"#utility.yul\":14290:14296   */\n      dup3\n        /* \"#utility.yul\":14286:14321   */\n      mul\n        /* \"#utility.yul\":14281:14284   */\n      dup7\n        /* \"#utility.yul\":14277:14322   */\n      add\n        /* \"#utility.yul\":14270:14322   */\n      swap4\n      pop\n        /* \"#utility.yul\":14166:14332   */\n      jump(tag_248)\n        /* \"#utility.yul\":14341:14682   */\n    tag_250:\n        /* \"#utility.yul\":14408:14446   */\n      tag_251\n        /* \"#utility.yul\":14440:14445   */\n      dup6\n        /* \"#utility.yul\":14408:14446   */\n      tag_78\n      jump\t// in\n    tag_251:\n        /* \"#utility.yul\":14468:14469   */\n      0x00\n        /* \"#utility.yul\":14482:14636   */\n    tag_252:\n        /* \"#utility.yul\":14496:14502   */\n      dup4\n        /* \"#utility.yul\":14493:14494   */\n      dup2\n        /* \"#utility.yul\":14490:14503   */\n      lt\n        /* \"#utility.yul\":14482:14636   */\n      iszero\n      tag_254\n      jumpi\n        /* \"#utility.yul\":14570:14577   */\n      dup2\n        /* \"#utility.yul\":14564:14578   */\n      sload\n        /* \"#utility.yul\":14560:14561   */\n      dup2\n        /* \"#utility.yul\":14555:14558   */\n      dup10\n        /* \"#utility.yul\":14551:14562   */\n      add\n        /* \"#utility.yul\":14544:14579   */\n      mstore\n        /* \"#utility.yul\":14620:14621   */\n      0x01\n        /* \"#utility.yul\":14611:14618   */\n      dup3\n        /* \"#utility.yul\":14607:14622   */\n      add\n        /* \"#utility.yul\":14596:14622   */\n      swap2\n      pop\n        /* \"#utility.yul\":14518:14522   */\n      0x20\n        /* \"#utility.yul\":14515:14516   */\n      dup2\n        /* \"#utility.yul\":14511:14523   */\n      add\n        /* \"#utility.yul\":14506:14523   */\n      swap1\n      pop\n        /* \"#utility.yul\":14482:14636   */\n      jump(tag_252)\n    tag_254:\n        /* \"#utility.yul\":14665:14671   */\n      dup4\n        /* \"#utility.yul\":14660:14663   */\n      dup9\n        /* \"#utility.yul\":14656:14672   */\n      add\n        /* \"#utility.yul\":14649:14672   */\n      swap6\n      pop\n        /* \"#utility.yul\":14348:14682   */\n      pop\n      pop\n        /* \"#utility.yul\":14133:14682   */\n    tag_248:\n      pop\n        /* \"#utility.yul\":13921:14688   */\n      pop\n      pop\n        /* \"#utility.yul\":13814:14688   */\n      swap3\n      swap2\n      pop\n      pop\n      jump\t// out\n        /* \"#utility.yul\":14694:14963   */\n    tag_49:\n        /* \"#utility.yul\":14823:14826   */\n      0x00\n        /* \"#utility.yul\":14845:14937   */\n      tag_256\n        /* \"#utility.yul\":14933:14936   */\n      dup3\n        /* \"#utility.yul\":14924:14930   */\n      dup5\n        /* \"#utility.yul\":14845:14937   */\n      tag_101\n      jump\t// in\n    tag_256:\n        /* \"#utility.yul\":14838:14937   */\n      swap2\n      pop\n        /* \"#utility.yul\":14954:14957   */\n      dup2\n        /* \"#utility.yul\":14947:14957   */\n      swap1\n      pop\n        /* \"#utility.yul\":14694:14963   */\n      swap3\n      swap2\n      pop\n      pop\n      jump\t// out\n\n    auxdata: 0xa264697066735822122080d1d3a294ad3d5b950fff60a90105a1d8f3b97f221af4ca05958ea0d9d5afd464736f6c634300081a0033\n}\n",
				"bytecode": {
					"linkReferences": {},
					"object": "6080604052348015600e575f80fd5b50610e768061001c5f395ff3fe608060405234801561000f575f80fd5b5060043610610055575f3560e01c80633ffbd47f1461005957806351b42b0014610075578063544541b31461007f5780639f8a13d7146100af578063c3c5a547146100df575b5f80fd5b610073600480360381019061006e91906107fa565b61010f565b005b61007d610304565b005b610099600480360381019061009491906107fa565b610474565b6040516100a6919061088a565b60405180910390f35b6100c960048036038101906100c491906108fd565b610604565b6040516100d6919061088a565b60405180910390f35b6100f960048036038101906100f491906108fd565b610659565b604051610106919061088a565b60405180910390f35b5f803373ffffffffffffffffffffffffffffffffffffffff1673ffffffffffffffffffffffffffffffffffffffff1681526020019081526020015f206002015f9054906101000a900460ff161561019b576040517f08c379a000000000000000000000000000000000000000000000000000000000815260040161019290610982565b60405180910390fd5b815f803373ffffffffffffffffffffffffffffffffffffffff1673ffffffffffffffffffffffffffffffffffffffff1681526020019081526020015f205f0190816101e69190610bad565b50806040516020016101f89190610cc4565b604051602081830303815290604052805190602001205f803373ffffffffffffffffffffffffffffffffffffffff1673ffffffffffffffffffffffffffffffffffffffff1681526020019081526020015f206001018190555060015f803373ffffffffffffffffffffffffffffffffffffffff1673ffffffffffffffffffffffffffffffffffffffff1681526020019081526020015f206002015f6101000a81548160ff02191690831515021790555060015f803373ffffffffffffffffffffffffffffffffffffffff1673ffffffffffffffffffffffffffffffffffffffff1681526020019081526020015f2060020160016101000a81548160ff0219169083151502179055505050565b5f803373ffffffffffffffffffffffffffffffffffffffff1673ffffffffffffffffffffffffffffffffffffffff1681526020019081526020015f206002015f9054906101000a900460ff1661038f576040517f08c379a000000000000000000000000000000000000000000000000000000000815260040161038690610d24565b60405180910390fd5b5f803373ffffffffffffffffffffffffffffffffffffffff1673ffffffffffffffffffffffffffffffffffffffff1681526020019081526020015f2060020160019054906101000a900460ff1661041b576040517f08c379a000000000000000000000000000000000000000000000000000000000815260040161041290610d8c565b60405180910390fd5b5f805f3373ffffffffffffffffffffffffffffffffffffffff1673ffffffffffffffffffffffffffffffffffffffff1681526020019081526020015f2060020160016101000a81548160ff021916908315150217905550565b5f805f3373ffffffffffffffffffffffffffffffffffffffff1673ffffffffffffffffffffffffffffffffffffffff1681526020019081526020015f206002015f9054906101000a900460ff16610500576040517f08c379a00000000000000000000000000000000000000000000000000000000081526004016104f790610d24565b60405180910390fd5b5f803373ffffffffffffffffffffffffffffffffffffffff1673ffffffffffffffffffffffffffffffffffffffff1681526020019081526020015f2060010154826040516020016105519190610cc4565b604051602081830303815290604052805190602001201480156105fc57505f803373ffffffffffffffffffffffffffffffffffffffff1673ffffffffffffffffffffffffffffffffffffffff1681526020019081526020015f205f016040516020016105bd9190610e2a565b60405160208183030381529060405280519060200120836040516020016105e49190610cc4565b60405160208183030381529060405280519060200120145b905092915050565b5f805f8373ffffffffffffffffffffffffffffffffffffffff1673ffffffffffffffffffffffffffffffffffffffff1681526020019081526020015f2060020160019054906101000a900460ff169050919050565b5f805f8373ffffffffffffffffffffffffffffffffffffffff1673ffffffffffffffffffffffffffffffffffffffff1681526020019081526020015f206002015f9054906101000a900460ff169050919050565b5f604051905090565b5f80fd5b5f80fd5b5f80fd5b5f80fd5b5f601f19601f8301169050919050565b7f4e487b71000000000000000000000000000000000000000000000000000000005f52604160045260245ffd5b61070c826106c6565b810181811067ffffffffffffffff8211171561072b5761072a6106d6565b5b80604052505050565b5f61073d6106ad565b90506107498282610703565b919050565b5f67ffffffffffffffff821115610768576107676106d6565b5b610771826106c6565b9050602081019050919050565b828183375f83830152505050565b5f61079e6107998461074e565b610734565b9050828152602081018484840111156107ba576107b96106c2565b5b6107c584828561077e565b509392505050565b5f82601f8301126107e1576107e06106be565b5b81356107f184826020860161078c565b91505092915050565b5f80604083850312156108105761080f6106b6565b5b5f83013567ffffffffffffffff81111561082d5761082c6106ba565b5b610839858286016107cd565b925050602083013567ffffffffffffffff81111561085a576108596106ba565b5b610866858286016107cd565b9150509250929050565b5f8115159050919050565b61088481610870565b82525050565b5f60208201905061089d5f83018461087b565b92915050565b5f73ffffffffffffffffffffffffffffffffffffffff82169050919050565b5f6108cc826108a3565b9050919050565b6108dc816108c2565b81146108e6575f80fd5b50565b5f813590506108f7816108d3565b92915050565b5f60208284031215610912576109116106b6565b5b5f61091f848285016108e9565b91505092915050565b5f82825260208201905092915050565b7f5573657220697320616c726561647920726567697374657265640000000000005f82015250565b5f61096c601a83610928565b915061097782610938565b602082019050919050565b5f6020820190508181035f83015261099981610960565b9050919050565b5f81519050919050565b7f4e487b71000000000000000000000000000000000000000000000000000000005f52602260045260245ffd5b5f60028204905060018216806109ee57607f821691505b602082108103610a0157610a006109aa565b5b50919050565b5f819050815f5260205f209050919050565b5f6020601f8301049050919050565b5f82821b905092915050565b5f60088302610a637fffffffffffffffffffffffffffffffffffffffffffffffffffffffffffffffff82610a28565b610a6d8683610a28565b95508019841693508086168417925050509392505050565b5f819050919050565b5f819050919050565b5f610ab1610aac610aa784610a85565b610a8e565b610a85565b9050919050565b5f819050919050565b610aca83610a97565b610ade610ad682610ab8565b848454610a34565b825550505050565b5f90565b610af2610ae6565b610afd818484610ac1565b505050565b5b81811015610b2057610b155f82610aea565b600181019050610b03565b5050565b601f821115610b6557610b3681610a07565b610b3f84610a19565b81016020851015610b4e578190505b610b62610b5a85610a19565b830182610b02565b50505b505050565b5f82821c905092915050565b5f610b855f1984600802610b6a565b1980831691505092915050565b5f610b9d8383610b76565b9150826002028217905092915050565b610bb6826109a0565b67ffffffffffffffff811115610bcf57610bce6106d6565b5b610bd982546109d7565b610be4828285610b24565b5f60209050601f831160018114610c15575f8415610c03578287015190505b610c0d8582610b92565b865550610c74565b601f198416610c2386610a07565b5f5b82811015610c4a57848901518255600182019150602085019450602081019050610c25565b86831015610c675784890151610c63601f891682610b76565b8355505b6001600288020188555050505b505050505050565b5f81905092915050565b8281835e5f83830152505050565b5f610c9e826109a0565b610ca88185610c7c565b9350610cb8818560208601610c86565b80840191505092915050565b5f610ccf8284610c94565b915081905092915050565b7f55736572206973206e6f742072656769737465726564000000000000000000005f82015250565b5f610d0e601683610928565b9150610d1982610cda565b602082019050919050565b5f6020820190508181035f830152610d3b81610d02565b9050919050565b7f5573657220697320616c726561647920646561637469766174656400000000005f82015250565b5f610d76601b83610928565b9150610d8182610d42565b602082019050919050565b5f6020820190508181035f830152610da381610d6a565b9050919050565b5f8154610db6816109d7565b610dc08186610c7c565b9450600182165f8114610dda5760018114610def57610e21565b60ff1983168652811515820286019350610e21565b610df885610a07565b5f5b83811015610e1957815481890152600182019150602081019050610dfa565b838801955050505b50505092915050565b5f610e358284610daa565b91508190509291505056fea264697066735822122080d1d3a294ad3d5b950fff60a90105a1d8f3b97f221af4ca05958ea0d9d5afd464736f6c634300081a0033",
					"opcodes": "PUSH1 0x80 PUSH1 0x40 MSTORE CALLVALUE DUP1 ISZERO PUSH1 0xE JUMPI PUSH0 DUP1 REVERT JUMPDEST POP PUSH2 0xE76 DUP1 PUSH2 0x1C PUSH0 CODECOPY PUSH0 RETURN INVALID PUSH1 0x80 PUSH1 0x40 MSTORE CALLVALUE DUP1 ISZERO PUSH2 0xF JUMPI PUSH0 DUP1 REVERT JUMPDEST POP PUSH1 0x4 CALLDATASIZE LT PUSH2 0x55 JUMPI PUSH0 CALLDATALOAD PUSH1 0xE0 SHR DUP1 PUSH4 0x3FFBD47F EQ PUSH2 0x59 JUMPI DUP1 PUSH4 0x51B42B00 EQ PUSH2 0x75 JUMPI DUP1 PUSH4 0x544541B3 EQ PUSH2 0x7F JUMPI DUP1 PUSH4 0x9F8A13D7 EQ PUSH2 0xAF JUMPI DUP1 PUSH4 0xC3C5A547 EQ PUSH2 0xDF JUMPI JUMPDEST PUSH0 DUP1 REVERT JUMPDEST PUSH2 0x73 PUSH1 0x4 DUP1 CALLDATASIZE SUB DUP2 ADD SWAP1 PUSH2 0x6E SWAP2 SWAP1 PUSH2 0x7FA JUMP JUMPDEST PUSH2 0x10F JUMP JUMPDEST STOP JUMPDEST PUSH2 0x7D PUSH2 0x304 JUMP JUMPDEST STOP JUMPDEST PUSH2 0x99 PUSH1 0x4 DUP1 CALLDATASIZE SUB DUP2 ADD SWAP1 PUSH2 0x94 SWAP2 SWAP1 PUSH2 0x7FA JUMP JUMPDEST PUSH2 0x474 JUMP JUMPDEST PUSH1 0x40 MLOAD PUSH2 0xA6 SWAP2 SWAP1 PUSH2 0x88A JUMP JUMPDEST PUSH1 0x40 MLOAD DUP1 SWAP2 SUB SWAP1 RETURN JUMPDEST PUSH2 0xC9 PUSH1 0x4 DUP1 CALLDATASIZE SUB DUP2 ADD SWAP1 PUSH2 0xC4 SWAP2 SWAP1 PUSH2 0x8FD JUMP JUMPDEST PUSH2 0x604 JUMP JUMPDEST PUSH1 0x40 MLOAD PUSH2 0xD6 SWAP2 SWAP1 PUSH2 0x88A JUMP JUMPDEST PUSH1 0x40 MLOAD DUP1 SWAP2 SUB SWAP1 RETURN JUMPDEST PUSH2 0xF9 PUSH1 0x4 DUP1 CALLDATASIZE SUB DUP2 ADD SWAP1 PUSH2 0xF4 SWAP2 SWAP1 PUSH2 0x8FD JUMP JUMPDEST PUSH2 0x659 JUMP JUMPDEST PUSH1 0x40 MLOAD PUSH2 0x106 SWAP2 SWAP1 PUSH2 0x88A JUMP JUMPDEST PUSH1 0x40 MLOAD DUP1 SWAP2 SUB SWAP1 RETURN JUMPDEST PUSH0 DUP1 CALLER PUSH20 0xFFFFFFFFFFFFFFFFFFFFFFFFFFFFFFFFFFFFFFFF AND PUSH20 0xFFFFFFFFFFFFFFFFFFFFFFFFFFFFFFFFFFFFFFFF AND DUP2 MSTORE PUSH1 0x20 ADD SWAP1 DUP2 MSTORE PUSH1 0x20 ADD PUSH0 KECCAK256 PUSH1 0x2 ADD PUSH0 SWAP1 SLOAD SWAP1 PUSH2 0x100 EXP SWAP1 DIV PUSH1 0xFF AND ISZERO PUSH2 0x19B JUMPI PUSH1 0x40 MLOAD PUSH32 0x8C379A000000000000000000000000000000000000000000000000000000000 DUP2 MSTORE PUSH1 0x4 ADD PUSH2 0x192 SWAP1 PUSH2 0x982 JUMP JUMPDEST PUSH1 0x40 MLOAD DUP1 SWAP2 SUB SWAP1 REVERT JUMPDEST DUP2 PUSH0 DUP1 CALLER PUSH20 0xFFFFFFFFFFFFFFFFFFFFFFFFFFFFFFFFFFFFFFFF AND PUSH20 0xFFFFFFFFFFFFFFFFFFFFFFFFFFFFFFFFFFFFFFFF AND DUP2 MSTORE PUSH1 0x20 ADD SWAP1 DUP2 MSTORE PUSH1 0x20 ADD PUSH0 KECCAK256 PUSH0 ADD SWAP1 DUP2 PUSH2 0x1E6 SWAP2 SWAP1 PUSH2 0xBAD JUMP JUMPDEST POP DUP1 PUSH1 0x40 MLOAD PUSH1 0x20 ADD PUSH2 0x1F8 SWAP2 SWAP1 PUSH2 0xCC4 JUMP JUMPDEST PUSH1 0x40 MLOAD PUSH1 0x20 DUP2 DUP4 SUB SUB DUP2 MSTORE SWAP1 PUSH1 0x40 MSTORE DUP1 MLOAD SWAP1 PUSH1 0x20 ADD KECCAK256 PUSH0 DUP1 CALLER PUSH20 0xFFFFFFFFFFFFFFFFFFFFFFFFFFFFFFFFFFFFFFFF AND PUSH20 0xFFFFFFFFFFFFFFFFFFFFFFFFFFFFFFFFFFFFFFFF AND DUP2 MSTORE PUSH1 0x20 ADD SWAP1 DUP2 MSTORE PUSH1 0x20 ADD PUSH0 KECCAK256 PUSH1 0x1 ADD DUP2 SWAP1 SSTORE POP PUSH1 0x1 PUSH0 DUP1 CALLER PUSH20 0xFFFFFFFFFFFFFFFFFFFFFFFFFFFFFFFFFFFFFFFF AND PUSH20 0xFFFFFFFFFFFFFFFFFFFFFFFFFFFFFFFFFFFFFFFF AND DUP2 MSTORE PUSH1 0x20 ADD SWAP1 DUP2 MSTORE PUSH1 0x20 ADD PUSH0 KECCAK256 PUSH1 0x2 ADD PUSH0 PUSH2 0x100 EXP DUP2 SLOAD DUP2 PUSH1 0xFF MUL NOT AND SWAP1 DUP4 ISZERO ISZERO MUL OR SWAP1 SSTORE POP PUSH1 0x1 PUSH0 DUP1 CALLER PUSH20 0xFFFFFFFFFFFFFFFFFFFFFFFFFFFFFFFFFFFFFFFF AND PUSH20 0xFFFFFFFFFFFFFFFFFFFFFFFFFFFFFFFFFFFFFFFF AND DUP2 MSTORE PUSH1 0x20 ADD SWAP1 DUP2 MSTORE PUSH1 0x20 ADD PUSH0 KECCAK256 PUSH1 0x2 ADD PUSH1 0x1 PUSH2 0x100 EXP DUP2 SLOAD DUP2 PUSH1 0xFF MUL NOT AND SWAP1 DUP4 ISZERO ISZERO MUL OR SWAP1 SSTORE POP POP POP JUMP JUMPDEST PUSH0 DUP1 CALLER PUSH20 0xFFFFFFFFFFFFFFFFFFFFFFFFFFFFFFFFFFFFFFFF AND PUSH20 0xFFFFFFFFFFFFFFFFFFFFFFFFFFFFFFFFFFFFFFFF AND DUP2 MSTORE PUSH1 0x20 ADD SWAP1 DUP2 MSTORE PUSH1 0x20 ADD PUSH0 KECCAK256 PUSH1 0x2 ADD PUSH0 SWAP1 SLOAD SWAP1 PUSH2 0x100 EXP SWAP1 DIV PUSH1 0xFF AND PUSH2 0x38F JUMPI PUSH1 0x40 MLOAD PUSH32 0x8C379A000000000000000000000000000000000000000000000000000000000 DUP2 MSTORE PUSH1 0x4 ADD PUSH2 0x386 SWAP1 PUSH2 0xD24 JUMP JUMPDEST PUSH1 0x40 MLOAD DUP1 SWAP2 SUB SWAP1 REVERT JUMPDEST PUSH0 DUP1 CALLER PUSH20 0xFFFFFFFFFFFFFFFFFFFFFFFFFFFFFFFFFFFFFFFF AND PUSH20 0xFFFFFFFFFFFFFFFFFFFFFFFFFFFFFFFFFFFFFFFF AND DUP2 MSTORE PUSH1 0x20 ADD SWAP1 DUP2 MSTORE PUSH1 0x20 ADD PUSH0 KECCAK256 PUSH1 0x2 ADD PUSH1 0x1 SWAP1 SLOAD SWAP1 PUSH2 0x100 EXP SWAP1 DIV PUSH1 0xFF AND PUSH2 0x41B JUMPI PUSH1 0x40 MLOAD PUSH32 0x8C379A000000000000000000000000000000000000000000000000000000000 DUP2 MSTORE PUSH1 0x4 ADD PUSH2 0x412 SWAP1 PUSH2 0xD8C JUMP JUMPDEST PUSH1 0x40 MLOAD DUP1 SWAP2 SUB SWAP1 REVERT JUMPDEST PUSH0 DUP1 PUSH0 CALLER PUSH20 0xFFFFFFFFFFFFFFFFFFFFFFFFFFFFFFFFFFFFFFFF AND PUSH20 0xFFFFFFFFFFFFFFFFFFFFFFFFFFFFFFFFFFFFFFFF AND DUP2 MSTORE PUSH1 0x20 ADD SWAP1 DUP2 MSTORE PUSH1 0x20 ADD PUSH0 KECCAK256 PUSH1 0x2 ADD PUSH1 0x1 PUSH2 0x100 EXP DUP2 SLOAD DUP2 PUSH1 0xFF MUL NOT AND SWAP1 DUP4 ISZERO ISZERO MUL OR SWAP1 SSTORE POP JUMP JUMPDEST PUSH0 DUP1 PUSH0 CALLER PUSH20 0xFFFFFFFFFFFFFFFFFFFFFFFFFFFFFFFFFFFFFFFF AND PUSH20 0xFFFFFFFFFFFFFFFFFFFFFFFFFFFFFFFFFFFFFFFF AND DUP2 MSTORE PUSH1 0x20 ADD SWAP1 DUP2 MSTORE PUSH1 0x20 ADD PUSH0 KECCAK256 PUSH1 0x2 ADD PUSH0 SWAP1 SLOAD SWAP1 PUSH2 0x100 EXP SWAP1 DIV PUSH1 0xFF AND PUSH2 0x500 JUMPI PUSH1 0x40 MLOAD PUSH32 0x8C379A000000000000000000000000000000000000000000000000000000000 DUP2 MSTORE PUSH1 0x4 ADD PUSH2 0x4F7 SWAP1 PUSH2 0xD24 JUMP JUMPDEST PUSH1 0x40 MLOAD DUP1 SWAP2 SUB SWAP1 REVERT JUMPDEST PUSH0 DUP1 CALLER PUSH20 0xFFFFFFFFFFFFFFFFFFFFFFFFFFFFFFFFFFFFFFFF AND PUSH20 0xFFFFFFFFFFFFFFFFFFFFFFFFFFFFFFFFFFFFFFFF AND DUP2 MSTORE PUSH1 0x20 ADD SWAP1 DUP2 MSTORE PUSH1 0x20 ADD PUSH0 KECCAK256 PUSH1 0x1 ADD SLOAD DUP3 PUSH1 0x40 MLOAD PUSH1 0x20 ADD PUSH2 0x551 SWAP2 SWAP1 PUSH2 0xCC4 JUMP JUMPDEST PUSH1 0x40 MLOAD PUSH1 0x20 DUP2 DUP4 SUB SUB DUP2 MSTORE SWAP1 PUSH1 0x40 MSTORE DUP1 MLOAD SWAP1 PUSH1 0x20 ADD KECCAK256 EQ DUP1 ISZERO PUSH2 0x5FC JUMPI POP PUSH0 DUP1 CALLER PUSH20 0xFFFFFFFFFFFFFFFFFFFFFFFFFFFFFFFFFFFFFFFF AND PUSH20 0xFFFFFFFFFFFFFFFFFFFFFFFFFFFFFFFFFFFFFFFF AND DUP2 MSTORE PUSH1 0x20 ADD SWAP1 DUP2 MSTORE PUSH1 0x20 ADD PUSH0 KECCAK256 PUSH0 ADD PUSH1 0x40 MLOAD PUSH1 0x20 ADD PUSH2 0x5BD SWAP2 SWAP1 PUSH2 0xE2A JUMP JUMPDEST PUSH1 0x40 MLOAD PUSH1 0x20 DUP2 DUP4 SUB SUB DUP2 MSTORE SWAP1 PUSH1 0x40 MSTORE DUP1 MLOAD SWAP1 PUSH1 0x20 ADD KECCAK256 DUP4 PUSH1 0x40 MLOAD PUSH1 0x20 ADD PUSH2 0x5E4 SWAP2 SWAP1 PUSH2 0xCC4 JUMP JUMPDEST PUSH1 0x40 MLOAD PUSH1 0x20 DUP2 DUP4 SUB SUB DUP2 MSTORE SWAP1 PUSH1 0x40 MSTORE DUP1 MLOAD SWAP1 PUSH1 0x20 ADD KECCAK256 EQ JUMPDEST SWAP1 POP SWAP3 SWAP2 POP POP JUMP JUMPDEST PUSH0 DUP1 PUSH0 DUP4 PUSH20 0xFFFFFFFFFFFFFFFFFFFFFFFFFFFFFFFFFFFFFFFF AND PUSH20 0xFFFFFFFFFFFFFFFFFFFFFFFFFFFFFFFFFFFFFFFF AND DUP2 MSTORE PUSH1 0x20 ADD SWAP1 DUP2 MSTORE PUSH1 0x20 ADD PUSH0 KECCAK256 PUSH1 0x2 ADD PUSH1 0x1 SWAP1 SLOAD SWAP1 PUSH2 0x100 EXP SWAP1 DIV PUSH1 0xFF AND SWAP1 POP SWAP2 SWAP1 POP JUMP JUMPDEST PUSH0 DUP1 PUSH0 DUP4 PUSH20 0xFFFFFFFFFFFFFFFFFFFFFFFFFFFFFFFFFFFFFFFF AND PUSH20 0xFFFFFFFFFFFFFFFFFFFFFFFFFFFFFFFFFFFFFFFF AND DUP2 MSTORE PUSH1 0x20 ADD SWAP1 DUP2 MSTORE PUSH1 0x20 ADD PUSH0 KECCAK256 PUSH1 0x2 ADD PUSH0 SWAP1 SLOAD SWAP1 PUSH2 0x100 EXP SWAP1 DIV PUSH1 0xFF AND SWAP1 POP SWAP2 SWAP1 POP JUMP JUMPDEST PUSH0 PUSH1 0x40 MLOAD SWAP1 POP SWAP1 JUMP JUMPDEST PUSH0 DUP1 REVERT JUMPDEST PUSH0 DUP1 REVERT JUMPDEST PUSH0 DUP1 REVERT JUMPDEST PUSH0 DUP1 REVERT JUMPDEST PUSH0 PUSH1 0x1F NOT PUSH1 0x1F DUP4 ADD AND SWAP1 POP SWAP2 SWAP1 POP JUMP JUMPDEST PUSH32 0x4E487B7100000000000000000000000000000000000000000000000000000000 PUSH0 MSTORE PUSH1 0x41 PUSH1 0x4 MSTORE PUSH1 0x24 PUSH0 REVERT JUMPDEST PUSH2 0x70C DUP3 PUSH2 0x6C6 JUMP JUMPDEST DUP2 ADD DUP2 DUP2 LT PUSH8 0xFFFFFFFFFFFFFFFF DUP3 GT OR ISZERO PUSH2 0x72B JUMPI PUSH2 0x72A PUSH2 0x6D6 JUMP JUMPDEST JUMPDEST DUP1 PUSH1 0x40 MSTORE POP POP POP JUMP JUMPDEST PUSH0 PUSH2 0x73D PUSH2 0x6AD JUMP JUMPDEST SWAP1 POP PUSH2 0x749 DUP3 DUP3 PUSH2 0x703 JUMP JUMPDEST SWAP2 SWAP1 POP JUMP JUMPDEST PUSH0 PUSH8 0xFFFFFFFFFFFFFFFF DUP3 GT ISZERO PUSH2 0x768 JUMPI PUSH2 0x767 PUSH2 0x6D6 JUMP JUMPDEST JUMPDEST PUSH2 0x771 DUP3 PUSH2 0x6C6 JUMP JUMPDEST SWAP1 POP PUSH1 0x20 DUP2 ADD SWAP1 POP SWAP2 SWAP1 POP JUMP JUMPDEST DUP3 DUP2 DUP4 CALLDATACOPY PUSH0 DUP4 DUP4 ADD MSTORE POP POP POP JUMP JUMPDEST PUSH0 PUSH2 0x79E PUSH2 0x799 DUP5 PUSH2 0x74E JUMP JUMPDEST PUSH2 0x734 JUMP JUMPDEST SWAP1 POP DUP3 DUP2 MSTORE PUSH1 0x20 DUP2 ADD DUP5 DUP5 DUP5 ADD GT ISZERO PUSH2 0x7BA JUMPI PUSH2 0x7B9 PUSH2 0x6C2 JUMP JUMPDEST JUMPDEST PUSH2 0x7C5 DUP5 DUP3 DUP6 PUSH2 0x77E JUMP JUMPDEST POP SWAP4 SWAP3 POP POP POP JUMP JUMPDEST PUSH0 DUP3 PUSH1 0x1F DUP4 ADD SLT PUSH2 0x7E1 JUMPI PUSH2 0x7E0 PUSH2 0x6BE JUMP JUMPDEST JUMPDEST DUP2 CALLDATALOAD PUSH2 0x7F1 DUP5 DUP3 PUSH1 0x20 DUP7 ADD PUSH2 0x78C JUMP JUMPDEST SWAP2 POP POP SWAP3 SWAP2 POP POP JUMP JUMPDEST PUSH0 DUP1 PUSH1 0x40 DUP4 DUP6 SUB SLT ISZERO PUSH2 0x810 JUMPI PUSH2 0x80F PUSH2 0x6B6 JUMP JUMPDEST JUMPDEST PUSH0 DUP4 ADD CALLDATALOAD PUSH8 0xFFFFFFFFFFFFFFFF DUP2 GT ISZERO PUSH2 0x82D JUMPI PUSH2 0x82C PUSH2 0x6BA JUMP JUMPDEST JUMPDEST PUSH2 0x839 DUP6 DUP3 DUP7 ADD PUSH2 0x7CD JUMP JUMPDEST SWAP3 POP POP PUSH1 0x20 DUP4 ADD CALLDATALOAD PUSH8 0xFFFFFFFFFFFFFFFF DUP2 GT ISZERO PUSH2 0x85A JUMPI PUSH2 0x859 PUSH2 0x6BA JUMP JUMPDEST JUMPDEST PUSH2 0x866 DUP6 DUP3 DUP7 ADD PUSH2 0x7CD JUMP JUMPDEST SWAP2 POP POP SWAP3 POP SWAP3 SWAP1 POP JUMP JUMPDEST PUSH0 DUP2 ISZERO ISZERO SWAP1 POP SWAP2 SWAP1 POP JUMP JUMPDEST PUSH2 0x884 DUP2 PUSH2 0x870 JUMP JUMPDEST DUP3 MSTORE POP POP JUMP JUMPDEST PUSH0 PUSH1 0x20 DUP3 ADD SWAP1 POP PUSH2 0x89D PUSH0 DUP4 ADD DUP5 PUSH2 0x87B JUMP JUMPDEST SWAP3 SWAP2 POP POP JUMP JUMPDEST PUSH0 PUSH20 0xFFFFFFFFFFFFFFFFFFFFFFFFFFFFFFFFFFFFFFFF DUP3 AND SWAP1 POP SWAP2 SWAP1 POP JUMP JUMPDEST PUSH0 PUSH2 0x8CC DUP3 PUSH2 0x8A3 JUMP JUMPDEST SWAP1 POP SWAP2 SWAP1 POP JUMP JUMPDEST PUSH2 0x8DC DUP2 PUSH2 0x8C2 JUMP JUMPDEST DUP2 EQ PUSH2 0x8E6 JUMPI PUSH0 DUP1 REVERT JUMPDEST POP JUMP JUMPDEST PUSH0 DUP2 CALLDATALOAD SWAP1 POP PUSH2 0x8F7 DUP2 PUSH2 0x8D3 JUMP JUMPDEST SWAP3 SWAP2 POP POP JUMP JUMPDEST PUSH0 PUSH1 0x20 DUP3 DUP5 SUB SLT ISZERO PUSH2 0x912 JUMPI PUSH2 0x911 PUSH2 0x6B6 JUMP JUMPDEST JUMPDEST PUSH0 PUSH2 0x91F DUP5 DUP3 DUP6 ADD PUSH2 0x8E9 JUMP JUMPDEST SWAP2 POP POP SWAP3 SWAP2 POP POP JUMP JUMPDEST PUSH0 DUP3 DUP3 MSTORE PUSH1 0x20 DUP3 ADD SWAP1 POP SWAP3 SWAP2 POP POP JUMP JUMPDEST PUSH32 0x5573657220697320616C72656164792072656769737465726564000000000000 PUSH0 DUP3 ADD MSTORE POP JUMP JUMPDEST PUSH0 PUSH2 0x96C PUSH1 0x1A DUP4 PUSH2 0x928 JUMP JUMPDEST SWAP2 POP PUSH2 0x977 DUP3 PUSH2 0x938 JUMP JUMPDEST PUSH1 0x20 DUP3 ADD SWAP1 POP SWAP2 SWAP1 POP JUMP JUMPDEST PUSH0 PUSH1 0x20 DUP3 ADD SWAP1 POP DUP2 DUP2 SUB PUSH0 DUP4 ADD MSTORE PUSH2 0x999 DUP2 PUSH2 0x960 JUMP JUMPDEST SWAP1 POP SWAP2 SWAP1 POP JUMP JUMPDEST PUSH0 DUP2 MLOAD SWAP1 POP SWAP2 SWAP1 POP JUMP JUMPDEST PUSH32 0x4E487B7100000000000000000000000000000000000000000000000000000000 PUSH0 MSTORE PUSH1 0x22 PUSH1 0x4 MSTORE PUSH1 0x24 PUSH0 REVERT JUMPDEST PUSH0 PUSH1 0x2 DUP3 DIV SWAP1 POP PUSH1 0x1 DUP3 AND DUP1 PUSH2 0x9EE JUMPI PUSH1 0x7F DUP3 AND SWAP2 POP JUMPDEST PUSH1 0x20 DUP3 LT DUP2 SUB PUSH2 0xA01 JUMPI PUSH2 0xA00 PUSH2 0x9AA JUMP JUMPDEST JUMPDEST POP SWAP2 SWAP1 POP JUMP JUMPDEST PUSH0 DUP2 SWAP1 POP DUP2 PUSH0 MSTORE PUSH1 0x20 PUSH0 KECCAK256 SWAP1 POP SWAP2 SWAP1 POP JUMP JUMPDEST PUSH0 PUSH1 0x20 PUSH1 0x1F DUP4 ADD DIV SWAP1 POP SWAP2 SWAP1 POP JUMP JUMPDEST PUSH0 DUP3 DUP3 SHL SWAP1 POP SWAP3 SWAP2 POP POP JUMP JUMPDEST PUSH0 PUSH1 0x8 DUP4 MUL PUSH2 0xA63 PUSH32 0xFFFFFFFFFFFFFFFFFFFFFFFFFFFFFFFFFFFFFFFFFFFFFFFFFFFFFFFFFFFFFFFF DUP3 PUSH2 0xA28 JUMP JUMPDEST PUSH2 0xA6D DUP7 DUP4 PUSH2 0xA28 JUMP JUMPDEST SWAP6 POP DUP1 NOT DUP5 AND SWAP4 POP DUP1 DUP7 AND DUP5 OR SWAP3 POP POP POP SWAP4 SWAP3 POP POP POP JUMP JUMPDEST PUSH0 DUP2 SWAP1 POP SWAP2 SWAP1 POP JUMP JUMPDEST PUSH0 DUP2 SWAP1 POP SWAP2 SWAP1 POP JUMP JUMPDEST PUSH0 PUSH2 0xAB1 PUSH2 0xAAC PUSH2 0xAA7 DUP5 PUSH2 0xA85 JUMP JUMPDEST PUSH2 0xA8E JUMP JUMPDEST PUSH2 0xA85 JUMP JUMPDEST SWAP1 POP SWAP2 SWAP1 POP JUMP JUMPDEST PUSH0 DUP2 SWAP1 POP SWAP2 SWAP1 POP JUMP JUMPDEST PUSH2 0xACA DUP4 PUSH2 0xA97 JUMP JUMPDEST PUSH2 0xADE PUSH2 0xAD6 DUP3 PUSH2 0xAB8 JUMP JUMPDEST DUP5 DUP5 SLOAD PUSH2 0xA34 JUMP JUMPDEST DUP3 SSTORE POP POP POP POP JUMP JUMPDEST PUSH0 SWAP1 JUMP JUMPDEST PUSH2 0xAF2 PUSH2 0xAE6 JUMP JUMPDEST PUSH2 0xAFD DUP2 DUP5 DUP5 PUSH2 0xAC1 JUMP JUMPDEST POP POP POP JUMP JUMPDEST JUMPDEST DUP2 DUP2 LT ISZERO PUSH2 0xB20 JUMPI PUSH2 0xB15 PUSH0 DUP3 PUSH2 0xAEA JUMP JUMPDEST PUSH1 0x1 DUP2 ADD SWAP1 POP PUSH2 0xB03 JUMP JUMPDEST POP POP JUMP JUMPDEST PUSH1 0x1F DUP3 GT ISZERO PUSH2 0xB65 JUMPI PUSH2 0xB36 DUP2 PUSH2 0xA07 JUMP JUMPDEST PUSH2 0xB3F DUP5 PUSH2 0xA19 JUMP JUMPDEST DUP2 ADD PUSH1 0x20 DUP6 LT ISZERO PUSH2 0xB4E JUMPI DUP2 SWAP1 POP JUMPDEST PUSH2 0xB62 PUSH2 0xB5A DUP6 PUSH2 0xA19 JUMP JUMPDEST DUP4 ADD DUP3 PUSH2 0xB02 JUMP JUMPDEST POP POP JUMPDEST POP POP POP JUMP JUMPDEST PUSH0 DUP3 DUP3 SHR SWAP1 POP SWAP3 SWAP2 POP POP JUMP JUMPDEST PUSH0 PUSH2 0xB85 PUSH0 NOT DUP5 PUSH1 0x8 MUL PUSH2 0xB6A JUMP JUMPDEST NOT DUP1 DUP4 AND SWAP2 POP POP SWAP3 SWAP2 POP POP JUMP JUMPDEST PUSH0 PUSH2 0xB9D DUP4 DUP4 PUSH2 0xB76 JUMP JUMPDEST SWAP2 POP DUP3 PUSH1 0x2 MUL DUP3 OR SWAP1 POP SWAP3 SWAP2 POP POP JUMP JUMPDEST PUSH2 0xBB6 DUP3 PUSH2 0x9A0 JUMP JUMPDEST PUSH8 0xFFFFFFFFFFFFFFFF DUP2 GT ISZERO PUSH2 0xBCF JUMPI PUSH2 0xBCE PUSH2 0x6D6 JUMP JUMPDEST JUMPDEST PUSH2 0xBD9 DUP3 SLOAD PUSH2 0x9D7 JUMP JUMPDEST PUSH2 0xBE4 DUP3 DUP3 DUP6 PUSH2 0xB24 JUMP JUMPDEST PUSH0 PUSH1 0x20 SWAP1 POP PUSH1 0x1F DUP4 GT PUSH1 0x1 DUP2 EQ PUSH2 0xC15 JUMPI PUSH0 DUP5 ISZERO PUSH2 0xC03 JUMPI DUP3 DUP8 ADD MLOAD SWAP1 POP JUMPDEST PUSH2 0xC0D DUP6 DUP3 PUSH2 0xB92 JUMP JUMPDEST DUP7 SSTORE POP PUSH2 0xC74 JUMP JUMPDEST PUSH1 0x1F NOT DUP5 AND PUSH2 0xC23 DUP7 PUSH2 0xA07 JUMP JUMPDEST PUSH0 JUMPDEST DUP3 DUP2 LT ISZERO PUSH2 0xC4A JUMPI DUP5 DUP10 ADD MLOAD DUP3 SSTORE PUSH1 0x1 DUP3 ADD SWAP2 POP PUSH1 0x20 DUP6 ADD SWAP5 POP PUSH1 0x20 DUP2 ADD SWAP1 POP PUSH2 0xC25 JUMP JUMPDEST DUP7 DUP4 LT ISZERO PUSH2 0xC67 JUMPI DUP5 DUP10 ADD MLOAD PUSH2 0xC63 PUSH1 0x1F DUP10 AND DUP3 PUSH2 0xB76 JUMP JUMPDEST DUP4 SSTORE POP JUMPDEST PUSH1 0x1 PUSH1 0x2 DUP9 MUL ADD DUP9 SSTORE POP POP POP JUMPDEST POP POP POP POP POP POP JUMP JUMPDEST PUSH0 DUP2 SWAP1 POP SWAP3 SWAP2 POP POP JUMP JUMPDEST DUP3 DUP2 DUP4 MCOPY PUSH0 DUP4 DUP4 ADD MSTORE POP POP POP JUMP JUMPDEST PUSH0 PUSH2 0xC9E DUP3 PUSH2 0x9A0 JUMP JUMPDEST PUSH2 0xCA8 DUP2 DUP6 PUSH2 0xC7C JUMP JUMPDEST SWAP4 POP PUSH2 0xCB8 DUP2 DUP6 PUSH1 0x20 DUP7 ADD PUSH2 0xC86 JUMP JUMPDEST DUP1 DUP5 ADD SWAP2 POP POP SWAP3 SWAP2 POP POP JUMP JUMPDEST PUSH0 PUSH2 0xCCF DUP3 DUP5 PUSH2 0xC94 JUMP JUMPDEST SWAP2 POP DUP2 SWAP1 POP SWAP3 SWAP2 POP POP JUMP JUMPDEST PUSH32 0x55736572206973206E6F74207265676973746572656400000000000000000000 PUSH0 DUP3 ADD MSTORE POP JUMP JUMPDEST PUSH0 PUSH2 0xD0E PUSH1 0x16 DUP4 PUSH2 0x928 JUMP JUMPDEST SWAP2 POP PUSH2 0xD19 DUP3 PUSH2 0xCDA JUMP JUMPDEST PUSH1 0x20 DUP3 ADD SWAP1 POP SWAP2 SWAP1 POP JUMP JUMPDEST PUSH0 PUSH1 0x20 DUP3 ADD SWAP1 POP DUP2 DUP2 SUB PUSH0 DUP4 ADD MSTORE PUSH2 0xD3B DUP2 PUSH2 0xD02 JUMP JUMPDEST SWAP1 POP SWAP2 SWAP1 POP JUMP JUMPDEST PUSH32 0x5573657220697320616C72656164792064656163746976617465640000000000 PUSH0 DUP3 ADD MSTORE POP JUMP JUMPDEST PUSH0 PUSH2 0xD76 PUSH1 0x1B DUP4 PUSH2 0x928 JUMP JUMPDEST SWAP2 POP PUSH2 0xD81 DUP3 PUSH2 0xD42 JUMP JUMPDEST PUSH1 0x20 DUP3 ADD SWAP1 POP SWAP2 SWAP1 POP JUMP JUMPDEST PUSH0 PUSH1 0x20 DUP3 ADD SWAP1 POP DUP2 DUP2 SUB PUSH0 DUP4 ADD MSTORE PUSH2 0xDA3 DUP2 PUSH2 0xD6A JUMP JUMPDEST SWAP1 POP SWAP2 SWAP1 POP JUMP JUMPDEST PUSH0 DUP2 SLOAD PUSH2 0xDB6 DUP2 PUSH2 0x9D7 JUMP JUMPDEST PUSH2 0xDC0 DUP2 DUP7 PUSH2 0xC7C JUMP JUMPDEST SWAP5 POP PUSH1 0x1 DUP3 AND PUSH0 DUP2 EQ PUSH2 0xDDA JUMPI PUSH1 0x1 DUP2 EQ PUSH2 0xDEF JUMPI PUSH2 0xE21 JUMP JUMPDEST PUSH1 0xFF NOT DUP4 AND DUP7 MSTORE DUP2 ISZERO ISZERO DUP3 MUL DUP7 ADD SWAP4 POP PUSH2 0xE21 JUMP JUMPDEST PUSH2 0xDF8 DUP6 PUSH2 0xA07 JUMP JUMPDEST PUSH0 JUMPDEST DUP4 DUP2 LT ISZERO PUSH2 0xE19 JUMPI DUP2 SLOAD DUP2 DUP10 ADD MSTORE PUSH1 0x1 DUP3 ADD SWAP2 POP PUSH1 0x20 DUP2 ADD SWAP1 POP PUSH2 0xDFA JUMP JUMPDEST DUP4 DUP9 ADD SWAP6 POP POP POP JUMPDEST POP POP POP SWAP3 SWAP2 POP POP JUMP JUMPDEST PUSH0 PUSH2 0xE35 DUP3 DUP5 PUSH2 0xDAA JUMP JUMPDEST SWAP2 POP DUP2 SWAP1 POP SWAP3 SWAP2 POP POP JUMP INVALID LOG2 PUSH5 0x6970667358 0x22 SLT KECCAK256 DUP1 0xD1 0xD3 LOG2 SWAP5 0xAD RETURNDATASIZE JUMPDEST SWAP6 0xF SELFDESTRUCT PUSH1 0xA9 ADD SDIV LOG1 0xD8 RETURN 0xB9 PUSH32 0x221AF4CA05958EA0D9D5AFD464736F6C634300081A0033000000000000000000 "
				},
				"gasEstimates": {
					"creation": {
						"codeDepositCost": "740400",
						"executionCost": "771",
						"totalCost": "741171"
					},
					"external": {
						"authenticate(string,string)": "infinite",
						"deactivate()": "29093",
						"isActive(address)": "2971",
						"isRegistered(address)": "2942",
						"register(string,string)": "infinite"
					}
				},
				"methodIdentifiers": {
					"authenticate(string,string)": "544541b3",
					"deactivate()": "51b42b00",
					"isActive(address)": "9f8a13d7",
					"isRegistered(address)": "c3c5a547",
					"register(string,string)": "3ffbd47f"
				}
			},
			"storageLayout": {
				"storage": [
					{
						"astId": 15,
						"contract": "contracts/NewRegistration.sol:UserRegistration",
						"label": "users",
						"offset": 0,
						"slot": "0",
						"type": "t_mapping(t_address,t_struct(User)10_storage)"
					}
				],
				"types": {
					"t_address": {
						"encoding": "inplace",
						"label": "address",
						"numberOfBytes": "20"
					},
					"t_bool": {
						"encoding": "inplace",
						"label": "bool",
						"numberOfBytes": "1"
					},
					"t_bytes32": {
						"encoding": "inplace",
						"label": "bytes32",
						"numberOfBytes": "32"
					},
					"t_mapping(t_address,t_struct(User)10_storage)": {
						"encoding": "mapping",
						"key": "t_address",
						"label": "mapping(address => struct UserRegistration.User)",
						"numberOfBytes": "32",
						"value": "t_struct(User)10_storage"
					},
					"t_string_storage": {
						"encoding": "bytes",
						"label": "string",
						"numberOfBytes": "32"
					},
					"t_struct(User)10_storage": {
						"encoding": "inplace",
						"label": "struct UserRegistration.User",
						"members": [
							{
								"astId": 3,
								"contract": "contracts/NewRegistration.sol:UserRegistration",
								"label": "email",
								"offset": 0,
								"slot": "0",
								"type": "t_string_storage"
							},
							{
								"astId": 5,
								"contract": "contracts/NewRegistration.sol:UserRegistration",
								"label": "passwordHash",
								"offset": 0,
								"slot": "1",
								"type": "t_bytes32"
							},
							{
								"astId": 7,
								"contract": "contracts/NewRegistration.sol:UserRegistration",
								"label": "isRegistered",
								"offset": 0,
								"slot": "2",
								"type": "t_bool"
							},
							{
								"astId": 9,
								"contract": "contracts/NewRegistration.sol:UserRegistration",
								"label": "isActive",
								"offset": 1,
								"slot": "2",
								"type": "t_bool"
							}
						],
						"numberOfBytes": "96"
					}
				}
			},
			"userdoc": {
				"kind": "user",
				"methods": {},
				"version": 1
			}
		}
	}
}