{
	"contracts/DataStorage.sol": {
		"DataStorage": {
			"abi": [
				{
					"inputs": [
						{
							"internalType": "uint256",
							"name": "id",
							"type": "uint256"
						}
					],
					"name": "deleteData",
					"outputs": [],
					"stateMutability": "nonpayable",
					"type": "function"
				},
				{
					"inputs": [
						{
							"internalType": "uint256",
							"name": "id",
							"type": "uint256"
						}
					],
					"name": "getData",
					"outputs": [
						{
							"internalType": "string",
							"name": "",
							"type": "string"
						}
					],
					"stateMutability": "view",
					"type": "function"
				},
				{
					"inputs": [
						{
							"internalType": "uint256",
							"name": "id",
							"type": "uint256"
						},
						{
							"internalType": "string",
							"name": "newData",
							"type": "string"
						}
					],
					"name": "updateData",
					"outputs": [],
					"stateMutability": "nonpayable",
					"type": "function"
				},
				{
					"inputs": [
						{
							"internalType": "string",
							"name": "data",
							"type": "string"
						}
					],
					"name": "writeData",
					"outputs": [],
					"stateMutability": "nonpayable",
					"type": "function"
				}
			],
			"devdoc": {
				"kind": "dev",
				"methods": {},
				"version": 1
			},
			"evm": {
				"assembly": "    /* \"contracts/DataStorage.sol\":60:832  contract DataStorage {... */\n  mstore(0x40, 0x80)\n  callvalue\n  dup1\n  iszero\n  tag_1\n  jumpi\n  0x00\n  dup1\n  revert\ntag_1:\n  pop\n  dataSize(sub_0)\n  dup1\n  dataOffset(sub_0)\n  0x00\n  codecopy\n  0x00\n  return\nstop\n\nsub_0: assembly {\n        /* \"contracts/DataStorage.sol\":60:832  contract DataStorage {... */\n      mstore(0x40, 0x80)\n      callvalue\n      dup1\n      iszero\n      tag_1\n      jumpi\n      0x00\n      dup1\n      revert\n    tag_1:\n      pop\n      jumpi(tag_2, lt(calldatasize, 0x04))\n      shr(0xe0, calldataload(0x00))\n      dup1\n      0x0178fe3f\n      eq\n      tag_3\n      jumpi\n      dup1\n      0x134bc876\n      eq\n      tag_4\n      jumpi\n      dup1\n      0x4fe8b4c1\n      eq\n      tag_5\n      jumpi\n      dup1\n      0x89a8e2a7\n      eq\n      tag_6\n      jumpi\n    tag_2:\n      0x00\n      dup1\n      revert\n        /* \"contracts/DataStorage.sol\":515:671  function getData(uint256 id) public view returns (string memory) {... */\n    tag_3:\n      tag_7\n      0x04\n      dup1\n      calldatasize\n      sub\n      dup2\n      add\n      swap1\n      tag_8\n      swap2\n      swap1\n      tag_9\n      jump\t// in\n    tag_8:\n      tag_10\n      jump\t// in\n    tag_7:\n      mload(0x40)\n      tag_11\n      swap2\n      swap1\n      tag_12\n      jump\t// in\n    tag_11:\n      mload(0x40)\n      dup1\n      swap2\n      sub\n      swap1\n      return\n        /* \"contracts/DataStorage.sol\":192:306  function writeData(string memory data) public {... */\n    tag_4:\n      tag_13\n      0x04\n      dup1\n      calldatasize\n      sub\n      dup2\n      add\n      swap1\n      tag_14\n      swap2\n      swap1\n      tag_15\n      jump\t// in\n    tag_14:\n      tag_16\n      jump\t// in\n    tag_13:\n      stop\n        /* \"contracts/DataStorage.sol\":699:829  function deleteData(uint256 id) public {... */\n    tag_5:\n      tag_17\n      0x04\n      dup1\n      calldatasize\n      sub\n      dup2\n      add\n      swap1\n      tag_18\n      swap2\n      swap1\n      tag_9\n      jump\t// in\n    tag_18:\n      tag_19\n      jump\t// in\n    tag_17:\n      stop\n        /* \"contracts/DataStorage.sol\":334:490  function updateData(uint256 id, string memory newData) public {... */\n    tag_6:\n      tag_20\n      0x04\n      dup1\n      calldatasize\n      sub\n      dup2\n      add\n      swap1\n      tag_21\n      swap2\n      swap1\n      tag_22\n      jump\t// in\n    tag_21:\n      tag_23\n      jump\t// in\n    tag_20:\n      stop\n        /* \"contracts/DataStorage.sol\":515:671  function getData(uint256 id) public view returns (string memory) {... */\n    tag_10:\n        /* \"contracts/DataStorage.sol\":565:578  string memory */\n      0x60\n        /* \"contracts/DataStorage.sol\":604:613  dataCount */\n      sload(0x01)\n        /* \"contracts/DataStorage.sol\":599:601  id */\n      dup3\n        /* \"contracts/DataStorage.sol\":599:613  id < dataCount */\n      lt\n        /* \"contracts/DataStorage.sol\":591:632  require(id < dataCount, \"Data not found\") */\n      tag_25\n      jumpi\n      mload(0x40)\n      0x08c379a000000000000000000000000000000000000000000000000000000000\n      dup2\n      mstore\n      0x04\n      add\n      tag_26\n      swap1\n      tag_27\n      jump\t// in\n    tag_26:\n      mload(0x40)\n      dup1\n      swap2\n      sub\n      swap1\n      revert\n    tag_25:\n        /* \"contracts/DataStorage.sol\":650:659  dataStore */\n      0x00\n        /* \"contracts/DataStorage.sol\":650:663  dataStore[id] */\n      dup1\n        /* \"contracts/DataStorage.sol\":660:662  id */\n      dup4\n        /* \"contracts/DataStorage.sol\":650:663  dataStore[id] */\n      dup2\n      mstore\n      0x20\n      add\n      swap1\n      dup2\n      mstore\n      0x20\n      add\n      0x00\n      keccak256\n        /* \"contracts/DataStorage.sol\":643:663  return dataStore[id] */\n      dup1\n      sload\n      tag_28\n      swap1\n      tag_29\n      jump\t// in\n    tag_28:\n      dup1\n      0x1f\n      add\n      0x20\n      dup1\n      swap2\n      div\n      mul\n      0x20\n      add\n      mload(0x40)\n      swap1\n      dup2\n      add\n      0x40\n      mstore\n      dup1\n      swap3\n      swap2\n      swap1\n      dup2\n      dup2\n      mstore\n      0x20\n      add\n      dup3\n      dup1\n      sload\n      tag_30\n      swap1\n      tag_29\n      jump\t// in\n    tag_30:\n      dup1\n      iszero\n      tag_31\n      jumpi\n      dup1\n      0x1f\n      lt\n      tag_32\n      jumpi\n      0x0100\n      dup1\n      dup4\n      sload\n      div\n      mul\n      dup4\n      mstore\n      swap2\n      0x20\n      add\n      swap2\n      jump(tag_31)\n    tag_32:\n      dup3\n      add\n      swap2\n      swap1\n      0x00\n      mstore\n      keccak256(0x00, 0x20)\n      swap1\n    tag_33:\n      dup2\n      sload\n      dup2\n      mstore\n      swap1\n      0x01\n      add\n      swap1\n      0x20\n      add\n      dup1\n      dup4\n      gt\n      tag_33\n      jumpi\n      dup3\n      swap1\n      sub\n      0x1f\n      and\n      dup3\n      add\n      swap2\n    tag_31:\n      pop\n      pop\n      pop\n      pop\n      pop\n      swap1\n      pop\n        /* \"contracts/DataStorage.sol\":515:671  function getData(uint256 id) public view returns (string memory) {... */\n      swap2\n      swap1\n      pop\n      jump\t// out\n        /* \"contracts/DataStorage.sol\":192:306  function writeData(string memory data) public {... */\n    tag_16:\n        /* \"contracts/DataStorage.sol\":272:276  data */\n      dup1\n        /* \"contracts/DataStorage.sol\":249:258  dataStore */\n      0x00\n        /* \"contracts/DataStorage.sol\":249:269  dataStore[dataCount] */\n      dup1\n        /* \"contracts/DataStorage.sol\":259:268  dataCount */\n      sload(0x01)\n        /* \"contracts/DataStorage.sol\":249:269  dataStore[dataCount] */\n      dup2\n      mstore\n      0x20\n      add\n      swap1\n      dup2\n      mstore\n      0x20\n      add\n      0x00\n      keccak256\n        /* \"contracts/DataStorage.sol\":249:276  dataStore[dataCount] = data */\n      swap1\n      dup2\n      tag_35\n      swap2\n      swap1\n      tag_36\n      jump\t// in\n    tag_35:\n      pop\n        /* \"contracts/DataStorage.sol\":287:296  dataCount */\n      0x01\n      0x00\n        /* \"contracts/DataStorage.sol\":287:298  dataCount++ */\n      dup2\n      sload\n      dup1\n      swap3\n      swap2\n      swap1\n      tag_37\n      swap1\n      tag_38\n      jump\t// in\n    tag_37:\n      swap2\n      swap1\n      pop\n      sstore\n      pop\n        /* \"contracts/DataStorage.sol\":192:306  function writeData(string memory data) public {... */\n      pop\n      jump\t// out\n        /* \"contracts/DataStorage.sol\":699:829  function deleteData(uint256 id) public {... */\n    tag_19:\n        /* \"contracts/DataStorage.sol\":762:771  dataCount */\n      sload(0x01)\n        /* \"contracts/DataStorage.sol\":757:759  id */\n      dup2\n        /* \"contracts/DataStorage.sol\":757:771  id < dataCount */\n      lt\n        /* \"contracts/DataStorage.sol\":749:790  require(id < dataCount, \"Data not found\") */\n      tag_40\n      jumpi\n      mload(0x40)\n      0x08c379a000000000000000000000000000000000000000000000000000000000\n      dup2\n      mstore\n      0x04\n      add\n      tag_41\n      swap1\n      tag_27\n      jump\t// in\n    tag_41:\n      mload(0x40)\n      dup1\n      swap2\n      sub\n      swap1\n      revert\n    tag_40:\n        /* \"contracts/DataStorage.sol\":808:817  dataStore */\n      0x00\n        /* \"contracts/DataStorage.sol\":808:821  dataStore[id] */\n      dup1\n        /* \"contracts/DataStorage.sol\":818:820  id */\n      dup3\n        /* \"contracts/DataStorage.sol\":808:821  dataStore[id] */\n      dup2\n      mstore\n      0x20\n      add\n      swap1\n      dup2\n      mstore\n      0x20\n      add\n      0x00\n      keccak256\n      0x00\n        /* \"contracts/DataStorage.sol\":801:821  delete dataStore[id] */\n      tag_42\n      swap2\n      swap1\n      tag_43\n      jump\t// in\n    tag_42:\n        /* \"contracts/DataStorage.sol\":699:829  function deleteData(uint256 id) public {... */\n      pop\n      jump\t// out\n        /* \"contracts/DataStorage.sol\":334:490  function updateData(uint256 id, string memory newData) public {... */\n    tag_23:\n        /* \"contracts/DataStorage.sol\":420:429  dataCount */\n      sload(0x01)\n        /* \"contracts/DataStorage.sol\":415:417  id */\n      dup3\n        /* \"contracts/DataStorage.sol\":415:429  id < dataCount */\n      lt\n        /* \"contracts/DataStorage.sol\":407:448  require(id < dataCount, \"Data not found\") */\n      tag_45\n      jumpi\n      mload(0x40)\n      0x08c379a000000000000000000000000000000000000000000000000000000000\n      dup2\n      mstore\n      0x04\n      add\n      tag_46\n      swap1\n      tag_27\n      jump\t// in\n    tag_46:\n      mload(0x40)\n      dup1\n      swap2\n      sub\n      swap1\n      revert\n    tag_45:\n        /* \"contracts/DataStorage.sol\":475:482  newData */\n      dup1\n        /* \"contracts/DataStorage.sol\":459:468  dataStore */\n      0x00\n        /* \"contracts/DataStorage.sol\":459:472  dataStore[id] */\n      dup1\n        /* \"contracts/DataStorage.sol\":469:471  id */\n      dup5\n        /* \"contracts/DataStorage.sol\":459:472  dataStore[id] */\n      dup2\n      mstore\n      0x20\n      add\n      swap1\n      dup2\n      mstore\n      0x20\n      add\n      0x00\n      keccak256\n        /* \"contracts/DataStorage.sol\":459:482  dataStore[id] = newData */\n      swap1\n      dup2\n      tag_47\n      swap2\n      swap1\n      tag_36\n      jump\t// in\n    tag_47:\n      pop\n        /* \"contracts/DataStorage.sol\":334:490  function updateData(uint256 id, string memory newData) public {... */\n      pop\n      pop\n      jump\t// out\n    tag_43:\n      pop\n      dup1\n      sload\n      tag_48\n      swap1\n      tag_29\n      jump\t// in\n    tag_48:\n      0x00\n      dup3\n      sstore\n      dup1\n      0x1f\n      lt\n      tag_50\n      jumpi\n      pop\n      jump(tag_49)\n    tag_50:\n      0x1f\n      add\n      0x20\n      swap1\n      div\n      swap1\n      0x00\n      mstore\n      keccak256(0x00, 0x20)\n      swap1\n      dup2\n      add\n      swap1\n      tag_51\n      swap2\n      swap1\n      tag_52\n      jump\t// in\n    tag_51:\n    tag_49:\n      pop\n      jump\t// out\n    tag_52:\n    tag_53:\n      dup1\n      dup3\n      gt\n      iszero\n      tag_54\n      jumpi\n      0x00\n      dup2\n      0x00\n      swap1\n      sstore\n      pop\n      0x01\n      add\n      jump(tag_53)\n    tag_54:\n      pop\n      swap1\n      jump\t// out\n        /* \"#utility.yul\":7:82   */\n    tag_55:\n        /* \"#utility.yul\":40:46   */\n      0x00\n        /* \"#utility.yul\":73:75   */\n      0x40\n        /* \"#utility.yul\":67:76   */\n      mload\n        /* \"#utility.yul\":57:76   */\n      swap1\n      pop\n        /* \"#utility.yul\":7:82   */\n      swap1\n      jump\t// out\n        /* \"#utility.yul\":88:205   */\n    tag_56:\n        /* \"#utility.yul\":197:198   */\n      0x00\n        /* \"#utility.yul\":194:195   */\n      dup1\n        /* \"#utility.yul\":187:199   */\n      revert\n        /* \"#utility.yul\":211:328   */\n    tag_57:\n        /* \"#utility.yul\":320:321   */\n      0x00\n        /* \"#utility.yul\":317:318   */\n      dup1\n        /* \"#utility.yul\":310:322   */\n      revert\n        /* \"#utility.yul\":334:411   */\n    tag_58:\n        /* \"#utility.yul\":371:378   */\n      0x00\n        /* \"#utility.yul\":400:405   */\n      dup2\n        /* \"#utility.yul\":389:405   */\n      swap1\n      pop\n        /* \"#utility.yul\":334:411   */\n      swap2\n      swap1\n      pop\n      jump\t// out\n        /* \"#utility.yul\":417:539   */\n    tag_59:\n        /* \"#utility.yul\":490:514   */\n      tag_100\n        /* \"#utility.yul\":508:513   */\n      dup2\n        /* \"#utility.yul\":490:514   */\n      tag_58\n      jump\t// in\n    tag_100:\n        /* \"#utility.yul\":483:488   */\n      dup2\n        /* \"#utility.yul\":480:515   */\n      eq\n        /* \"#utility.yul\":470:533   */\n      tag_101\n      jumpi\n        /* \"#utility.yul\":529:530   */\n      0x00\n        /* \"#utility.yul\":526:527   */\n      dup1\n        /* \"#utility.yul\":519:531   */\n      revert\n        /* \"#utility.yul\":470:533   */\n    tag_101:\n        /* \"#utility.yul\":417:539   */\n      pop\n      jump\t// out\n        /* \"#utility.yul\":545:684   */\n    tag_60:\n        /* \"#utility.yul\":591:596   */\n      0x00\n        /* \"#utility.yul\":629:635   */\n      dup2\n        /* \"#utility.yul\":616:636   */\n      calldataload\n        /* \"#utility.yul\":607:636   */\n      swap1\n      pop\n        /* \"#utility.yul\":645:678   */\n      tag_103\n        /* \"#utility.yul\":672:677   */\n      dup2\n        /* \"#utility.yul\":645:678   */\n      tag_59\n      jump\t// in\n    tag_103:\n        /* \"#utility.yul\":545:684   */\n      swap3\n      swap2\n      pop\n      pop\n      jump\t// out\n        /* \"#utility.yul\":690:1019   */\n    tag_9:\n        /* \"#utility.yul\":749:755   */\n      0x00\n        /* \"#utility.yul\":798:800   */\n      0x20\n        /* \"#utility.yul\":786:795   */\n      dup3\n        /* \"#utility.yul\":777:784   */\n      dup5\n        /* \"#utility.yul\":773:796   */\n      sub\n        /* \"#utility.yul\":769:801   */\n      slt\n        /* \"#utility.yul\":766:885   */\n      iszero\n      tag_105\n      jumpi\n        /* \"#utility.yul\":804:883   */\n      tag_106\n      tag_56\n      jump\t// in\n    tag_106:\n        /* \"#utility.yul\":766:885   */\n    tag_105:\n        /* \"#utility.yul\":924:925   */\n      0x00\n        /* \"#utility.yul\":949:1002   */\n      tag_107\n        /* \"#utility.yul\":994:1001   */\n      dup5\n        /* \"#utility.yul\":985:991   */\n      dup3\n        /* \"#utility.yul\":974:983   */\n      dup6\n        /* \"#utility.yul\":970:992   */\n      add\n        /* \"#utility.yul\":949:1002   */\n      tag_60\n      jump\t// in\n    tag_107:\n        /* \"#utility.yul\":939:1002   */\n      swap2\n      pop\n        /* \"#utility.yul\":895:1012   */\n      pop\n        /* \"#utility.yul\":690:1019   */\n      swap3\n      swap2\n      pop\n      pop\n      jump\t// out\n        /* \"#utility.yul\":1025:1124   */\n    tag_61:\n        /* \"#utility.yul\":1077:1083   */\n      0x00\n        /* \"#utility.yul\":1111:1116   */\n      dup2\n        /* \"#utility.yul\":1105:1117   */\n      mload\n        /* \"#utility.yul\":1095:1117   */\n      swap1\n      pop\n        /* \"#utility.yul\":1025:1124   */\n      swap2\n      swap1\n      pop\n      jump\t// out\n        /* \"#utility.yul\":1130:1299   */\n    tag_62:\n        /* \"#utility.yul\":1214:1225   */\n      0x00\n        /* \"#utility.yul\":1248:1254   */\n      dup3\n        /* \"#utility.yul\":1243:1246   */\n      dup3\n        /* \"#utility.yul\":1236:1255   */\n      mstore\n        /* \"#utility.yul\":1288:1292   */\n      0x20\n        /* \"#utility.yul\":1283:1286   */\n      dup3\n        /* \"#utility.yul\":1279:1293   */\n      add\n        /* \"#utility.yul\":1264:1293   */\n      swap1\n      pop\n        /* \"#utility.yul\":1130:1299   */\n      swap3\n      swap2\n      pop\n      pop\n      jump\t// out\n        /* \"#utility.yul\":1305:1444   */\n    tag_63:\n        /* \"#utility.yul\":1394:1400   */\n      dup3\n        /* \"#utility.yul\":1389:1392   */\n      dup2\n        /* \"#utility.yul\":1384:1387   */\n      dup4\n        /* \"#utility.yul\":1378:1401   */\n      mcopy\n        /* \"#utility.yul\":1435:1436   */\n      0x00\n        /* \"#utility.yul\":1426:1432   */\n      dup4\n        /* \"#utility.yul\":1421:1424   */\n      dup4\n        /* \"#utility.yul\":1417:1433   */\n      add\n        /* \"#utility.yul\":1410:1437   */\n      mstore\n        /* \"#utility.yul\":1305:1444   */\n      pop\n      pop\n      pop\n      jump\t// out\n        /* \"#utility.yul\":1450:1552   */\n    tag_64:\n        /* \"#utility.yul\":1491:1497   */\n      0x00\n        /* \"#utility.yul\":1542:1544   */\n      0x1f\n        /* \"#utility.yul\":1538:1545   */\n      not\n        /* \"#utility.yul\":1533:1535   */\n      0x1f\n        /* \"#utility.yul\":1526:1531   */\n      dup4\n        /* \"#utility.yul\":1522:1536   */\n      add\n        /* \"#utility.yul\":1518:1546   */\n      and\n        /* \"#utility.yul\":1508:1546   */\n      swap1\n      pop\n        /* \"#utility.yul\":1450:1552   */\n      swap2\n      swap1\n      pop\n      jump\t// out\n        /* \"#utility.yul\":1558:1935   */\n    tag_65:\n        /* \"#utility.yul\":1646:1649   */\n      0x00\n        /* \"#utility.yul\":1674:1713   */\n      tag_113\n        /* \"#utility.yul\":1707:1712   */\n      dup3\n        /* \"#utility.yul\":1674:1713   */\n      tag_61\n      jump\t// in\n    tag_113:\n        /* \"#utility.yul\":1729:1800   */\n      tag_114\n        /* \"#utility.yul\":1793:1799   */\n      dup2\n        /* \"#utility.yul\":1788:1791   */\n      dup6\n        /* \"#utility.yul\":1729:1800   */\n      tag_62\n      jump\t// in\n    tag_114:\n        /* \"#utility.yul\":1722:1800   */\n      swap4\n      pop\n        /* \"#utility.yul\":1809:1874   */\n      tag_115\n        /* \"#utility.yul\":1867:1873   */\n      dup2\n        /* \"#utility.yul\":1862:1865   */\n      dup6\n        /* \"#utility.yul\":1855:1859   */\n      0x20\n        /* \"#utility.yul\":1848:1853   */\n      dup7\n        /* \"#utility.yul\":1844:1860   */\n      add\n        /* \"#utility.yul\":1809:1874   */\n      tag_63\n      jump\t// in\n    tag_115:\n        /* \"#utility.yul\":1899:1928   */\n      tag_116\n        /* \"#utility.yul\":1921:1927   */\n      dup2\n        /* \"#utility.yul\":1899:1928   */\n      tag_64\n      jump\t// in\n    tag_116:\n        /* \"#utility.yul\":1894:1897   */\n      dup5\n        /* \"#utility.yul\":1890:1929   */\n      add\n        /* \"#utility.yul\":1883:1929   */\n      swap2\n      pop\n        /* \"#utility.yul\":1650:1935   */\n      pop\n        /* \"#utility.yul\":1558:1935   */\n      swap3\n      swap2\n      pop\n      pop\n      jump\t// out\n        /* \"#utility.yul\":1941:2254   */\n    tag_12:\n        /* \"#utility.yul\":2054:2058   */\n      0x00\n        /* \"#utility.yul\":2092:2094   */\n      0x20\n        /* \"#utility.yul\":2081:2090   */\n      dup3\n        /* \"#utility.yul\":2077:2095   */\n      add\n        /* \"#utility.yul\":2069:2095   */\n      swap1\n      pop\n        /* \"#utility.yul\":2141:2150   */\n      dup2\n        /* \"#utility.yul\":2135:2139   */\n      dup2\n        /* \"#utility.yul\":2131:2151   */\n      sub\n        /* \"#utility.yul\":2127:2128   */\n      0x00\n        /* \"#utility.yul\":2116:2125   */\n      dup4\n        /* \"#utility.yul\":2112:2129   */\n      add\n        /* \"#utility.yul\":2105:2152   */\n      mstore\n        /* \"#utility.yul\":2169:2247   */\n      tag_118\n        /* \"#utility.yul\":2242:2246   */\n      dup2\n        /* \"#utility.yul\":2233:2239   */\n      dup5\n        /* \"#utility.yul\":2169:2247   */\n      tag_65\n      jump\t// in\n    tag_118:\n        /* \"#utility.yul\":2161:2247   */\n      swap1\n      pop\n        /* \"#utility.yul\":1941:2254   */\n      swap3\n      swap2\n      pop\n      pop\n      jump\t// out\n        /* \"#utility.yul\":2260:2377   */\n    tag_66:\n        /* \"#utility.yul\":2369:2370   */\n      0x00\n        /* \"#utility.yul\":2366:2367   */\n      dup1\n        /* \"#utility.yul\":2359:2371   */\n      revert\n        /* \"#utility.yul\":2383:2500   */\n    tag_67:\n        /* \"#utility.yul\":2492:2493   */\n      0x00\n        /* \"#utility.yul\":2489:2490   */\n      dup1\n        /* \"#utility.yul\":2482:2494   */\n      revert\n        /* \"#utility.yul\":2506:2686   */\n    tag_68:\n        /* \"#utility.yul\":2554:2631   */\n      0x4e487b7100000000000000000000000000000000000000000000000000000000\n        /* \"#utility.yul\":2551:2552   */\n      0x00\n        /* \"#utility.yul\":2544:2632   */\n      mstore\n        /* \"#utility.yul\":2651:2655   */\n      0x41\n        /* \"#utility.yul\":2648:2649   */\n      0x04\n        /* \"#utility.yul\":2641:2656   */\n      mstore\n        /* \"#utility.yul\":2675:2679   */\n      0x24\n        /* \"#utility.yul\":2672:2673   */\n      0x00\n        /* \"#utility.yul\":2665:2680   */\n      revert\n        /* \"#utility.yul\":2692:2973   */\n    tag_69:\n        /* \"#utility.yul\":2775:2802   */\n      tag_123\n        /* \"#utility.yul\":2797:2801   */\n      dup3\n        /* \"#utility.yul\":2775:2802   */\n      tag_64\n      jump\t// in\n    tag_123:\n        /* \"#utility.yul\":2767:2773   */\n      dup2\n        /* \"#utility.yul\":2763:2803   */\n      add\n        /* \"#utility.yul\":2905:2911   */\n      dup2\n        /* \"#utility.yul\":2893:2903   */\n      dup2\n        /* \"#utility.yul\":2890:2912   */\n      lt\n        /* \"#utility.yul\":2869:2887   */\n      0xffffffffffffffff\n        /* \"#utility.yul\":2857:2867   */\n      dup3\n        /* \"#utility.yul\":2854:2888   */\n      gt\n        /* \"#utility.yul\":2851:2913   */\n      or\n        /* \"#utility.yul\":2848:2936   */\n      iszero\n      tag_124\n      jumpi\n        /* \"#utility.yul\":2916:2934   */\n      tag_125\n      tag_68\n      jump\t// in\n    tag_125:\n        /* \"#utility.yul\":2848:2936   */\n    tag_124:\n        /* \"#utility.yul\":2956:2966   */\n      dup1\n        /* \"#utility.yul\":2952:2954   */\n      0x40\n        /* \"#utility.yul\":2945:2967   */\n      mstore\n        /* \"#utility.yul\":2735:2973   */\n      pop\n        /* \"#utility.yul\":2692:2973   */\n      pop\n      pop\n      jump\t// out\n        /* \"#utility.yul\":2979:3108   */\n    tag_70:\n        /* \"#utility.yul\":3013:3019   */\n      0x00\n        /* \"#utility.yul\":3040:3060   */\n      tag_127\n      tag_55\n      jump\t// in\n    tag_127:\n        /* \"#utility.yul\":3030:3060   */\n      swap1\n      pop\n        /* \"#utility.yul\":3069:3102   */\n      tag_128\n        /* \"#utility.yul\":3097:3101   */\n      dup3\n        /* \"#utility.yul\":3089:3095   */\n      dup3\n        /* \"#utility.yul\":3069:3102   */\n      tag_69\n      jump\t// in\n    tag_128:\n        /* \"#utility.yul\":2979:3108   */\n      swap2\n      swap1\n      pop\n      jump\t// out\n        /* \"#utility.yul\":3114:3422   */\n    tag_71:\n        /* \"#utility.yul\":3176:3180   */\n      0x00\n        /* \"#utility.yul\":3266:3284   */\n      0xffffffffffffffff\n        /* \"#utility.yul\":3258:3264   */\n      dup3\n        /* \"#utility.yul\":3255:3285   */\n      gt\n        /* \"#utility.yul\":3252:3308   */\n      iszero\n      tag_130\n      jumpi\n        /* \"#utility.yul\":3288:3306   */\n      tag_131\n      tag_68\n      jump\t// in\n    tag_131:\n        /* \"#utility.yul\":3252:3308   */\n    tag_130:\n        /* \"#utility.yul\":3326:3355   */\n      tag_132\n        /* \"#utility.yul\":3348:3354   */\n      dup3\n        /* \"#utility.yul\":3326:3355   */\n      tag_64\n      jump\t// in\n    tag_132:\n        /* \"#utility.yul\":3318:3355   */\n      swap1\n      pop\n        /* \"#utility.yul\":3410:3414   */\n      0x20\n        /* \"#utility.yul\":3404:3408   */\n      dup2\n        /* \"#utility.yul\":3400:3415   */\n      add\n        /* \"#utility.yul\":3392:3415   */\n      swap1\n      pop\n        /* \"#utility.yul\":3114:3422   */\n      swap2\n      swap1\n      pop\n      jump\t// out\n        /* \"#utility.yul\":3428:3576   */\n    tag_72:\n        /* \"#utility.yul\":3526:3532   */\n      dup3\n        /* \"#utility.yul\":3521:3524   */\n      dup2\n        /* \"#utility.yul\":3516:3519   */\n      dup4\n        /* \"#utility.yul\":3503:3533   */\n      calldatacopy\n        /* \"#utility.yul\":3567:3568   */\n      0x00\n        /* \"#utility.yul\":3558:3564   */\n      dup4\n        /* \"#utility.yul\":3553:3556   */\n      dup4\n        /* \"#utility.yul\":3549:3565   */\n      add\n        /* \"#utility.yul\":3542:3569   */\n      mstore\n        /* \"#utility.yul\":3428:3576   */\n      pop\n      pop\n      pop\n      jump\t// out\n        /* \"#utility.yul\":3582:4007   */\n    tag_73:\n        /* \"#utility.yul\":3660:3665   */\n      0x00\n        /* \"#utility.yul\":3685:3751   */\n      tag_135\n        /* \"#utility.yul\":3701:3750   */\n      tag_136\n        /* \"#utility.yul\":3743:3749   */\n      dup5\n        /* \"#utility.yul\":3701:3750   */\n      tag_71\n      jump\t// in\n    tag_136:\n        /* \"#utility.yul\":3685:3751   */\n      tag_70\n      jump\t// in\n    tag_135:\n        /* \"#utility.yul\":3676:3751   */\n      swap1\n      pop\n        /* \"#utility.yul\":3774:3780   */\n      dup3\n        /* \"#utility.yul\":3767:3772   */\n      dup2\n        /* \"#utility.yul\":3760:3781   */\n      mstore\n        /* \"#utility.yul\":3812:3816   */\n      0x20\n        /* \"#utility.yul\":3805:3810   */\n      dup2\n        /* \"#utility.yul\":3801:3817   */\n      add\n        /* \"#utility.yul\":3850:3853   */\n      dup5\n        /* \"#utility.yul\":3841:3847   */\n      dup5\n        /* \"#utility.yul\":3836:3839   */\n      dup5\n        /* \"#utility.yul\":3832:3848   */\n      add\n        /* \"#utility.yul\":3829:3854   */\n      gt\n        /* \"#utility.yul\":3826:3938   */\n      iszero\n      tag_137\n      jumpi\n        /* \"#utility.yul\":3857:3936   */\n      tag_138\n      tag_67\n      jump\t// in\n    tag_138:\n        /* \"#utility.yul\":3826:3938   */\n    tag_137:\n        /* \"#utility.yul\":3947:4001   */\n      tag_139\n        /* \"#utility.yul\":3994:4000   */\n      dup5\n        /* \"#utility.yul\":3989:3992   */\n      dup3\n        /* \"#utility.yul\":3984:3987   */\n      dup6\n        /* \"#utility.yul\":3947:4001   */\n      tag_72\n      jump\t// in\n    tag_139:\n        /* \"#utility.yul\":3666:4007   */\n      pop\n        /* \"#utility.yul\":3582:4007   */\n      swap4\n      swap3\n      pop\n      pop\n      pop\n      jump\t// out\n        /* \"#utility.yul\":4027:4367   */\n    tag_74:\n        /* \"#utility.yul\":4083:4088   */\n      0x00\n        /* \"#utility.yul\":4132:4135   */\n      dup3\n        /* \"#utility.yul\":4125:4129   */\n      0x1f\n        /* \"#utility.yul\":4117:4123   */\n      dup4\n        /* \"#utility.yul\":4113:4130   */\n      add\n        /* \"#utility.yul\":4109:4136   */\n      slt\n        /* \"#utility.yul\":4099:4221   */\n      tag_141\n      jumpi\n        /* \"#utility.yul\":4140:4219   */\n      tag_142\n      tag_66\n      jump\t// in\n    tag_142:\n        /* \"#utility.yul\":4099:4221   */\n    tag_141:\n        /* \"#utility.yul\":4257:4263   */\n      dup2\n        /* \"#utility.yul\":4244:4264   */\n      calldataload\n        /* \"#utility.yul\":4282:4361   */\n      tag_143\n        /* \"#utility.yul\":4357:4360   */\n      dup5\n        /* \"#utility.yul\":4349:4355   */\n      dup3\n        /* \"#utility.yul\":4342:4346   */\n      0x20\n        /* \"#utility.yul\":4334:4340   */\n      dup7\n        /* \"#utility.yul\":4330:4347   */\n      add\n        /* \"#utility.yul\":4282:4361   */\n      tag_73\n      jump\t// in\n    tag_143:\n        /* \"#utility.yul\":4273:4361   */\n      swap2\n      pop\n        /* \"#utility.yul\":4089:4367   */\n      pop\n        /* \"#utility.yul\":4027:4367   */\n      swap3\n      swap2\n      pop\n      pop\n      jump\t// out\n        /* \"#utility.yul\":4373:4882   */\n    tag_15:\n        /* \"#utility.yul\":4442:4448   */\n      0x00\n        /* \"#utility.yul\":4491:4493   */\n      0x20\n        /* \"#utility.yul\":4479:4488   */\n      dup3\n        /* \"#utility.yul\":4470:4477   */\n      dup5\n        /* \"#utility.yul\":4466:4489   */\n      sub\n        /* \"#utility.yul\":4462:4494   */\n      slt\n        /* \"#utility.yul\":4459:4578   */\n      iszero\n      tag_145\n      jumpi\n        /* \"#utility.yul\":4497:4576   */\n      tag_146\n      tag_56\n      jump\t// in\n    tag_146:\n        /* \"#utility.yul\":4459:4578   */\n    tag_145:\n        /* \"#utility.yul\":4645:4646   */\n      0x00\n        /* \"#utility.yul\":4634:4643   */\n      dup3\n        /* \"#utility.yul\":4630:4647   */\n      add\n        /* \"#utility.yul\":4617:4648   */\n      calldataload\n        /* \"#utility.yul\":4675:4693   */\n      0xffffffffffffffff\n        /* \"#utility.yul\":4667:4673   */\n      dup2\n        /* \"#utility.yul\":4664:4694   */\n      gt\n        /* \"#utility.yul\":4661:4778   */\n      iszero\n      tag_147\n      jumpi\n        /* \"#utility.yul\":4697:4776   */\n      tag_148\n      tag_57\n      jump\t// in\n    tag_148:\n        /* \"#utility.yul\":4661:4778   */\n    tag_147:\n        /* \"#utility.yul\":4802:4865   */\n      tag_149\n        /* \"#utility.yul\":4857:4864   */\n      dup5\n        /* \"#utility.yul\":4848:4854   */\n      dup3\n        /* \"#utility.yul\":4837:4846   */\n      dup6\n        /* \"#utility.yul\":4833:4855   */\n      add\n        /* \"#utility.yul\":4802:4865   */\n      tag_74\n      jump\t// in\n    tag_149:\n        /* \"#utility.yul\":4792:4865   */\n      swap2\n      pop\n        /* \"#utility.yul\":4588:4875   */\n      pop\n        /* \"#utility.yul\":4373:4882   */\n      swap3\n      swap2\n      pop\n      pop\n      jump\t// out\n        /* \"#utility.yul\":4888:5542   */\n    tag_22:\n        /* \"#utility.yul\":4966:4972   */\n      0x00\n        /* \"#utility.yul\":4974:4980   */\n      dup1\n        /* \"#utility.yul\":5023:5025   */\n      0x40\n        /* \"#utility.yul\":5011:5020   */\n      dup4\n        /* \"#utility.yul\":5002:5009   */\n      dup6\n        /* \"#utility.yul\":4998:5021   */\n      sub\n        /* \"#utility.yul\":4994:5026   */\n      slt\n        /* \"#utility.yul\":4991:5110   */\n      iszero\n      tag_151\n      jumpi\n        /* \"#utility.yul\":5029:5108   */\n      tag_152\n      tag_56\n      jump\t// in\n    tag_152:\n        /* \"#utility.yul\":4991:5110   */\n    tag_151:\n        /* \"#utility.yul\":5149:5150   */\n      0x00\n        /* \"#utility.yul\":5174:5227   */\n      tag_153\n        /* \"#utility.yul\":5219:5226   */\n      dup6\n        /* \"#utility.yul\":5210:5216   */\n      dup3\n        /* \"#utility.yul\":5199:5208   */\n      dup7\n        /* \"#utility.yul\":5195:5217   */\n      add\n        /* \"#utility.yul\":5174:5227   */\n      tag_60\n      jump\t// in\n    tag_153:\n        /* \"#utility.yul\":5164:5227   */\n      swap3\n      pop\n        /* \"#utility.yul\":5120:5237   */\n      pop\n        /* \"#utility.yul\":5304:5306   */\n      0x20\n        /* \"#utility.yul\":5293:5302   */\n      dup4\n        /* \"#utility.yul\":5289:5307   */\n      add\n        /* \"#utility.yul\":5276:5308   */\n      calldataload\n        /* \"#utility.yul\":5335:5353   */\n      0xffffffffffffffff\n        /* \"#utility.yul\":5327:5333   */\n      dup2\n        /* \"#utility.yul\":5324:5354   */\n      gt\n        /* \"#utility.yul\":5321:5438   */\n      iszero\n      tag_154\n      jumpi\n        /* \"#utility.yul\":5357:5436   */\n      tag_155\n      tag_57\n      jump\t// in\n    tag_155:\n        /* \"#utility.yul\":5321:5438   */\n    tag_154:\n        /* \"#utility.yul\":5462:5525   */\n      tag_156\n        /* \"#utility.yul\":5517:5524   */\n      dup6\n        /* \"#utility.yul\":5508:5514   */\n      dup3\n        /* \"#utility.yul\":5497:5506   */\n      dup7\n        /* \"#utility.yul\":5493:5515   */\n      add\n        /* \"#utility.yul\":5462:5525   */\n      tag_74\n      jump\t// in\n    tag_156:\n        /* \"#utility.yul\":5452:5525   */\n      swap2\n      pop\n        /* \"#utility.yul\":5247:5535   */\n      pop\n        /* \"#utility.yul\":4888:5542   */\n      swap3\n      pop\n      swap3\n      swap1\n      pop\n      jump\t// out\n        /* \"#utility.yul\":5548:5712   */\n    tag_75:\n        /* \"#utility.yul\":5688:5704   */\n      0x44617461206e6f7420666f756e64000000000000000000000000000000000000\n        /* \"#utility.yul\":5684:5685   */\n      0x00\n        /* \"#utility.yul\":5676:5682   */\n      dup3\n        /* \"#utility.yul\":5672:5686   */\n      add\n        /* \"#utility.yul\":5665:5705   */\n      mstore\n        /* \"#utility.yul\":5548:5712   */\n      pop\n      jump\t// out\n        /* \"#utility.yul\":5718:6084   */\n    tag_76:\n        /* \"#utility.yul\":5860:5863   */\n      0x00\n        /* \"#utility.yul\":5881:5948   */\n      tag_159\n        /* \"#utility.yul\":5945:5947   */\n      0x0e\n        /* \"#utility.yul\":5940:5943   */\n      dup4\n        /* \"#utility.yul\":5881:5948   */\n      tag_62\n      jump\t// in\n    tag_159:\n        /* \"#utility.yul\":5874:5948   */\n      swap2\n      pop\n        /* \"#utility.yul\":5957:6050   */\n      tag_160\n        /* \"#utility.yul\":6046:6049   */\n      dup3\n        /* \"#utility.yul\":5957:6050   */\n      tag_75\n      jump\t// in\n    tag_160:\n        /* \"#utility.yul\":6075:6077   */\n      0x20\n        /* \"#utility.yul\":6070:6073   */\n      dup3\n        /* \"#utility.yul\":6066:6078   */\n      add\n        /* \"#utility.yul\":6059:6078   */\n      swap1\n      pop\n        /* \"#utility.yul\":5718:6084   */\n      swap2\n      swap1\n      pop\n      jump\t// out\n        /* \"#utility.yul\":6090:6509   */\n    tag_27:\n        /* \"#utility.yul\":6256:6260   */\n      0x00\n        /* \"#utility.yul\":6294:6296   */\n      0x20\n        /* \"#utility.yul\":6283:6292   */\n      dup3\n        /* \"#utility.yul\":6279:6297   */\n      add\n        /* \"#utility.yul\":6271:6297   */\n      swap1\n      pop\n        /* \"#utility.yul\":6343:6352   */\n      dup2\n        /* \"#utility.yul\":6337:6341   */\n      dup2\n        /* \"#utility.yul\":6333:6353   */\n      sub\n        /* \"#utility.yul\":6329:6330   */\n      0x00\n        /* \"#utility.yul\":6318:6327   */\n      dup4\n        /* \"#utility.yul\":6314:6331   */\n      add\n        /* \"#utility.yul\":6307:6354   */\n      mstore\n        /* \"#utility.yul\":6371:6502   */\n      tag_162\n        /* \"#utility.yul\":6497:6501   */\n      dup2\n        /* \"#utility.yul\":6371:6502   */\n      tag_76\n      jump\t// in\n    tag_162:\n        /* \"#utility.yul\":6363:6502   */\n      swap1\n      pop\n        /* \"#utility.yul\":6090:6509   */\n      swap2\n      swap1\n      pop\n      jump\t// out\n        /* \"#utility.yul\":6515:6695   */\n    tag_77:\n        /* \"#utility.yul\":6563:6640   */\n      0x4e487b7100000000000000000000000000000000000000000000000000000000\n        /* \"#utility.yul\":6560:6561   */\n      0x00\n        /* \"#utility.yul\":6553:6641   */\n      mstore\n        /* \"#utility.yul\":6660:6664   */\n      0x22\n        /* \"#utility.yul\":6657:6658   */\n      0x04\n        /* \"#utility.yul\":6650:6665   */\n      mstore\n        /* \"#utility.yul\":6684:6688   */\n      0x24\n        /* \"#utility.yul\":6681:6682   */\n      0x00\n        /* \"#utility.yul\":6674:6689   */\n      revert\n        /* \"#utility.yul\":6701:7021   */\n    tag_29:\n        /* \"#utility.yul\":6745:6751   */\n      0x00\n        /* \"#utility.yul\":6782:6783   */\n      0x02\n        /* \"#utility.yul\":6776:6780   */\n      dup3\n        /* \"#utility.yul\":6772:6784   */\n      div\n        /* \"#utility.yul\":6762:6784   */\n      swap1\n      pop\n        /* \"#utility.yul\":6829:6830   */\n      0x01\n        /* \"#utility.yul\":6823:6827   */\n      dup3\n        /* \"#utility.yul\":6819:6831   */\n      and\n        /* \"#utility.yul\":6850:6868   */\n      dup1\n        /* \"#utility.yul\":6840:6921   */\n      tag_165\n      jumpi\n        /* \"#utility.yul\":6906:6910   */\n      0x7f\n        /* \"#utility.yul\":6898:6904   */\n      dup3\n        /* \"#utility.yul\":6894:6911   */\n      and\n        /* \"#utility.yul\":6884:6911   */\n      swap2\n      pop\n        /* \"#utility.yul\":6840:6921   */\n    tag_165:\n        /* \"#utility.yul\":6968:6970   */\n      0x20\n        /* \"#utility.yul\":6960:6966   */\n      dup3\n        /* \"#utility.yul\":6957:6971   */\n      lt\n        /* \"#utility.yul\":6937:6955   */\n      dup2\n        /* \"#utility.yul\":6934:6972   */\n      sub\n        /* \"#utility.yul\":6931:7015   */\n      tag_166\n      jumpi\n        /* \"#utility.yul\":6987:7005   */\n      tag_167\n      tag_77\n      jump\t// in\n    tag_167:\n        /* \"#utility.yul\":6931:7015   */\n    tag_166:\n        /* \"#utility.yul\":6752:7021   */\n      pop\n        /* \"#utility.yul\":6701:7021   */\n      swap2\n      swap1\n      pop\n      jump\t// out\n        /* \"#utility.yul\":7027:7168   */\n    tag_78:\n        /* \"#utility.yul\":7076:7080   */\n      0x00\n        /* \"#utility.yul\":7099:7102   */\n      dup2\n        /* \"#utility.yul\":7091:7102   */\n      swap1\n      pop\n        /* \"#utility.yul\":7122:7125   */\n      dup2\n        /* \"#utility.yul\":7119:7120   */\n      0x00\n        /* \"#utility.yul\":7112:7126   */\n      mstore\n        /* \"#utility.yul\":7156:7160   */\n      0x20\n        /* \"#utility.yul\":7153:7154   */\n      0x00\n        /* \"#utility.yul\":7143:7161   */\n      keccak256\n        /* \"#utility.yul\":7135:7161   */\n      swap1\n      pop\n        /* \"#utility.yul\":7027:7168   */\n      swap2\n      swap1\n      pop\n      jump\t// out\n        /* \"#utility.yul\":7174:7267   */\n    tag_79:\n        /* \"#utility.yul\":7211:7217   */\n      0x00\n        /* \"#utility.yul\":7258:7260   */\n      0x20\n        /* \"#utility.yul\":7253:7255   */\n      0x1f\n        /* \"#utility.yul\":7246:7251   */\n      dup4\n        /* \"#utility.yul\":7242:7256   */\n      add\n        /* \"#utility.yul\":7238:7261   */\n      div\n        /* \"#utility.yul\":7228:7261   */\n      swap1\n      pop\n        /* \"#utility.yul\":7174:7267   */\n      swap2\n      swap1\n      pop\n      jump\t// out\n        /* \"#utility.yul\":7273:7380   */\n    tag_80:\n        /* \"#utility.yul\":7317:7325   */\n      0x00\n        /* \"#utility.yul\":7367:7372   */\n      dup3\n        /* \"#utility.yul\":7361:7365   */\n      dup3\n        /* \"#utility.yul\":7357:7373   */\n      shl\n        /* \"#utility.yul\":7336:7373   */\n      swap1\n      pop\n        /* \"#utility.yul\":7273:7380   */\n      swap3\n      swap2\n      pop\n      pop\n      jump\t// out\n        /* \"#utility.yul\":7386:7779   */\n    tag_81:\n        /* \"#utility.yul\":7455:7461   */\n      0x00\n        /* \"#utility.yul\":7505:7506   */\n      0x08\n        /* \"#utility.yul\":7493:7503   */\n      dup4\n        /* \"#utility.yul\":7489:7507   */\n      mul\n        /* \"#utility.yul\":7528:7625   */\n      tag_172\n        /* \"#utility.yul\":7558:7624   */\n      0xffffffffffffffffffffffffffffffffffffffffffffffffffffffffffffffff\n        /* \"#utility.yul\":7547:7556   */\n      dup3\n        /* \"#utility.yul\":7528:7625   */\n      tag_80\n      jump\t// in\n    tag_172:\n        /* \"#utility.yul\":7646:7685   */\n      tag_173\n        /* \"#utility.yul\":7676:7684   */\n      dup7\n        /* \"#utility.yul\":7665:7674   */\n      dup4\n        /* \"#utility.yul\":7646:7685   */\n      tag_80\n      jump\t// in\n    tag_173:\n        /* \"#utility.yul\":7634:7685   */\n      swap6\n      pop\n        /* \"#utility.yul\":7718:7722   */\n      dup1\n        /* \"#utility.yul\":7714:7723   */\n      not\n        /* \"#utility.yul\":7707:7712   */\n      dup5\n        /* \"#utility.yul\":7703:7724   */\n      and\n        /* \"#utility.yul\":7694:7724   */\n      swap4\n      pop\n        /* \"#utility.yul\":7767:7771   */\n      dup1\n        /* \"#utility.yul\":7757:7765   */\n      dup7\n        /* \"#utility.yul\":7753:7772   */\n      and\n        /* \"#utility.yul\":7746:7751   */\n      dup5\n        /* \"#utility.yul\":7743:7773   */\n      or\n        /* \"#utility.yul\":7733:7773   */\n      swap3\n      pop\n        /* \"#utility.yul\":7462:7779   */\n      pop\n      pop\n        /* \"#utility.yul\":7386:7779   */\n      swap4\n      swap3\n      pop\n      pop\n      pop\n      jump\t// out\n        /* \"#utility.yul\":7785:7845   */\n    tag_82:\n        /* \"#utility.yul\":7813:7816   */\n      0x00\n        /* \"#utility.yul\":7834:7839   */\n      dup2\n        /* \"#utility.yul\":7827:7839   */\n      swap1\n      pop\n        /* \"#utility.yul\":7785:7845   */\n      swap2\n      swap1\n      pop\n      jump\t// out\n        /* \"#utility.yul\":7851:7993   */\n    tag_83:\n        /* \"#utility.yul\":7901:7910   */\n      0x00\n        /* \"#utility.yul\":7934:7987   */\n      tag_176\n        /* \"#utility.yul\":7952:7986   */\n      tag_177\n        /* \"#utility.yul\":7961:7985   */\n      tag_178\n        /* \"#utility.yul\":7979:7984   */\n      dup5\n        /* \"#utility.yul\":7961:7985   */\n      tag_58\n      jump\t// in\n    tag_178:\n        /* \"#utility.yul\":7952:7986   */\n      tag_82\n      jump\t// in\n    tag_177:\n        /* \"#utility.yul\":7934:7987   */\n      tag_58\n      jump\t// in\n    tag_176:\n        /* \"#utility.yul\":7921:7987   */\n      swap1\n      pop\n        /* \"#utility.yul\":7851:7993   */\n      swap2\n      swap1\n      pop\n      jump\t// out\n        /* \"#utility.yul\":7999:8074   */\n    tag_84:\n        /* \"#utility.yul\":8042:8045   */\n      0x00\n        /* \"#utility.yul\":8063:8068   */\n      dup2\n        /* \"#utility.yul\":8056:8068   */\n      swap1\n      pop\n        /* \"#utility.yul\":7999:8074   */\n      swap2\n      swap1\n      pop\n      jump\t// out\n        /* \"#utility.yul\":8080:8349   */\n    tag_85:\n        /* \"#utility.yul\":8190:8229   */\n      tag_181\n        /* \"#utility.yul\":8221:8228   */\n      dup4\n        /* \"#utility.yul\":8190:8229   */\n      tag_83\n      jump\t// in\n    tag_181:\n        /* \"#utility.yul\":8251:8342   */\n      tag_182\n        /* \"#utility.yul\":8300:8341   */\n      tag_183\n        /* \"#utility.yul\":8324:8340   */\n      dup3\n        /* \"#utility.yul\":8300:8341   */\n      tag_84\n      jump\t// in\n    tag_183:\n        /* \"#utility.yul\":8292:8298   */\n      dup5\n        /* \"#utility.yul\":8285:8289   */\n      dup5\n        /* \"#utility.yul\":8279:8290   */\n      sload\n        /* \"#utility.yul\":8251:8342   */\n      tag_81\n      jump\t// in\n    tag_182:\n        /* \"#utility.yul\":8245:8249   */\n      dup3\n        /* \"#utility.yul\":8238:8343   */\n      sstore\n        /* \"#utility.yul\":8156:8349   */\n      pop\n        /* \"#utility.yul\":8080:8349   */\n      pop\n      pop\n      pop\n      jump\t// out\n        /* \"#utility.yul\":8355:8428   */\n    tag_86:\n        /* \"#utility.yul\":8400:8403   */\n      0x00\n        /* \"#utility.yul\":8355:8428   */\n      swap1\n      jump\t// out\n        /* \"#utility.yul\":8434:8623   */\n    tag_87:\n        /* \"#utility.yul\":8511:8543   */\n      tag_186\n      tag_86\n      jump\t// in\n    tag_186:\n        /* \"#utility.yul\":8552:8617   */\n      tag_187\n        /* \"#utility.yul\":8610:8616   */\n      dup2\n        /* \"#utility.yul\":8602:8608   */\n      dup5\n        /* \"#utility.yul\":8596:8600   */\n      dup5\n        /* \"#utility.yul\":8552:8617   */\n      tag_85\n      jump\t// in\n    tag_187:\n        /* \"#utility.yul\":8487:8623   */\n      pop\n        /* \"#utility.yul\":8434:8623   */\n      pop\n      pop\n      jump\t// out\n        /* \"#utility.yul\":8629:8815   */\n    tag_88:\n        /* \"#utility.yul\":8689:8809   */\n    tag_189:\n        /* \"#utility.yul\":8706:8709   */\n      dup2\n        /* \"#utility.yul\":8699:8704   */\n      dup2\n        /* \"#utility.yul\":8696:8710   */\n      lt\n        /* \"#utility.yul\":8689:8809   */\n      iszero\n      tag_191\n      jumpi\n        /* \"#utility.yul\":8760:8799   */\n      tag_192\n        /* \"#utility.yul\":8797:8798   */\n      0x00\n        /* \"#utility.yul\":8790:8795   */\n      dup3\n        /* \"#utility.yul\":8760:8799   */\n      tag_87\n      jump\t// in\n    tag_192:\n        /* \"#utility.yul\":8733:8734   */\n      0x01\n        /* \"#utility.yul\":8726:8731   */\n      dup2\n        /* \"#utility.yul\":8722:8735   */\n      add\n        /* \"#utility.yul\":8713:8735   */\n      swap1\n      pop\n        /* \"#utility.yul\":8689:8809   */\n      jump(tag_189)\n    tag_191:\n        /* \"#utility.yul\":8629:8815   */\n      pop\n      pop\n      jump\t// out\n        /* \"#utility.yul\":8821:9364   */\n    tag_89:\n        /* \"#utility.yul\":8922:8924   */\n      0x1f\n        /* \"#utility.yul\":8917:8920   */\n      dup3\n        /* \"#utility.yul\":8914:8925   */\n      gt\n        /* \"#utility.yul\":8911:9357   */\n      iszero\n      tag_194\n      jumpi\n        /* \"#utility.yul\":8956:8994   */\n      tag_195\n        /* \"#utility.yul\":8988:8993   */\n      dup2\n        /* \"#utility.yul\":8956:8994   */\n      tag_78\n      jump\t// in\n    tag_195:\n        /* \"#utility.yul\":9040:9069   */\n      tag_196\n        /* \"#utility.yul\":9058:9068   */\n      dup5\n        /* \"#utility.yul\":9040:9069   */\n      tag_79\n      jump\t// in\n    tag_196:\n        /* \"#utility.yul\":9030:9038   */\n      dup2\n        /* \"#utility.yul\":9026:9070   */\n      add\n        /* \"#utility.yul\":9223:9225   */\n      0x20\n        /* \"#utility.yul\":9211:9221   */\n      dup6\n        /* \"#utility.yul\":9208:9226   */\n      lt\n        /* \"#utility.yul\":9205:9254   */\n      iszero\n      tag_197\n      jumpi\n        /* \"#utility.yul\":9244:9252   */\n      dup2\n        /* \"#utility.yul\":9229:9252   */\n      swap1\n      pop\n        /* \"#utility.yul\":9205:9254   */\n    tag_197:\n        /* \"#utility.yul\":9267:9347   */\n      tag_198\n        /* \"#utility.yul\":9323:9345   */\n      tag_199\n        /* \"#utility.yul\":9341:9344   */\n      dup6\n        /* \"#utility.yul\":9323:9345   */\n      tag_79\n      jump\t// in\n    tag_199:\n        /* \"#utility.yul\":9313:9321   */\n      dup4\n        /* \"#utility.yul\":9309:9346   */\n      add\n        /* \"#utility.yul\":9296:9307   */\n      dup3\n        /* \"#utility.yul\":9267:9347   */\n      tag_88\n      jump\t// in\n    tag_198:\n        /* \"#utility.yul\":8926:9357   */\n      pop\n      pop\n        /* \"#utility.yul\":8911:9357   */\n    tag_194:\n        /* \"#utility.yul\":8821:9364   */\n      pop\n      pop\n      pop\n      jump\t// out\n        /* \"#utility.yul\":9370:9487   */\n    tag_90:\n        /* \"#utility.yul\":9424:9432   */\n      0x00\n        /* \"#utility.yul\":9474:9479   */\n      dup3\n        /* \"#utility.yul\":9468:9472   */\n      dup3\n        /* \"#utility.yul\":9464:9480   */\n      shr\n        /* \"#utility.yul\":9443:9480   */\n      swap1\n      pop\n        /* \"#utility.yul\":9370:9487   */\n      swap3\n      swap2\n      pop\n      pop\n      jump\t// out\n        /* \"#utility.yul\":9493:9662   */\n    tag_91:\n        /* \"#utility.yul\":9537:9543   */\n      0x00\n        /* \"#utility.yul\":9570:9621   */\n      tag_202\n        /* \"#utility.yul\":9618:9619   */\n      0x00\n        /* \"#utility.yul\":9614:9620   */\n      not\n        /* \"#utility.yul\":9606:9611   */\n      dup5\n        /* \"#utility.yul\":9603:9604   */\n      0x08\n        /* \"#utility.yul\":9599:9612   */\n      mul\n        /* \"#utility.yul\":9570:9621   */\n      tag_90\n      jump\t// in\n    tag_202:\n        /* \"#utility.yul\":9566:9622   */\n      not\n        /* \"#utility.yul\":9651:9655   */\n      dup1\n        /* \"#utility.yul\":9645:9649   */\n      dup4\n        /* \"#utility.yul\":9641:9656   */\n      and\n        /* \"#utility.yul\":9631:9656   */\n      swap2\n      pop\n        /* \"#utility.yul\":9544:9662   */\n      pop\n        /* \"#utility.yul\":9493:9662   */\n      swap3\n      swap2\n      pop\n      pop\n      jump\t// out\n        /* \"#utility.yul\":9667:9962   */\n    tag_92:\n        /* \"#utility.yul\":9743:9747   */\n      0x00\n        /* \"#utility.yul\":9889:9918   */\n      tag_204\n        /* \"#utility.yul\":9914:9917   */\n      dup4\n        /* \"#utility.yul\":9908:9912   */\n      dup4\n        /* \"#utility.yul\":9889:9918   */\n      tag_91\n      jump\t// in\n    tag_204:\n        /* \"#utility.yul\":9881:9918   */\n      swap2\n      pop\n        /* \"#utility.yul\":9951:9954   */\n      dup3\n        /* \"#utility.yul\":9948:9949   */\n      0x02\n        /* \"#utility.yul\":9944:9955   */\n      mul\n        /* \"#utility.yul\":9938:9942   */\n      dup3\n        /* \"#utility.yul\":9935:9956   */\n      or\n        /* \"#utility.yul\":9927:9956   */\n      swap1\n      pop\n        /* \"#utility.yul\":9667:9962   */\n      swap3\n      swap2\n      pop\n      pop\n      jump\t// out\n        /* \"#utility.yul\":9967:11362   */\n    tag_36:\n        /* \"#utility.yul\":10084:10121   */\n      tag_206\n        /* \"#utility.yul\":10117:10120   */\n      dup3\n        /* \"#utility.yul\":10084:10121   */\n      tag_61\n      jump\t// in\n    tag_206:\n        /* \"#utility.yul\":10186:10204   */\n      0xffffffffffffffff\n        /* \"#utility.yul\":10178:10184   */\n      dup2\n        /* \"#utility.yul\":10175:10205   */\n      gt\n        /* \"#utility.yul\":10172:10228   */\n      iszero\n      tag_207\n      jumpi\n        /* \"#utility.yul\":10208:10226   */\n      tag_208\n      tag_68\n      jump\t// in\n    tag_208:\n        /* \"#utility.yul\":10172:10228   */\n    tag_207:\n        /* \"#utility.yul\":10252:10290   */\n      tag_209\n        /* \"#utility.yul\":10284:10288   */\n      dup3\n        /* \"#utility.yul\":10278:10289   */\n      sload\n        /* \"#utility.yul\":10252:10290   */\n      tag_29\n      jump\t// in\n    tag_209:\n        /* \"#utility.yul\":10337:10404   */\n      tag_210\n        /* \"#utility.yul\":10397:10403   */\n      dup3\n        /* \"#utility.yul\":10389:10395   */\n      dup3\n        /* \"#utility.yul\":10383:10387   */\n      dup6\n        /* \"#utility.yul\":10337:10404   */\n      tag_89\n      jump\t// in\n    tag_210:\n        /* \"#utility.yul\":10431:10432   */\n      0x00\n        /* \"#utility.yul\":10455:10459   */\n      0x20\n        /* \"#utility.yul\":10442:10459   */\n      swap1\n      pop\n        /* \"#utility.yul\":10487:10489   */\n      0x1f\n        /* \"#utility.yul\":10479:10485   */\n      dup4\n        /* \"#utility.yul\":10476:10490   */\n      gt\n        /* \"#utility.yul\":10504:10505   */\n      0x01\n        /* \"#utility.yul\":10499:11117   */\n      dup2\n      eq\n      tag_212\n      jumpi\n        /* \"#utility.yul\":11161:11162   */\n      0x00\n        /* \"#utility.yul\":11178:11184   */\n      dup5\n        /* \"#utility.yul\":11175:11252   */\n      iszero\n      tag_213\n      jumpi\n        /* \"#utility.yul\":11227:11236   */\n      dup3\n        /* \"#utility.yul\":11222:11225   */\n      dup8\n        /* \"#utility.yul\":11218:11237   */\n      add\n        /* \"#utility.yul\":11212:11238   */\n      mload\n        /* \"#utility.yul\":11203:11238   */\n      swap1\n      pop\n        /* \"#utility.yul\":11175:11252   */\n    tag_213:\n        /* \"#utility.yul\":11278:11345   */\n      tag_214\n        /* \"#utility.yul\":11338:11344   */\n      dup6\n        /* \"#utility.yul\":11331:11336   */\n      dup3\n        /* \"#utility.yul\":11278:11345   */\n      tag_92\n      jump\t// in\n    tag_214:\n        /* \"#utility.yul\":11272:11276   */\n      dup7\n        /* \"#utility.yul\":11265:11346   */\n      sstore\n        /* \"#utility.yul\":11134:11356   */\n      pop\n        /* \"#utility.yul\":10469:11356   */\n      jump(tag_211)\n        /* \"#utility.yul\":10499:11117   */\n    tag_212:\n        /* \"#utility.yul\":10551:10555   */\n      0x1f\n        /* \"#utility.yul\":10547:10556   */\n      not\n        /* \"#utility.yul\":10539:10545   */\n      dup5\n        /* \"#utility.yul\":10535:10557   */\n      and\n        /* \"#utility.yul\":10585:10622   */\n      tag_215\n        /* \"#utility.yul\":10617:10621   */\n      dup7\n        /* \"#utility.yul\":10585:10622   */\n      tag_78\n      jump\t// in\n    tag_215:\n        /* \"#utility.yul\":10644:10645   */\n      0x00\n        /* \"#utility.yul\":10658:10866   */\n    tag_216:\n        /* \"#utility.yul\":10672:10679   */\n      dup3\n        /* \"#utility.yul\":10669:10670   */\n      dup2\n        /* \"#utility.yul\":10666:10680   */\n      lt\n        /* \"#utility.yul\":10658:10866   */\n      iszero\n      tag_218\n      jumpi\n        /* \"#utility.yul\":10751:10760   */\n      dup5\n        /* \"#utility.yul\":10746:10749   */\n      dup10\n        /* \"#utility.yul\":10742:10761   */\n      add\n        /* \"#utility.yul\":10736:10762   */\n      mload\n        /* \"#utility.yul\":10728:10734   */\n      dup3\n        /* \"#utility.yul\":10721:10763   */\n      sstore\n        /* \"#utility.yul\":10802:10803   */\n      0x01\n        /* \"#utility.yul\":10794:10800   */\n      dup3\n        /* \"#utility.yul\":10790:10804   */\n      add\n        /* \"#utility.yul\":10780:10804   */\n      swap2\n      pop\n        /* \"#utility.yul\":10849:10851   */\n      0x20\n        /* \"#utility.yul\":10838:10847   */\n      dup6\n        /* \"#utility.yul\":10834:10852   */\n      add\n        /* \"#utility.yul\":10821:10852   */\n      swap5\n      pop\n        /* \"#utility.yul\":10695:10699   */\n      0x20\n        /* \"#utility.yul\":10692:10693   */\n      dup2\n        /* \"#utility.yul\":10688:10700   */\n      add\n        /* \"#utility.yul\":10683:10700   */\n      swap1\n      pop\n        /* \"#utility.yul\":10658:10866   */\n      jump(tag_216)\n    tag_218:\n        /* \"#utility.yul\":10894:10900   */\n      dup7\n        /* \"#utility.yul\":10885:10892   */\n      dup4\n        /* \"#utility.yul\":10882:10901   */\n      lt\n        /* \"#utility.yul\":10879:11058   */\n      iszero\n      tag_219\n      jumpi\n        /* \"#utility.yul\":10952:10961   */\n      dup5\n        /* \"#utility.yul\":10947:10950   */\n      dup10\n        /* \"#utility.yul\":10943:10962   */\n      add\n        /* \"#utility.yul\":10937:10963   */\n      mload\n        /* \"#utility.yul\":10995:11043   */\n      tag_220\n        /* \"#utility.yul\":11037:11041   */\n      0x1f\n        /* \"#utility.yul\":11029:11035   */\n      dup10\n        /* \"#utility.yul\":11025:11042   */\n      and\n        /* \"#utility.yul\":11014:11023   */\n      dup3\n        /* \"#utility.yul\":10995:11043   */\n      tag_91\n      jump\t// in\n    tag_220:\n        /* \"#utility.yul\":10987:10993   */\n      dup4\n        /* \"#utility.yul\":10980:11044   */\n      sstore\n        /* \"#utility.yul\":10902:11058   */\n      pop\n        /* \"#utility.yul\":10879:11058   */\n    tag_219:\n        /* \"#utility.yul\":11104:11105   */\n      0x01\n        /* \"#utility.yul\":11100:11101   */\n      0x02\n        /* \"#utility.yul\":11092:11098   */\n      dup9\n        /* \"#utility.yul\":11088:11102   */\n      mul\n        /* \"#utility.yul\":11084:11106   */\n      add\n        /* \"#utility.yul\":11078:11082   */\n      dup9\n        /* \"#utility.yul\":11071:11107   */\n      sstore\n        /* \"#utility.yul\":10506:11117   */\n      pop\n      pop\n      pop\n        /* \"#utility.yul\":10469:11356   */\n    tag_211:\n      pop\n        /* \"#utility.yul\":10059:11362   */\n      pop\n      pop\n      pop\n        /* \"#utility.yul\":9967:11362   */\n      pop\n      pop\n      jump\t// out\n        /* \"#utility.yul\":11368:11548   */\n    tag_93:\n        /* \"#utility.yul\":11416:11493   */\n      0x4e487b7100000000000000000000000000000000000000000000000000000000\n        /* \"#utility.yul\":11413:11414   */\n      0x00\n        /* \"#utility.yul\":11406:11494   */\n      mstore\n        /* \"#utility.yul\":11513:11517   */\n      0x11\n        /* \"#utility.yul\":11510:11511   */\n      0x04\n        /* \"#utility.yul\":11503:11518   */\n      mstore\n        /* \"#utility.yul\":11537:11541   */\n      0x24\n        /* \"#utility.yul\":11534:11535   */\n      0x00\n        /* \"#utility.yul\":11527:11542   */\n      revert\n        /* \"#utility.yul\":11554:11787   */\n    tag_38:\n        /* \"#utility.yul\":11593:11596   */\n      0x00\n        /* \"#utility.yul\":11616:11640   */\n      tag_223\n        /* \"#utility.yul\":11634:11639   */\n      dup3\n        /* \"#utility.yul\":11616:11640   */\n      tag_58\n      jump\t// in\n    tag_223:\n        /* \"#utility.yul\":11607:11640   */\n      swap2\n      pop\n        /* \"#utility.yul\":11662:11728   */\n      0xffffffffffffffffffffffffffffffffffffffffffffffffffffffffffffffff\n        /* \"#utility.yul\":11655:11660   */\n      dup3\n        /* \"#utility.yul\":11652:11729   */\n      sub\n        /* \"#utility.yul\":11649:11752   */\n      tag_224\n      jumpi\n        /* \"#utility.yul\":11732:11750   */\n      tag_225\n      tag_93\n      jump\t// in\n    tag_225:\n        /* \"#utility.yul\":11649:11752   */\n    tag_224:\n        /* \"#utility.yul\":11779:11780   */\n      0x01\n        /* \"#utility.yul\":11772:11777   */\n      dup3\n        /* \"#utility.yul\":11768:11781   */\n      add\n        /* \"#utility.yul\":11761:11781   */\n      swap1\n      pop\n        /* \"#utility.yul\":11554:11787   */\n      swap2\n      swap1\n      pop\n      jump\t// out\n\n    auxdata: 0xa2646970667358221220692305277f22e3530110a93367fae22791f543e6e01a43a14fb9659057b724bc64736f6c634300081a0033\n}\n",
				"bytecode": {
					"linkReferences": {},
					"object": "6080604052348015600e575f80fd5b506109b78061001c5f395ff3fe608060405234801561000f575f80fd5b506004361061004a575f3560e01c80630178fe3f1461004e578063134bc8761461007e5780634fe8b4c11461009a57806389a8e2a7146100b6575b5f80fd5b61006860048036038101906100639190610354565b6100d2565b60405161007591906103ef565b60405180910390f35b6100986004803603810190610093919061053b565b6101b6565b005b6100b460048036038101906100af9190610354565b6101f0565b005b6100d060048036038101906100cb9190610582565b610252565b005b60606001548210610118576040517f08c379a000000000000000000000000000000000000000000000000000000000815260040161010f90610626565b60405180910390fd5b5f808381526020019081526020015f20805461013390610671565b80601f016020809104026020016040519081016040528092919081815260200182805461015f90610671565b80156101aa5780601f10610181576101008083540402835291602001916101aa565b820191905f5260205f20905b81548152906001019060200180831161018d57829003601f168201915b50505050509050919050565b805f8060015481526020019081526020015f2090816101d5919061083e565b5060015f8154809291906101e89061093a565b919050555050565b6001548110610234576040517f08c379a000000000000000000000000000000000000000000000000000000000815260040161022b90610626565b60405180910390fd5b5f808281526020019081526020015f205f61024f91906102b8565b50565b6001548210610296576040517f08c379a000000000000000000000000000000000000000000000000000000000815260040161028d90610626565b60405180910390fd5b805f808481526020019081526020015f2090816102b3919061083e565b505050565b5080546102c490610671565b5f825580601f106102d557506102f2565b601f0160209004905f5260205f20908101906102f191906102f5565b5b50565b5b8082111561030c575f815f9055506001016102f6565b5090565b5f604051905090565b5f80fd5b5f80fd5b5f819050919050565b61033381610321565b811461033d575f80fd5b50565b5f8135905061034e8161032a565b92915050565b5f6020828403121561036957610368610319565b5b5f61037684828501610340565b91505092915050565b5f81519050919050565b5f82825260208201905092915050565b8281835e5f83830152505050565b5f601f19601f8301169050919050565b5f6103c18261037f565b6103cb8185610389565b93506103db818560208601610399565b6103e4816103a7565b840191505092915050565b5f6020820190508181035f83015261040781846103b7565b905092915050565b5f80fd5b5f80fd5b7f4e487b71000000000000000000000000000000000000000000000000000000005f52604160045260245ffd5b61044d826103a7565b810181811067ffffffffffffffff8211171561046c5761046b610417565b5b80604052505050565b5f61047e610310565b905061048a8282610444565b919050565b5f67ffffffffffffffff8211156104a9576104a8610417565b5b6104b2826103a7565b9050602081019050919050565b828183375f83830152505050565b5f6104df6104da8461048f565b610475565b9050828152602081018484840111156104fb576104fa610413565b5b6105068482856104bf565b509392505050565b5f82601f8301126105225761052161040f565b5b81356105328482602086016104cd565b91505092915050565b5f602082840312156105505761054f610319565b5b5f82013567ffffffffffffffff81111561056d5761056c61031d565b5b6105798482850161050e565b91505092915050565b5f806040838503121561059857610597610319565b5b5f6105a585828601610340565b925050602083013567ffffffffffffffff8111156105c6576105c561031d565b5b6105d28582860161050e565b9150509250929050565b7f44617461206e6f7420666f756e640000000000000000000000000000000000005f82015250565b5f610610600e83610389565b915061061b826105dc565b602082019050919050565b5f6020820190508181035f83015261063d81610604565b9050919050565b7f4e487b71000000000000000000000000000000000000000000000000000000005f52602260045260245ffd5b5f600282049050600182168061068857607f821691505b60208210810361069b5761069a610644565b5b50919050565b5f819050815f5260205f209050919050565b5f6020601f8301049050919050565b5f82821b905092915050565b5f600883026106fd7fffffffffffffffffffffffffffffffffffffffffffffffffffffffffffffffff826106c2565b61070786836106c2565b95508019841693508086168417925050509392505050565b5f819050919050565b5f61074261073d61073884610321565b61071f565b610321565b9050919050565b5f819050919050565b61075b83610728565b61076f61076782610749565b8484546106ce565b825550505050565b5f90565b610783610777565b61078e818484610752565b505050565b5b818110156107b1576107a65f8261077b565b600181019050610794565b5050565b601f8211156107f6576107c7816106a1565b6107d0846106b3565b810160208510156107df578190505b6107f36107eb856106b3565b830182610793565b50505b505050565b5f82821c905092915050565b5f6108165f19846008026107fb565b1980831691505092915050565b5f61082e8383610807565b9150826002028217905092915050565b6108478261037f565b67ffffffffffffffff8111156108605761085f610417565b5b61086a8254610671565b6108758282856107b5565b5f60209050601f8311600181146108a6575f8415610894578287015190505b61089e8582610823565b865550610905565b601f1984166108b4866106a1565b5f5b828110156108db578489015182556001820191506020850194506020810190506108b6565b868310156108f857848901516108f4601f891682610807565b8355505b6001600288020188555050505b505050505050565b7f4e487b71000000000000000000000000000000000000000000000000000000005f52601160045260245ffd5b5f61094482610321565b91507fffffffffffffffffffffffffffffffffffffffffffffffffffffffffffffffff82036109765761097561090d565b5b60018201905091905056fea2646970667358221220692305277f22e3530110a93367fae22791f543e6e01a43a14fb9659057b724bc64736f6c634300081a0033",
					"opcodes": "PUSH1 0x80 PUSH1 0x40 MSTORE CALLVALUE DUP1 ISZERO PUSH1 0xE JUMPI PUSH0 DUP1 REVERT JUMPDEST POP PUSH2 0x9B7 DUP1 PUSH2 0x1C PUSH0 CODECOPY PUSH0 RETURN INVALID PUSH1 0x80 PUSH1 0x40 MSTORE CALLVALUE DUP1 ISZERO PUSH2 0xF JUMPI PUSH0 DUP1 REVERT JUMPDEST POP PUSH1 0x4 CALLDATASIZE LT PUSH2 0x4A JUMPI PUSH0 CALLDATALOAD PUSH1 0xE0 SHR DUP1 PUSH4 0x178FE3F EQ PUSH2 0x4E JUMPI DUP1 PUSH4 0x134BC876 EQ PUSH2 0x7E JUMPI DUP1 PUSH4 0x4FE8B4C1 EQ PUSH2 0x9A JUMPI DUP1 PUSH4 0x89A8E2A7 EQ PUSH2 0xB6 JUMPI JUMPDEST PUSH0 DUP1 REVERT JUMPDEST PUSH2 0x68 PUSH1 0x4 DUP1 CALLDATASIZE SUB DUP2 ADD SWAP1 PUSH2 0x63 SWAP2 SWAP1 PUSH2 0x354 JUMP JUMPDEST PUSH2 0xD2 JUMP JUMPDEST PUSH1 0x40 MLOAD PUSH2 0x75 SWAP2 SWAP1 PUSH2 0x3EF JUMP JUMPDEST PUSH1 0x40 MLOAD DUP1 SWAP2 SUB SWAP1 RETURN JUMPDEST PUSH2 0x98 PUSH1 0x4 DUP1 CALLDATASIZE SUB DUP2 ADD SWAP1 PUSH2 0x93 SWAP2 SWAP1 PUSH2 0x53B JUMP JUMPDEST PUSH2 0x1B6 JUMP JUMPDEST STOP JUMPDEST PUSH2 0xB4 PUSH1 0x4 DUP1 CALLDATASIZE SUB DUP2 ADD SWAP1 PUSH2 0xAF SWAP2 SWAP1 PUSH2 0x354 JUMP JUMPDEST PUSH2 0x1F0 JUMP JUMPDEST STOP JUMPDEST PUSH2 0xD0 PUSH1 0x4 DUP1 CALLDATASIZE SUB DUP2 ADD SWAP1 PUSH2 0xCB SWAP2 SWAP1 PUSH2 0x582 JUMP JUMPDEST PUSH2 0x252 JUMP JUMPDEST STOP JUMPDEST PUSH1 0x60 PUSH1 0x1 SLOAD DUP3 LT PUSH2 0x118 JUMPI PUSH1 0x40 MLOAD PUSH32 0x8C379A000000000000000000000000000000000000000000000000000000000 DUP2 MSTORE PUSH1 0x4 ADD PUSH2 0x10F SWAP1 PUSH2 0x626 JUMP JUMPDEST PUSH1 0x40 MLOAD DUP1 SWAP2 SUB SWAP1 REVERT JUMPDEST PUSH0 DUP1 DUP4 DUP2 MSTORE PUSH1 0x20 ADD SWAP1 DUP2 MSTORE PUSH1 0x20 ADD PUSH0 KECCAK256 DUP1 SLOAD PUSH2 0x133 SWAP1 PUSH2 0x671 JUMP JUMPDEST DUP1 PUSH1 0x1F ADD PUSH1 0x20 DUP1 SWAP2 DIV MUL PUSH1 0x20 ADD PUSH1 0x40 MLOAD SWAP1 DUP2 ADD PUSH1 0x40 MSTORE DUP1 SWAP3 SWAP2 SWAP1 DUP2 DUP2 MSTORE PUSH1 0x20 ADD DUP3 DUP1 SLOAD PUSH2 0x15F SWAP1 PUSH2 0x671 JUMP JUMPDEST DUP1 ISZERO PUSH2 0x1AA JUMPI DUP1 PUSH1 0x1F LT PUSH2 0x181 JUMPI PUSH2 0x100 DUP1 DUP4 SLOAD DIV MUL DUP4 MSTORE SWAP2 PUSH1 0x20 ADD SWAP2 PUSH2 0x1AA JUMP JUMPDEST DUP3 ADD SWAP2 SWAP1 PUSH0 MSTORE PUSH1 0x20 PUSH0 KECCAK256 SWAP1 JUMPDEST DUP2 SLOAD DUP2 MSTORE SWAP1 PUSH1 0x1 ADD SWAP1 PUSH1 0x20 ADD DUP1 DUP4 GT PUSH2 0x18D JUMPI DUP3 SWAP1 SUB PUSH1 0x1F AND DUP3 ADD SWAP2 JUMPDEST POP POP POP POP POP SWAP1 POP SWAP2 SWAP1 POP JUMP JUMPDEST DUP1 PUSH0 DUP1 PUSH1 0x1 SLOAD DUP2 MSTORE PUSH1 0x20 ADD SWAP1 DUP2 MSTORE PUSH1 0x20 ADD PUSH0 KECCAK256 SWAP1 DUP2 PUSH2 0x1D5 SWAP2 SWAP1 PUSH2 0x83E JUMP JUMPDEST POP PUSH1 0x1 PUSH0 DUP2 SLOAD DUP1 SWAP3 SWAP2 SWAP1 PUSH2 0x1E8 SWAP1 PUSH2 0x93A JUMP JUMPDEST SWAP2 SWAP1 POP SSTORE POP POP JUMP JUMPDEST PUSH1 0x1 SLOAD DUP2 LT PUSH2 0x234 JUMPI PUSH1 0x40 MLOAD PUSH32 0x8C379A000000000000000000000000000000000000000000000000000000000 DUP2 MSTORE PUSH1 0x4 ADD PUSH2 0x22B SWAP1 PUSH2 0x626 JUMP JUMPDEST PUSH1 0x40 MLOAD DUP1 SWAP2 SUB SWAP1 REVERT JUMPDEST PUSH0 DUP1 DUP3 DUP2 MSTORE PUSH1 0x20 ADD SWAP1 DUP2 MSTORE PUSH1 0x20 ADD PUSH0 KECCAK256 PUSH0 PUSH2 0x24F SWAP2 SWAP1 PUSH2 0x2B8 JUMP JUMPDEST POP JUMP JUMPDEST PUSH1 0x1 SLOAD DUP3 LT PUSH2 0x296 JUMPI PUSH1 0x40 MLOAD PUSH32 0x8C379A000000000000000000000000000000000000000000000000000000000 DUP2 MSTORE PUSH1 0x4 ADD PUSH2 0x28D SWAP1 PUSH2 0x626 JUMP JUMPDEST PUSH1 0x40 MLOAD DUP1 SWAP2 SUB SWAP1 REVERT JUMPDEST DUP1 PUSH0 DUP1 DUP5 DUP2 MSTORE PUSH1 0x20 ADD SWAP1 DUP2 MSTORE PUSH1 0x20 ADD PUSH0 KECCAK256 SWAP1 DUP2 PUSH2 0x2B3 SWAP2 SWAP1 PUSH2 0x83E JUMP JUMPDEST POP POP POP JUMP JUMPDEST POP DUP1 SLOAD PUSH2 0x2C4 SWAP1 PUSH2 0x671 JUMP JUMPDEST PUSH0 DUP3 SSTORE DUP1 PUSH1 0x1F LT PUSH2 0x2D5 JUMPI POP PUSH2 0x2F2 JUMP JUMPDEST PUSH1 0x1F ADD PUSH1 0x20 SWAP1 DIV SWAP1 PUSH0 MSTORE PUSH1 0x20 PUSH0 KECCAK256 SWAP1 DUP2 ADD SWAP1 PUSH2 0x2F1 SWAP2 SWAP1 PUSH2 0x2F5 JUMP JUMPDEST JUMPDEST POP JUMP JUMPDEST JUMPDEST DUP1 DUP3 GT ISZERO PUSH2 0x30C JUMPI PUSH0 DUP2 PUSH0 SWAP1 SSTORE POP PUSH1 0x1 ADD PUSH2 0x2F6 JUMP JUMPDEST POP SWAP1 JUMP JUMPDEST PUSH0 PUSH1 0x40 MLOAD SWAP1 POP SWAP1 JUMP JUMPDEST PUSH0 DUP1 REVERT JUMPDEST PUSH0 DUP1 REVERT JUMPDEST PUSH0 DUP2 SWAP1 POP SWAP2 SWAP1 POP JUMP JUMPDEST PUSH2 0x333 DUP2 PUSH2 0x321 JUMP JUMPDEST DUP2 EQ PUSH2 0x33D JUMPI PUSH0 DUP1 REVERT JUMPDEST POP JUMP JUMPDEST PUSH0 DUP2 CALLDATALOAD SWAP1 POP PUSH2 0x34E DUP2 PUSH2 0x32A JUMP JUMPDEST SWAP3 SWAP2 POP POP JUMP JUMPDEST PUSH0 PUSH1 0x20 DUP3 DUP5 SUB SLT ISZERO PUSH2 0x369 JUMPI PUSH2 0x368 PUSH2 0x319 JUMP JUMPDEST JUMPDEST PUSH0 PUSH2 0x376 DUP5 DUP3 DUP6 ADD PUSH2 0x340 JUMP JUMPDEST SWAP2 POP POP SWAP3 SWAP2 POP POP JUMP JUMPDEST PUSH0 DUP2 MLOAD SWAP1 POP SWAP2 SWAP1 POP JUMP JUMPDEST PUSH0 DUP3 DUP3 MSTORE PUSH1 0x20 DUP3 ADD SWAP1 POP SWAP3 SWAP2 POP POP JUMP JUMPDEST DUP3 DUP2 DUP4 MCOPY PUSH0 DUP4 DUP4 ADD MSTORE POP POP POP JUMP JUMPDEST PUSH0 PUSH1 0x1F NOT PUSH1 0x1F DUP4 ADD AND SWAP1 POP SWAP2 SWAP1 POP JUMP JUMPDEST PUSH0 PUSH2 0x3C1 DUP3 PUSH2 0x37F JUMP JUMPDEST PUSH2 0x3CB DUP2 DUP6 PUSH2 0x389 JUMP JUMPDEST SWAP4 POP PUSH2 0x3DB DUP2 DUP6 PUSH1 0x20 DUP7 ADD PUSH2 0x399 JUMP JUMPDEST PUSH2 0x3E4 DUP2 PUSH2 0x3A7 JUMP JUMPDEST DUP5 ADD SWAP2 POP POP SWAP3 SWAP2 POP POP JUMP JUMPDEST PUSH0 PUSH1 0x20 DUP3 ADD SWAP1 POP DUP2 DUP2 SUB PUSH0 DUP4 ADD MSTORE PUSH2 0x407 DUP2 DUP5 PUSH2 0x3B7 JUMP JUMPDEST SWAP1 POP SWAP3 SWAP2 POP POP JUMP JUMPDEST PUSH0 DUP1 REVERT JUMPDEST PUSH0 DUP1 REVERT JUMPDEST PUSH32 0x4E487B7100000000000000000000000000000000000000000000000000000000 PUSH0 MSTORE PUSH1 0x41 PUSH1 0x4 MSTORE PUSH1 0x24 PUSH0 REVERT JUMPDEST PUSH2 0x44D DUP3 PUSH2 0x3A7 JUMP JUMPDEST DUP2 ADD DUP2 DUP2 LT PUSH8 0xFFFFFFFFFFFFFFFF DUP3 GT OR ISZERO PUSH2 0x46C JUMPI PUSH2 0x46B PUSH2 0x417 JUMP JUMPDEST JUMPDEST DUP1 PUSH1 0x40 MSTORE POP POP POP JUMP JUMPDEST PUSH0 PUSH2 0x47E PUSH2 0x310 JUMP JUMPDEST SWAP1 POP PUSH2 0x48A DUP3 DUP3 PUSH2 0x444 JUMP JUMPDEST SWAP2 SWAP1 POP JUMP JUMPDEST PUSH0 PUSH8 0xFFFFFFFFFFFFFFFF DUP3 GT ISZERO PUSH2 0x4A9 JUMPI PUSH2 0x4A8 PUSH2 0x417 JUMP JUMPDEST JUMPDEST PUSH2 0x4B2 DUP3 PUSH2 0x3A7 JUMP JUMPDEST SWAP1 POP PUSH1 0x20 DUP2 ADD SWAP1 POP SWAP2 SWAP1 POP JUMP JUMPDEST DUP3 DUP2 DUP4 CALLDATACOPY PUSH0 DUP4 DUP4 ADD MSTORE POP POP POP JUMP JUMPDEST PUSH0 PUSH2 0x4DF PUSH2 0x4DA DUP5 PUSH2 0x48F JUMP JUMPDEST PUSH2 0x475 JUMP JUMPDEST SWAP1 POP DUP3 DUP2 MSTORE PUSH1 0x20 DUP2 ADD DUP5 DUP5 DUP5 ADD GT ISZERO PUSH2 0x4FB JUMPI PUSH2 0x4FA PUSH2 0x413 JUMP JUMPDEST JUMPDEST PUSH2 0x506 DUP5 DUP3 DUP6 PUSH2 0x4BF JUMP JUMPDEST POP SWAP4 SWAP3 POP POP POP JUMP JUMPDEST PUSH0 DUP3 PUSH1 0x1F DUP4 ADD SLT PUSH2 0x522 JUMPI PUSH2 0x521 PUSH2 0x40F JUMP JUMPDEST JUMPDEST DUP2 CALLDATALOAD PUSH2 0x532 DUP5 DUP3 PUSH1 0x20 DUP7 ADD PUSH2 0x4CD JUMP JUMPDEST SWAP2 POP POP SWAP3 SWAP2 POP POP JUMP JUMPDEST PUSH0 PUSH1 0x20 DUP3 DUP5 SUB SLT ISZERO PUSH2 0x550 JUMPI PUSH2 0x54F PUSH2 0x319 JUMP JUMPDEST JUMPDEST PUSH0 DUP3 ADD CALLDATALOAD PUSH8 0xFFFFFFFFFFFFFFFF DUP2 GT ISZERO PUSH2 0x56D JUMPI PUSH2 0x56C PUSH2 0x31D JUMP JUMPDEST JUMPDEST PUSH2 0x579 DUP5 DUP3 DUP6 ADD PUSH2 0x50E JUMP JUMPDEST SWAP2 POP POP SWAP3 SWAP2 POP POP JUMP JUMPDEST PUSH0 DUP1 PUSH1 0x40 DUP4 DUP6 SUB SLT ISZERO PUSH2 0x598 JUMPI PUSH2 0x597 PUSH2 0x319 JUMP JUMPDEST JUMPDEST PUSH0 PUSH2 0x5A5 DUP6 DUP3 DUP7 ADD PUSH2 0x340 JUMP JUMPDEST SWAP3 POP POP PUSH1 0x20 DUP4 ADD CALLDATALOAD PUSH8 0xFFFFFFFFFFFFFFFF DUP2 GT ISZERO PUSH2 0x5C6 JUMPI PUSH2 0x5C5 PUSH2 0x31D JUMP JUMPDEST JUMPDEST PUSH2 0x5D2 DUP6 DUP3 DUP7 ADD PUSH2 0x50E JUMP JUMPDEST SWAP2 POP POP SWAP3 POP SWAP3 SWAP1 POP JUMP JUMPDEST PUSH32 0x44617461206E6F7420666F756E64000000000000000000000000000000000000 PUSH0 DUP3 ADD MSTORE POP JUMP JUMPDEST PUSH0 PUSH2 0x610 PUSH1 0xE DUP4 PUSH2 0x389 JUMP JUMPDEST SWAP2 POP PUSH2 0x61B DUP3 PUSH2 0x5DC JUMP JUMPDEST PUSH1 0x20 DUP3 ADD SWAP1 POP SWAP2 SWAP1 POP JUMP JUMPDEST PUSH0 PUSH1 0x20 DUP3 ADD SWAP1 POP DUP2 DUP2 SUB PUSH0 DUP4 ADD MSTORE PUSH2 0x63D DUP2 PUSH2 0x604 JUMP JUMPDEST SWAP1 POP SWAP2 SWAP1 POP JUMP JUMPDEST PUSH32 0x4E487B7100000000000000000000000000000000000000000000000000000000 PUSH0 MSTORE PUSH1 0x22 PUSH1 0x4 MSTORE PUSH1 0x24 PUSH0 REVERT JUMPDEST PUSH0 PUSH1 0x2 DUP3 DIV SWAP1 POP PUSH1 0x1 DUP3 AND DUP1 PUSH2 0x688 JUMPI PUSH1 0x7F DUP3 AND SWAP2 POP JUMPDEST PUSH1 0x20 DUP3 LT DUP2 SUB PUSH2 0x69B JUMPI PUSH2 0x69A PUSH2 0x644 JUMP JUMPDEST JUMPDEST POP SWAP2 SWAP1 POP JUMP JUMPDEST PUSH0 DUP2 SWAP1 POP DUP2 PUSH0 MSTORE PUSH1 0x20 PUSH0 KECCAK256 SWAP1 POP SWAP2 SWAP1 POP JUMP JUMPDEST PUSH0 PUSH1 0x20 PUSH1 0x1F DUP4 ADD DIV SWAP1 POP SWAP2 SWAP1 POP JUMP JUMPDEST PUSH0 DUP3 DUP3 SHL SWAP1 POP SWAP3 SWAP2 POP POP JUMP JUMPDEST PUSH0 PUSH1 0x8 DUP4 MUL PUSH2 0x6FD PUSH32 0xFFFFFFFFFFFFFFFFFFFFFFFFFFFFFFFFFFFFFFFFFFFFFFFFFFFFFFFFFFFFFFFF DUP3 PUSH2 0x6C2 JUMP JUMPDEST PUSH2 0x707 DUP7 DUP4 PUSH2 0x6C2 JUMP JUMPDEST SWAP6 POP DUP1 NOT DUP5 AND SWAP4 POP DUP1 DUP7 AND DUP5 OR SWAP3 POP POP POP SWAP4 SWAP3 POP POP POP JUMP JUMPDEST PUSH0 DUP2 SWAP1 POP SWAP2 SWAP1 POP JUMP JUMPDEST PUSH0 PUSH2 0x742 PUSH2 0x73D PUSH2 0x738 DUP5 PUSH2 0x321 JUMP JUMPDEST PUSH2 0x71F JUMP JUMPDEST PUSH2 0x321 JUMP JUMPDEST SWAP1 POP SWAP2 SWAP1 POP JUMP JUMPDEST PUSH0 DUP2 SWAP1 POP SWAP2 SWAP1 POP JUMP JUMPDEST PUSH2 0x75B DUP4 PUSH2 0x728 JUMP JUMPDEST PUSH2 0x76F PUSH2 0x767 DUP3 PUSH2 0x749 JUMP JUMPDEST DUP5 DUP5 SLOAD PUSH2 0x6CE JUMP JUMPDEST DUP3 SSTORE POP POP POP POP JUMP JUMPDEST PUSH0 SWAP1 JUMP JUMPDEST PUSH2 0x783 PUSH2 0x777 JUMP JUMPDEST PUSH2 0x78E DUP2 DUP5 DUP5 PUSH2 0x752 JUMP JUMPDEST POP POP POP JUMP JUMPDEST JUMPDEST DUP2 DUP2 LT ISZERO PUSH2 0x7B1 JUMPI PUSH2 0x7A6 PUSH0 DUP3 PUSH2 0x77B JUMP JUMPDEST PUSH1 0x1 DUP2 ADD SWAP1 POP PUSH2 0x794 JUMP JUMPDEST POP POP JUMP JUMPDEST PUSH1 0x1F DUP3 GT ISZERO PUSH2 0x7F6 JUMPI PUSH2 0x7C7 DUP2 PUSH2 0x6A1 JUMP JUMPDEST PUSH2 0x7D0 DUP5 PUSH2 0x6B3 JUMP JUMPDEST DUP2 ADD PUSH1 0x20 DUP6 LT ISZERO PUSH2 0x7DF JUMPI DUP2 SWAP1 POP JUMPDEST PUSH2 0x7F3 PUSH2 0x7EB DUP6 PUSH2 0x6B3 JUMP JUMPDEST DUP4 ADD DUP3 PUSH2 0x793 JUMP JUMPDEST POP POP JUMPDEST POP POP POP JUMP JUMPDEST PUSH0 DUP3 DUP3 SHR SWAP1 POP SWAP3 SWAP2 POP POP JUMP JUMPDEST PUSH0 PUSH2 0x816 PUSH0 NOT DUP5 PUSH1 0x8 MUL PUSH2 0x7FB JUMP JUMPDEST NOT DUP1 DUP4 AND SWAP2 POP POP SWAP3 SWAP2 POP POP JUMP JUMPDEST PUSH0 PUSH2 0x82E DUP4 DUP4 PUSH2 0x807 JUMP JUMPDEST SWAP2 POP DUP3 PUSH1 0x2 MUL DUP3 OR SWAP1 POP SWAP3 SWAP2 POP POP JUMP JUMPDEST PUSH2 0x847 DUP3 PUSH2 0x37F JUMP JUMPDEST PUSH8 0xFFFFFFFFFFFFFFFF DUP2 GT ISZERO PUSH2 0x860 JUMPI PUSH2 0x85F PUSH2 0x417 JUMP JUMPDEST JUMPDEST PUSH2 0x86A DUP3 SLOAD PUSH2 0x671 JUMP JUMPDEST PUSH2 0x875 DUP3 DUP3 DUP6 PUSH2 0x7B5 JUMP JUMPDEST PUSH0 PUSH1 0x20 SWAP1 POP PUSH1 0x1F DUP4 GT PUSH1 0x1 DUP2 EQ PUSH2 0x8A6 JUMPI PUSH0 DUP5 ISZERO PUSH2 0x894 JUMPI DUP3 DUP8 ADD MLOAD SWAP1 POP JUMPDEST PUSH2 0x89E DUP6 DUP3 PUSH2 0x823 JUMP JUMPDEST DUP7 SSTORE POP PUSH2 0x905 JUMP JUMPDEST PUSH1 0x1F NOT DUP5 AND PUSH2 0x8B4 DUP7 PUSH2 0x6A1 JUMP JUMPDEST PUSH0 JUMPDEST DUP3 DUP2 LT ISZERO PUSH2 0x8DB JUMPI DUP5 DUP10 ADD MLOAD DUP3 SSTORE PUSH1 0x1 DUP3 ADD SWAP2 POP PUSH1 0x20 DUP6 ADD SWAP5 POP PUSH1 0x20 DUP2 ADD SWAP1 POP PUSH2 0x8B6 JUMP JUMPDEST DUP7 DUP4 LT ISZERO PUSH2 0x8F8 JUMPI DUP5 DUP10 ADD MLOAD PUSH2 0x8F4 PUSH1 0x1F DUP10 AND DUP3 PUSH2 0x807 JUMP JUMPDEST DUP4 SSTORE POP JUMPDEST PUSH1 0x1 PUSH1 0x2 DUP9 MUL ADD DUP9 SSTORE POP POP POP JUMPDEST POP POP POP POP POP POP JUMP JUMPDEST PUSH32 0x4E487B7100000000000000000000000000000000000000000000000000000000 PUSH0 MSTORE PUSH1 0x11 PUSH1 0x4 MSTORE PUSH1 0x24 PUSH0 REVERT JUMPDEST PUSH0 PUSH2 0x944 DUP3 PUSH2 0x321 JUMP JUMPDEST SWAP2 POP PUSH32 0xFFFFFFFFFFFFFFFFFFFFFFFFFFFFFFFFFFFFFFFFFFFFFFFFFFFFFFFFFFFFFFFF DUP3 SUB PUSH2 0x976 JUMPI PUSH2 0x975 PUSH2 0x90D JUMP JUMPDEST JUMPDEST PUSH1 0x1 DUP3 ADD SWAP1 POP SWAP2 SWAP1 POP JUMP INVALID LOG2 PUSH5 0x6970667358 0x22 SLT KECCAK256 PUSH10 0x2305277F22E3530110A9 CALLER PUSH8 0xFAE22791F543E6E0 BYTE NUMBER LOG1 0x4F 0xB9 PUSH6 0x9057B724BC64 PUSH20 0x6F6C634300081A00330000000000000000000000 "
				},
				"gasEstimates": {
					"creation": {
						"codeDepositCost": "497400",
						"executionCost": "528",
						"totalCost": "497928"
					},
					"external": {
						"deleteData(uint256)": "infinite",
						"getData(uint256)": "infinite",
						"updateData(uint256,string)": "infinite",
						"writeData(string)": "infinite"
					}
				},
				"methodIdentifiers": {
					"deleteData(uint256)": "4fe8b4c1",
					"getData(uint256)": "0178fe3f",
					"updateData(uint256,string)": "89a8e2a7",
					"writeData(string)": "134bc876"
				}
			},
			"storageLayout": {
				"storage": [
					{
						"astId": 5,
						"contract": "contracts/DataStorage.sol:DataStorage",
						"label": "dataStore",
						"offset": 0,
						"slot": "0",
						"type": "t_mapping(t_uint256,t_string_storage)"
					},
					{
						"astId": 7,
						"contract": "contracts/DataStorage.sol:DataStorage",
						"label": "dataCount",
						"offset": 0,
						"slot": "1",
						"type": "t_uint256"
					}
				],
				"types": {
					"t_mapping(t_uint256,t_string_storage)": {
						"encoding": "mapping",
						"key": "t_uint256",
						"label": "mapping(uint256 => string)",
						"numberOfBytes": "32",
						"value": "t_string_storage"
					},
					"t_string_storage": {
						"encoding": "bytes",
						"label": "string",
						"numberOfBytes": "32"
					},
					"t_uint256": {
						"encoding": "inplace",
						"label": "uint256",
						"numberOfBytes": "32"
					}
				}
			},
			"userdoc": {
				"kind": "user",
				"methods": {},
				"version": 1
			}
		}
	}
}