{
	"data": {
		"bytecode": {
			"linkReferences": {},
			"object": "6080604052348015600e575f80fd5b5060405160ec38038060ec8339810160408190526029916035565b5f919091556001556056565b5f80604083850312156045575f80fd5b505080516020909101519092909150565b608b8060615f395ff3fe6080604052348015600e575f80fd5b50600436106030575f3560e01c80631b84a42d1460345780635309df9214604e575b5f80fd5b603c60015481565b60405190815260200160405180910390f35b603c5f548156fea264697066735822122046c4610aec17be2625f23d42d3c6c4bd7ad3e3b7732aa6cac9ac8dffdb434e5164736f6c634300081a0033",
			"opcodes": "PUSH1 0x80 PUSH1 0x40 MSTORE CALLVALUE DUP1 ISZERO PUSH1 0xE JUMPI PUSH0 DUP1 REVERT JUMPDEST POP PUSH1 0x40 MLOAD PUSH1 0xEC CODESIZE SUB DUP1 PUSH1 0xEC DUP4 CODECOPY DUP2 ADD PUSH1 0x40 DUP2 SWAP1 MSTORE PUSH1 0x29 SWAP2 PUSH1 0x35 JUMP JUMPDEST PUSH0 SWAP2 SWAP1 SWAP2 SSTORE PUSH1 0x1 SSTORE PUSH1 0x56 JUMP JUMPDEST PUSH0 DUP1 PUSH1 0x40 DUP4 DUP6 SUB SLT ISZERO PUSH1 0x45 JUMPI PUSH0 DUP1 REVERT JUMPDEST POP POP DUP1 MLOAD PUSH1 0x20 SWAP1 SWAP2 ADD MLOAD SWAP1 SWAP3 SWAP1 SWAP2 POP JUMP JUMPDEST PUSH1 0x8B DUP1 PUSH1 0x61 PUSH0 CODECOPY PUSH0 RETURN INVALID PUSH1 0x80 PUSH1 0x40 MSTORE CALLVALUE DUP1 ISZERO PUSH1 0xE JUMPI PUSH0 DUP1 REVERT JUMPDEST POP PUSH1 0x4 CALLDATASIZE LT PUSH1 0x30 JUMPI PUSH0 CALLDATALOAD PUSH1 0xE0 SHR DUP1 PUSH4 0x1B84A42D EQ PUSH1 0x34 JUMPI DUP1 PUSH4 0x5309DF92 EQ PUSH1 0x4E JUMPI JUMPDEST PUSH0 DUP1 REVERT JUMPDEST PUSH1 0x3C PUSH1 0x1 SLOAD DUP2 JUMP JUMPDEST PUSH1 0x40 MLOAD SWAP1 DUP2 MSTORE PUSH1 0x20 ADD PUSH1 0x40 MLOAD DUP1 SWAP2 SUB SWAP1 RETURN JUMPDEST PUSH1 0x3C PUSH0 SLOAD DUP2 JUMP INVALID LOG2 PUSH5 0x6970667358 0x22 SLT KECCAK256 CHAINID 0xC4 PUSH2 0xAEC OR 0xBE 0x26 0x25 CALLCODE RETURNDATASIZE TIMESTAMP 0xD3 0xC6 0xC4 0xBD PUSH27 0xD3E3B7732AA6CAC9AC8DFFDB434E5164736F6C634300081A003300 "
		},
		"gasEstimates": {
			"creation": {
				"codeDepositCost": "27800",
				"executionCost": "infinite",
				"totalCost": "infinite"
			},
			"external": {
				"arg1()": "2281",
				"arg2()": "2260"
			}
		},
		"methodIdentifiers": {
			"arg1()": "5309df92",
			"arg2()": "1b84a42d"
		}
	},
	"abi": [
		{
			"inputs": [
				{
					"internalType": "uint256",
					"name": "_arg1",
					"type": "uint256"
				},
				{
					"internalType": "uint256",
					"name": "_arg2",
					"type": "uint256"
				}
			],
			"stateMutability": "nonpayable",
			"type": "constructor"
		},
		{
			"inputs": [],
			"name": "arg1",
			"outputs": [
				{
					"internalType": "uint256",
					"name": "",
					"type": "uint256"
				}
			],
			"stateMutability": "view",
			"type": "function"
		},
		{
			"inputs": [],
			"name": "arg2",
			"outputs": [
				{
					"internalType": "uint256",
					"name": "",
					"type": "uint256"
				}
			],
			"stateMutability": "view",
			"type": "function"
		}
	]
}