{
	"data": {
		"bytecode": {
			"linkReferences": {},
			"object": "6080604052348015600e575f80fd5b50610bd38061001c5f395ff3fe608060405234801561000f575f80fd5b5060043610610055575f3560e01c806327ee999d146100595780633ffbd47f14610075578063544541b314610091578063c822d7f0146100c1578063c8902a21146100f1575b5f80fd5b610073600480360381019061006e9190610605565b610121565b005b61008f600480360381019061008a919061064c565b610235565b005b6100ab60048036038101906100a6919061064c565b61038f565b6040516100b891906106dc565b60405180910390f35b6100db60048036038101906100d69190610605565b61044d565b6040516100e891906106dc565b60405180910390f35b61010b60048036038101906101069190610605565b610482565b60405161011891906106dc565b60405180910390f35b5f816040516101309190610747565b90815260200160405180910390206002015f9054906101000a900460ff1661018d576040517f08c379a0000000000000000000000000000000000000000000000000000000008152600401610184906107b7565b60405180910390fd5b5f8160405161019c9190610747565b908152602001604051809103902060020160019054906101000a900460ff166101fa576040517f08c379a00000000000000000000000000000000000000000000000000000000081526004016101f19061081f565b60405180910390fd5b5f808260405161020a9190610747565b908152602001604051809103902060020160016101000a81548160ff02191690831515021790555050565b5f826040516102449190610747565b90815260200160405180910390206002015f9054906101000a900460ff16156102a2576040517f08c379a0000000000000000000000000000000000000000000000000000000008152600401610299906108ad565b60405180910390fd5b815f836040516102b29190610747565b90815260200160405180910390205f0190816102ce9190610ace565b50806040516020016102e09190610747565b604051602081830303815290604052805190602001205f836040516103059190610747565b90815260200160405180910390206001018190555060015f8360405161032b9190610747565b90815260200160405180910390206002015f6101000a81548160ff02191690831515021790555060015f836040516103639190610747565b908152602001604051809103902060020160016101000a81548160ff0219169083151502179055505050565b5f808360405161039f9190610747565b90815260200160405180910390206002015f9054906101000a900460ff166103fc576040517f08c379a00000000000000000000000000000000000000000000000000000000081526004016103f3906107b7565b60405180910390fd5b5f8360405161040b9190610747565b9081526020016040518091039020600101548260405160200161042e9190610747565b6040516020818303038152906040528051906020012014905092915050565b5f808260405161045d9190610747565b90815260200160405180910390206002015f9054906101000a900460ff169050919050565b5f80826040516104929190610747565b908152602001604051809103902060020160019054906101000a900460ff169050919050565b5f604051905090565b5f80fd5b5f80fd5b5f80fd5b5f80fd5b5f601f19601f8301169050919050565b7f4e487b71000000000000000000000000000000000000000000000000000000005f52604160045260245ffd5b610517826104d1565b810181811067ffffffffffffffff82111715610536576105356104e1565b5b80604052505050565b5f6105486104b8565b9050610554828261050e565b919050565b5f67ffffffffffffffff821115610573576105726104e1565b5b61057c826104d1565b9050602081019050919050565b828183375f83830152505050565b5f6105a96105a484610559565b61053f565b9050828152602081018484840111156105c5576105c46104cd565b5b6105d0848285610589565b509392505050565b5f82601f8301126105ec576105eb6104c9565b5b81356105fc848260208601610597565b91505092915050565b5f6020828403121561061a576106196104c1565b5b5f82013567ffffffffffffffff811115610637576106366104c5565b5b610643848285016105d8565b91505092915050565b5f8060408385031215610662576106616104c1565b5b5f83013567ffffffffffffffff81111561067f5761067e6104c5565b5b61068b858286016105d8565b925050602083013567ffffffffffffffff8111156106ac576106ab6104c5565b5b6106b8858286016105d8565b9150509250929050565b5f8115159050919050565b6106d6816106c2565b82525050565b5f6020820190506106ef5f8301846106cd565b92915050565b5f81519050919050565b5f81905092915050565b8281835e5f83830152505050565b5f610721826106f5565b61072b81856106ff565b935061073b818560208601610709565b80840191505092915050565b5f6107528284610717565b915081905092915050565b5f82825260208201905092915050565b7f55736572206973206e6f742072656769737465726564000000000000000000005f82015250565b5f6107a160168361075d565b91506107ac8261076d565b602082019050919050565b5f6020820190508181035f8301526107ce81610795565b9050919050565b7f5573657220697320616c726561647920646561637469766174656400000000005f82015250565b5f610809601b8361075d565b9150610814826107d5565b602082019050919050565b5f6020820190508181035f830152610836816107fd565b9050919050565b7f557365722077697468207468697320656d61696c20697320616c7265616479205f8201527f7265676973746572656400000000000000000000000000000000000000000000602082015250565b5f610897602a8361075d565b91506108a28261083d565b604082019050919050565b5f6020820190508181035f8301526108c48161088b565b9050919050565b7f4e487b71000000000000000000000000000000000000000000000000000000005f52602260045260245ffd5b5f600282049050600182168061090f57607f821691505b602082108103610922576109216108cb565b5b50919050565b5f819050815f5260205f209050919050565b5f6020601f8301049050919050565b5f82821b905092915050565b5f600883026109847fffffffffffffffffffffffffffffffffffffffffffffffffffffffffffffffff82610949565b61098e8683610949565b95508019841693508086168417925050509392505050565b5f819050919050565b5f819050919050565b5f6109d26109cd6109c8846109a6565b6109af565b6109a6565b9050919050565b5f819050919050565b6109eb836109b8565b6109ff6109f7826109d9565b848454610955565b825550505050565b5f90565b610a13610a07565b610a1e8184846109e2565b505050565b5b81811015610a4157610a365f82610a0b565b600181019050610a24565b5050565b601f821115610a8657610a5781610928565b610a608461093a565b81016020851015610a6f578190505b610a83610a7b8561093a565b830182610a23565b50505b505050565b5f82821c905092915050565b5f610aa65f1984600802610a8b565b1980831691505092915050565b5f610abe8383610a97565b9150826002028217905092915050565b610ad7826106f5565b67ffffffffffffffff811115610af057610aef6104e1565b5b610afa82546108f8565b610b05828285610a45565b5f60209050601f831160018114610b36575f8415610b24578287015190505b610b2e8582610ab3565b865550610b95565b601f198416610b4486610928565b5f5b82811015610b6b57848901518255600182019150602085019450602081019050610b46565b86831015610b885784890151610b84601f891682610a97565b8355505b6001600288020188555050505b50505050505056fea26469706673582212201d1e0e62dd253910fbc73eef519a78edac1442ee2427839f73055644b10285c964736f6c634300081a0033",
			"opcodes": "PUSH1 0x80 PUSH1 0x40 MSTORE CALLVALUE DUP1 ISZERO PUSH1 0xE JUMPI PUSH0 DUP1 REVERT JUMPDEST POP PUSH2 0xBD3 DUP1 PUSH2 0x1C PUSH0 CODECOPY PUSH0 RETURN INVALID PUSH1 0x80 PUSH1 0x40 MSTORE CALLVALUE DUP1 ISZERO PUSH2 0xF JUMPI PUSH0 DUP1 REVERT JUMPDEST POP PUSH1 0x4 CALLDATASIZE LT PUSH2 0x55 JUMPI PUSH0 CALLDATALOAD PUSH1 0xE0 SHR DUP1 PUSH4 0x27EE999D EQ PUSH2 0x59 JUMPI DUP1 PUSH4 0x3FFBD47F EQ PUSH2 0x75 JUMPI DUP1 PUSH4 0x544541B3 EQ PUSH2 0x91 JUMPI DUP1 PUSH4 0xC822D7F0 EQ PUSH2 0xC1 JUMPI DUP1 PUSH4 0xC8902A21 EQ PUSH2 0xF1 JUMPI JUMPDEST PUSH0 DUP1 REVERT JUMPDEST PUSH2 0x73 PUSH1 0x4 DUP1 CALLDATASIZE SUB DUP2 ADD SWAP1 PUSH2 0x6E SWAP2 SWAP1 PUSH2 0x605 JUMP JUMPDEST PUSH2 0x121 JUMP JUMPDEST STOP JUMPDEST PUSH2 0x8F PUSH1 0x4 DUP1 CALLDATASIZE SUB DUP2 ADD SWAP1 PUSH2 0x8A SWAP2 SWAP1 PUSH2 0x64C JUMP JUMPDEST PUSH2 0x235 JUMP JUMPDEST STOP JUMPDEST PUSH2 0xAB PUSH1 0x4 DUP1 CALLDATASIZE SUB DUP2 ADD SWAP1 PUSH2 0xA6 SWAP2 SWAP1 PUSH2 0x64C JUMP JUMPDEST PUSH2 0x38F JUMP JUMPDEST PUSH1 0x40 MLOAD PUSH2 0xB8 SWAP2 SWAP1 PUSH2 0x6DC JUMP JUMPDEST PUSH1 0x40 MLOAD DUP1 SWAP2 SUB SWAP1 RETURN JUMPDEST PUSH2 0xDB PUSH1 0x4 DUP1 CALLDATASIZE SUB DUP2 ADD SWAP1 PUSH2 0xD6 SWAP2 SWAP1 PUSH2 0x605 JUMP JUMPDEST PUSH2 0x44D JUMP JUMPDEST PUSH1 0x40 MLOAD PUSH2 0xE8 SWAP2 SWAP1 PUSH2 0x6DC JUMP JUMPDEST PUSH1 0x40 MLOAD DUP1 SWAP2 SUB SWAP1 RETURN JUMPDEST PUSH2 0x10B PUSH1 0x4 DUP1 CALLDATASIZE SUB DUP2 ADD SWAP1 PUSH2 0x106 SWAP2 SWAP1 PUSH2 0x605 JUMP JUMPDEST PUSH2 0x482 JUMP JUMPDEST PUSH1 0x40 MLOAD PUSH2 0x118 SWAP2 SWAP1 PUSH2 0x6DC JUMP JUMPDEST PUSH1 0x40 MLOAD DUP1 SWAP2 SUB SWAP1 RETURN JUMPDEST PUSH0 DUP2 PUSH1 0x40 MLOAD PUSH2 0x130 SWAP2 SWAP1 PUSH2 0x747 JUMP JUMPDEST SWAP1 DUP2 MSTORE PUSH1 0x20 ADD PUSH1 0x40 MLOAD DUP1 SWAP2 SUB SWAP1 KECCAK256 PUSH1 0x2 ADD PUSH0 SWAP1 SLOAD SWAP1 PUSH2 0x100 EXP SWAP1 DIV PUSH1 0xFF AND PUSH2 0x18D JUMPI PUSH1 0x40 MLOAD PUSH32 0x8C379A000000000000000000000000000000000000000000000000000000000 DUP2 MSTORE PUSH1 0x4 ADD PUSH2 0x184 SWAP1 PUSH2 0x7B7 JUMP JUMPDEST PUSH1 0x40 MLOAD DUP1 SWAP2 SUB SWAP1 REVERT JUMPDEST PUSH0 DUP2 PUSH1 0x40 MLOAD PUSH2 0x19C SWAP2 SWAP1 PUSH2 0x747 JUMP JUMPDEST SWAP1 DUP2 MSTORE PUSH1 0x20 ADD PUSH1 0x40 MLOAD DUP1 SWAP2 SUB SWAP1 KECCAK256 PUSH1 0x2 ADD PUSH1 0x1 SWAP1 SLOAD SWAP1 PUSH2 0x100 EXP SWAP1 DIV PUSH1 0xFF AND PUSH2 0x1FA JUMPI PUSH1 0x40 MLOAD PUSH32 0x8C379A000000000000000000000000000000000000000000000000000000000 DUP2 MSTORE PUSH1 0x4 ADD PUSH2 0x1F1 SWAP1 PUSH2 0x81F JUMP JUMPDEST PUSH1 0x40 MLOAD DUP1 SWAP2 SUB SWAP1 REVERT JUMPDEST PUSH0 DUP1 DUP3 PUSH1 0x40 MLOAD PUSH2 0x20A SWAP2 SWAP1 PUSH2 0x747 JUMP JUMPDEST SWAP1 DUP2 MSTORE PUSH1 0x20 ADD PUSH1 0x40 MLOAD DUP1 SWAP2 SUB SWAP1 KECCAK256 PUSH1 0x2 ADD PUSH1 0x1 PUSH2 0x100 EXP DUP2 SLOAD DUP2 PUSH1 0xFF MUL NOT AND SWAP1 DUP4 ISZERO ISZERO MUL OR SWAP1 SSTORE POP POP JUMP JUMPDEST PUSH0 DUP3 PUSH1 0x40 MLOAD PUSH2 0x244 SWAP2 SWAP1 PUSH2 0x747 JUMP JUMPDEST SWAP1 DUP2 MSTORE PUSH1 0x20 ADD PUSH1 0x40 MLOAD DUP1 SWAP2 SUB SWAP1 KECCAK256 PUSH1 0x2 ADD PUSH0 SWAP1 SLOAD SWAP1 PUSH2 0x100 EXP SWAP1 DIV PUSH1 0xFF AND ISZERO PUSH2 0x2A2 JUMPI PUSH1 0x40 MLOAD PUSH32 0x8C379A000000000000000000000000000000000000000000000000000000000 DUP2 MSTORE PUSH1 0x4 ADD PUSH2 0x299 SWAP1 PUSH2 0x8AD JUMP JUMPDEST PUSH1 0x40 MLOAD DUP1 SWAP2 SUB SWAP1 REVERT JUMPDEST DUP2 PUSH0 DUP4 PUSH1 0x40 MLOAD PUSH2 0x2B2 SWAP2 SWAP1 PUSH2 0x747 JUMP JUMPDEST SWAP1 DUP2 MSTORE PUSH1 0x20 ADD PUSH1 0x40 MLOAD DUP1 SWAP2 SUB SWAP1 KECCAK256 PUSH0 ADD SWAP1 DUP2 PUSH2 0x2CE SWAP2 SWAP1 PUSH2 0xACE JUMP JUMPDEST POP DUP1 PUSH1 0x40 MLOAD PUSH1 0x20 ADD PUSH2 0x2E0 SWAP2 SWAP1 PUSH2 0x747 JUMP JUMPDEST PUSH1 0x40 MLOAD PUSH1 0x20 DUP2 DUP4 SUB SUB DUP2 MSTORE SWAP1 PUSH1 0x40 MSTORE DUP1 MLOAD SWAP1 PUSH1 0x20 ADD KECCAK256 PUSH0 DUP4 PUSH1 0x40 MLOAD PUSH2 0x305 SWAP2 SWAP1 PUSH2 0x747 JUMP JUMPDEST SWAP1 DUP2 MSTORE PUSH1 0x20 ADD PUSH1 0x40 MLOAD DUP1 SWAP2 SUB SWAP1 KECCAK256 PUSH1 0x1 ADD DUP2 SWAP1 SSTORE POP PUSH1 0x1 PUSH0 DUP4 PUSH1 0x40 MLOAD PUSH2 0x32B SWAP2 SWAP1 PUSH2 0x747 JUMP JUMPDEST SWAP1 DUP2 MSTORE PUSH1 0x20 ADD PUSH1 0x40 MLOAD DUP1 SWAP2 SUB SWAP1 KECCAK256 PUSH1 0x2 ADD PUSH0 PUSH2 0x100 EXP DUP2 SLOAD DUP2 PUSH1 0xFF MUL NOT AND SWAP1 DUP4 ISZERO ISZERO MUL OR SWAP1 SSTORE POP PUSH1 0x1 PUSH0 DUP4 PUSH1 0x40 MLOAD PUSH2 0x363 SWAP2 SWAP1 PUSH2 0x747 JUMP JUMPDEST SWAP1 DUP2 MSTORE PUSH1 0x20 ADD PUSH1 0x40 MLOAD DUP1 SWAP2 SUB SWAP1 KECCAK256 PUSH1 0x2 ADD PUSH1 0x1 PUSH2 0x100 EXP DUP2 SLOAD DUP2 PUSH1 0xFF MUL NOT AND SWAP1 DUP4 ISZERO ISZERO MUL OR SWAP1 SSTORE POP POP POP JUMP JUMPDEST PUSH0 DUP1 DUP4 PUSH1 0x40 MLOAD PUSH2 0x39F SWAP2 SWAP1 PUSH2 0x747 JUMP JUMPDEST SWAP1 DUP2 MSTORE PUSH1 0x20 ADD PUSH1 0x40 MLOAD DUP1 SWAP2 SUB SWAP1 KECCAK256 PUSH1 0x2 ADD PUSH0 SWAP1 SLOAD SWAP1 PUSH2 0x100 EXP SWAP1 DIV PUSH1 0xFF AND PUSH2 0x3FC JUMPI PUSH1 0x40 MLOAD PUSH32 0x8C379A000000000000000000000000000000000000000000000000000000000 DUP2 MSTORE PUSH1 0x4 ADD PUSH2 0x3F3 SWAP1 PUSH2 0x7B7 JUMP JUMPDEST PUSH1 0x40 MLOAD DUP1 SWAP2 SUB SWAP1 REVERT JUMPDEST PUSH0 DUP4 PUSH1 0x40 MLOAD PUSH2 0x40B SWAP2 SWAP1 PUSH2 0x747 JUMP JUMPDEST SWAP1 DUP2 MSTORE PUSH1 0x20 ADD PUSH1 0x40 MLOAD DUP1 SWAP2 SUB SWAP1 KECCAK256 PUSH1 0x1 ADD SLOAD DUP3 PUSH1 0x40 MLOAD PUSH1 0x20 ADD PUSH2 0x42E SWAP2 SWAP1 PUSH2 0x747 JUMP JUMPDEST PUSH1 0x40 MLOAD PUSH1 0x20 DUP2 DUP4 SUB SUB DUP2 MSTORE SWAP1 PUSH1 0x40 MSTORE DUP1 MLOAD SWAP1 PUSH1 0x20 ADD KECCAK256 EQ SWAP1 POP SWAP3 SWAP2 POP POP JUMP JUMPDEST PUSH0 DUP1 DUP3 PUSH1 0x40 MLOAD PUSH2 0x45D SWAP2 SWAP1 PUSH2 0x747 JUMP JUMPDEST SWAP1 DUP2 MSTORE PUSH1 0x20 ADD PUSH1 0x40 MLOAD DUP1 SWAP2 SUB SWAP1 KECCAK256 PUSH1 0x2 ADD PUSH0 SWAP1 SLOAD SWAP1 PUSH2 0x100 EXP SWAP1 DIV PUSH1 0xFF AND SWAP1 POP SWAP2 SWAP1 POP JUMP JUMPDEST PUSH0 DUP1 DUP3 PUSH1 0x40 MLOAD PUSH2 0x492 SWAP2 SWAP1 PUSH2 0x747 JUMP JUMPDEST SWAP1 DUP2 MSTORE PUSH1 0x20 ADD PUSH1 0x40 MLOAD DUP1 SWAP2 SUB SWAP1 KECCAK256 PUSH1 0x2 ADD PUSH1 0x1 SWAP1 SLOAD SWAP1 PUSH2 0x100 EXP SWAP1 DIV PUSH1 0xFF AND SWAP1 POP SWAP2 SWAP1 POP JUMP JUMPDEST PUSH0 PUSH1 0x40 MLOAD SWAP1 POP SWAP1 JUMP JUMPDEST PUSH0 DUP1 REVERT JUMPDEST PUSH0 DUP1 REVERT JUMPDEST PUSH0 DUP1 REVERT JUMPDEST PUSH0 DUP1 REVERT JUMPDEST PUSH0 PUSH1 0x1F NOT PUSH1 0x1F DUP4 ADD AND SWAP1 POP SWAP2 SWAP1 POP JUMP JUMPDEST PUSH32 0x4E487B7100000000000000000000000000000000000000000000000000000000 PUSH0 MSTORE PUSH1 0x41 PUSH1 0x4 MSTORE PUSH1 0x24 PUSH0 REVERT JUMPDEST PUSH2 0x517 DUP3 PUSH2 0x4D1 JUMP JUMPDEST DUP2 ADD DUP2 DUP2 LT PUSH8 0xFFFFFFFFFFFFFFFF DUP3 GT OR ISZERO PUSH2 0x536 JUMPI PUSH2 0x535 PUSH2 0x4E1 JUMP JUMPDEST JUMPDEST DUP1 PUSH1 0x40 MSTORE POP POP POP JUMP JUMPDEST PUSH0 PUSH2 0x548 PUSH2 0x4B8 JUMP JUMPDEST SWAP1 POP PUSH2 0x554 DUP3 DUP3 PUSH2 0x50E JUMP JUMPDEST SWAP2 SWAP1 POP JUMP JUMPDEST PUSH0 PUSH8 0xFFFFFFFFFFFFFFFF DUP3 GT ISZERO PUSH2 0x573 JUMPI PUSH2 0x572 PUSH2 0x4E1 JUMP JUMPDEST JUMPDEST PUSH2 0x57C DUP3 PUSH2 0x4D1 JUMP JUMPDEST SWAP1 POP PUSH1 0x20 DUP2 ADD SWAP1 POP SWAP2 SWAP1 POP JUMP JUMPDEST DUP3 DUP2 DUP4 CALLDATACOPY PUSH0 DUP4 DUP4 ADD MSTORE POP POP POP JUMP JUMPDEST PUSH0 PUSH2 0x5A9 PUSH2 0x5A4 DUP5 PUSH2 0x559 JUMP JUMPDEST PUSH2 0x53F JUMP JUMPDEST SWAP1 POP DUP3 DUP2 MSTORE PUSH1 0x20 DUP2 ADD DUP5 DUP5 DUP5 ADD GT ISZERO PUSH2 0x5C5 JUMPI PUSH2 0x5C4 PUSH2 0x4CD JUMP JUMPDEST JUMPDEST PUSH2 0x5D0 DUP5 DUP3 DUP6 PUSH2 0x589 JUMP JUMPDEST POP SWAP4 SWAP3 POP POP POP JUMP JUMPDEST PUSH0 DUP3 PUSH1 0x1F DUP4 ADD SLT PUSH2 0x5EC JUMPI PUSH2 0x5EB PUSH2 0x4C9 JUMP JUMPDEST JUMPDEST DUP2 CALLDATALOAD PUSH2 0x5FC DUP5 DUP3 PUSH1 0x20 DUP7 ADD PUSH2 0x597 JUMP JUMPDEST SWAP2 POP POP SWAP3 SWAP2 POP POP JUMP JUMPDEST PUSH0 PUSH1 0x20 DUP3 DUP5 SUB SLT ISZERO PUSH2 0x61A JUMPI PUSH2 0x619 PUSH2 0x4C1 JUMP JUMPDEST JUMPDEST PUSH0 DUP3 ADD CALLDATALOAD PUSH8 0xFFFFFFFFFFFFFFFF DUP2 GT ISZERO PUSH2 0x637 JUMPI PUSH2 0x636 PUSH2 0x4C5 JUMP JUMPDEST JUMPDEST PUSH2 0x643 DUP5 DUP3 DUP6 ADD PUSH2 0x5D8 JUMP JUMPDEST SWAP2 POP POP SWAP3 SWAP2 POP POP JUMP JUMPDEST PUSH0 DUP1 PUSH1 0x40 DUP4 DUP6 SUB SLT ISZERO PUSH2 0x662 JUMPI PUSH2 0x661 PUSH2 0x4C1 JUMP JUMPDEST JUMPDEST PUSH0 DUP4 ADD CALLDATALOAD PUSH8 0xFFFFFFFFFFFFFFFF DUP2 GT ISZERO PUSH2 0x67F JUMPI PUSH2 0x67E PUSH2 0x4C5 JUMP JUMPDEST JUMPDEST PUSH2 0x68B DUP6 DUP3 DUP7 ADD PUSH2 0x5D8 JUMP JUMPDEST SWAP3 POP POP PUSH1 0x20 DUP4 ADD CALLDATALOAD PUSH8 0xFFFFFFFFFFFFFFFF DUP2 GT ISZERO PUSH2 0x6AC JUMPI PUSH2 0x6AB PUSH2 0x4C5 JUMP JUMPDEST JUMPDEST PUSH2 0x6B8 DUP6 DUP3 DUP7 ADD PUSH2 0x5D8 JUMP JUMPDEST SWAP2 POP POP SWAP3 POP SWAP3 SWAP1 POP JUMP JUMPDEST PUSH0 DUP2 ISZERO ISZERO SWAP1 POP SWAP2 SWAP1 POP JUMP JUMPDEST PUSH2 0x6D6 DUP2 PUSH2 0x6C2 JUMP JUMPDEST DUP3 MSTORE POP POP JUMP JUMPDEST PUSH0 PUSH1 0x20 DUP3 ADD SWAP1 POP PUSH2 0x6EF PUSH0 DUP4 ADD DUP5 PUSH2 0x6CD JUMP JUMPDEST SWAP3 SWAP2 POP POP JUMP JUMPDEST PUSH0 DUP2 MLOAD SWAP1 POP SWAP2 SWAP1 POP JUMP JUMPDEST PUSH0 DUP2 SWAP1 POP SWAP3 SWAP2 POP POP JUMP JUMPDEST DUP3 DUP2 DUP4 MCOPY PUSH0 DUP4 DUP4 ADD MSTORE POP POP POP JUMP JUMPDEST PUSH0 PUSH2 0x721 DUP3 PUSH2 0x6F5 JUMP JUMPDEST PUSH2 0x72B DUP2 DUP6 PUSH2 0x6FF JUMP JUMPDEST SWAP4 POP PUSH2 0x73B DUP2 DUP6 PUSH1 0x20 DUP7 ADD PUSH2 0x709 JUMP JUMPDEST DUP1 DUP5 ADD SWAP2 POP POP SWAP3 SWAP2 POP POP JUMP JUMPDEST PUSH0 PUSH2 0x752 DUP3 DUP5 PUSH2 0x717 JUMP JUMPDEST SWAP2 POP DUP2 SWAP1 POP SWAP3 SWAP2 POP POP JUMP JUMPDEST PUSH0 DUP3 DUP3 MSTORE PUSH1 0x20 DUP3 ADD SWAP1 POP SWAP3 SWAP2 POP POP JUMP JUMPDEST PUSH32 0x55736572206973206E6F74207265676973746572656400000000000000000000 PUSH0 DUP3 ADD MSTORE POP JUMP JUMPDEST PUSH0 PUSH2 0x7A1 PUSH1 0x16 DUP4 PUSH2 0x75D JUMP JUMPDEST SWAP2 POP PUSH2 0x7AC DUP3 PUSH2 0x76D JUMP JUMPDEST PUSH1 0x20 DUP3 ADD SWAP1 POP SWAP2 SWAP1 POP JUMP JUMPDEST PUSH0 PUSH1 0x20 DUP3 ADD SWAP1 POP DUP2 DUP2 SUB PUSH0 DUP4 ADD MSTORE PUSH2 0x7CE DUP2 PUSH2 0x795 JUMP JUMPDEST SWAP1 POP SWAP2 SWAP1 POP JUMP JUMPDEST PUSH32 0x5573657220697320616C72656164792064656163746976617465640000000000 PUSH0 DUP3 ADD MSTORE POP JUMP JUMPDEST PUSH0 PUSH2 0x809 PUSH1 0x1B DUP4 PUSH2 0x75D JUMP JUMPDEST SWAP2 POP PUSH2 0x814 DUP3 PUSH2 0x7D5 JUMP JUMPDEST PUSH1 0x20 DUP3 ADD SWAP1 POP SWAP2 SWAP1 POP JUMP JUMPDEST PUSH0 PUSH1 0x20 DUP3 ADD SWAP1 POP DUP2 DUP2 SUB PUSH0 DUP4 ADD MSTORE PUSH2 0x836 DUP2 PUSH2 0x7FD JUMP JUMPDEST SWAP1 POP SWAP2 SWAP1 POP JUMP JUMPDEST PUSH32 0x557365722077697468207468697320656D61696C20697320616C726561647920 PUSH0 DUP3 ADD MSTORE PUSH32 0x7265676973746572656400000000000000000000000000000000000000000000 PUSH1 0x20 DUP3 ADD MSTORE POP JUMP JUMPDEST PUSH0 PUSH2 0x897 PUSH1 0x2A DUP4 PUSH2 0x75D JUMP JUMPDEST SWAP2 POP PUSH2 0x8A2 DUP3 PUSH2 0x83D JUMP JUMPDEST PUSH1 0x40 DUP3 ADD SWAP1 POP SWAP2 SWAP1 POP JUMP JUMPDEST PUSH0 PUSH1 0x20 DUP3 ADD SWAP1 POP DUP2 DUP2 SUB PUSH0 DUP4 ADD MSTORE PUSH2 0x8C4 DUP2 PUSH2 0x88B JUMP JUMPDEST SWAP1 POP SWAP2 SWAP1 POP JUMP JUMPDEST PUSH32 0x4E487B7100000000000000000000000000000000000000000000000000000000 PUSH0 MSTORE PUSH1 0x22 PUSH1 0x4 MSTORE PUSH1 0x24 PUSH0 REVERT JUMPDEST PUSH0 PUSH1 0x2 DUP3 DIV SWAP1 POP PUSH1 0x1 DUP3 AND DUP1 PUSH2 0x90F JUMPI PUSH1 0x7F DUP3 AND SWAP2 POP JUMPDEST PUSH1 0x20 DUP3 LT DUP2 SUB PUSH2 0x922 JUMPI PUSH2 0x921 PUSH2 0x8CB JUMP JUMPDEST JUMPDEST POP SWAP2 SWAP1 POP JUMP JUMPDEST PUSH0 DUP2 SWAP1 POP DUP2 PUSH0 MSTORE PUSH1 0x20 PUSH0 KECCAK256 SWAP1 POP SWAP2 SWAP1 POP JUMP JUMPDEST PUSH0 PUSH1 0x20 PUSH1 0x1F DUP4 ADD DIV SWAP1 POP SWAP2 SWAP1 POP JUMP JUMPDEST PUSH0 DUP3 DUP3 SHL SWAP1 POP SWAP3 SWAP2 POP POP JUMP JUMPDEST PUSH0 PUSH1 0x8 DUP4 MUL PUSH2 0x984 PUSH32 0xFFFFFFFFFFFFFFFFFFFFFFFFFFFFFFFFFFFFFFFFFFFFFFFFFFFFFFFFFFFFFFFF DUP3 PUSH2 0x949 JUMP JUMPDEST PUSH2 0x98E DUP7 DUP4 PUSH2 0x949 JUMP JUMPDEST SWAP6 POP DUP1 NOT DUP5 AND SWAP4 POP DUP1 DUP7 AND DUP5 OR SWAP3 POP POP POP SWAP4 SWAP3 POP POP POP JUMP JUMPDEST PUSH0 DUP2 SWAP1 POP SWAP2 SWAP1 POP JUMP JUMPDEST PUSH0 DUP2 SWAP1 POP SWAP2 SWAP1 POP JUMP JUMPDEST PUSH0 PUSH2 0x9D2 PUSH2 0x9CD PUSH2 0x9C8 DUP5 PUSH2 0x9A6 JUMP JUMPDEST PUSH2 0x9AF JUMP JUMPDEST PUSH2 0x9A6 JUMP JUMPDEST SWAP1 POP SWAP2 SWAP1 POP JUMP JUMPDEST PUSH0 DUP2 SWAP1 POP SWAP2 SWAP1 POP JUMP JUMPDEST PUSH2 0x9EB DUP4 PUSH2 0x9B8 JUMP JUMPDEST PUSH2 0x9FF PUSH2 0x9F7 DUP3 PUSH2 0x9D9 JUMP JUMPDEST DUP5 DUP5 SLOAD PUSH2 0x955 JUMP JUMPDEST DUP3 SSTORE POP POP POP POP JUMP JUMPDEST PUSH0 SWAP1 JUMP JUMPDEST PUSH2 0xA13 PUSH2 0xA07 JUMP JUMPDEST PUSH2 0xA1E DUP2 DUP5 DUP5 PUSH2 0x9E2 JUMP JUMPDEST POP POP POP JUMP JUMPDEST JUMPDEST DUP2 DUP2 LT ISZERO PUSH2 0xA41 JUMPI PUSH2 0xA36 PUSH0 DUP3 PUSH2 0xA0B JUMP JUMPDEST PUSH1 0x1 DUP2 ADD SWAP1 POP PUSH2 0xA24 JUMP JUMPDEST POP POP JUMP JUMPDEST PUSH1 0x1F DUP3 GT ISZERO PUSH2 0xA86 JUMPI PUSH2 0xA57 DUP2 PUSH2 0x928 JUMP JUMPDEST PUSH2 0xA60 DUP5 PUSH2 0x93A JUMP JUMPDEST DUP2 ADD PUSH1 0x20 DUP6 LT ISZERO PUSH2 0xA6F JUMPI DUP2 SWAP1 POP JUMPDEST PUSH2 0xA83 PUSH2 0xA7B DUP6 PUSH2 0x93A JUMP JUMPDEST DUP4 ADD DUP3 PUSH2 0xA23 JUMP JUMPDEST POP POP JUMPDEST POP POP POP JUMP JUMPDEST PUSH0 DUP3 DUP3 SHR SWAP1 POP SWAP3 SWAP2 POP POP JUMP JUMPDEST PUSH0 PUSH2 0xAA6 PUSH0 NOT DUP5 PUSH1 0x8 MUL PUSH2 0xA8B JUMP JUMPDEST NOT DUP1 DUP4 AND SWAP2 POP POP SWAP3 SWAP2 POP POP JUMP JUMPDEST PUSH0 PUSH2 0xABE DUP4 DUP4 PUSH2 0xA97 JUMP JUMPDEST SWAP2 POP DUP3 PUSH1 0x2 MUL DUP3 OR SWAP1 POP SWAP3 SWAP2 POP POP JUMP JUMPDEST PUSH2 0xAD7 DUP3 PUSH2 0x6F5 JUMP JUMPDEST PUSH8 0xFFFFFFFFFFFFFFFF DUP2 GT ISZERO PUSH2 0xAF0 JUMPI PUSH2 0xAEF PUSH2 0x4E1 JUMP JUMPDEST JUMPDEST PUSH2 0xAFA DUP3 SLOAD PUSH2 0x8F8 JUMP JUMPDEST PUSH2 0xB05 DUP3 DUP3 DUP6 PUSH2 0xA45 JUMP JUMPDEST PUSH0 PUSH1 0x20 SWAP1 POP PUSH1 0x1F DUP4 GT PUSH1 0x1 DUP2 EQ PUSH2 0xB36 JUMPI PUSH0 DUP5 ISZERO PUSH2 0xB24 JUMPI DUP3 DUP8 ADD MLOAD SWAP1 POP JUMPDEST PUSH2 0xB2E DUP6 DUP3 PUSH2 0xAB3 JUMP JUMPDEST DUP7 SSTORE POP PUSH2 0xB95 JUMP JUMPDEST PUSH1 0x1F NOT DUP5 AND PUSH2 0xB44 DUP7 PUSH2 0x928 JUMP JUMPDEST PUSH0 JUMPDEST DUP3 DUP2 LT ISZERO PUSH2 0xB6B JUMPI DUP5 DUP10 ADD MLOAD DUP3 SSTORE PUSH1 0x1 DUP3 ADD SWAP2 POP PUSH1 0x20 DUP6 ADD SWAP5 POP PUSH1 0x20 DUP2 ADD SWAP1 POP PUSH2 0xB46 JUMP JUMPDEST DUP7 DUP4 LT ISZERO PUSH2 0xB88 JUMPI DUP5 DUP10 ADD MLOAD PUSH2 0xB84 PUSH1 0x1F DUP10 AND DUP3 PUSH2 0xA97 JUMP JUMPDEST DUP4 SSTORE POP JUMPDEST PUSH1 0x1 PUSH1 0x2 DUP9 MUL ADD DUP9 SSTORE POP POP POP JUMPDEST POP POP POP POP POP POP JUMP INVALID LOG2 PUSH5 0x6970667358 0x22 SLT KECCAK256 SAR 0x1E 0xE PUSH3 0xDD2539 LT 0xFB 0xC7 RETURNDATACOPY 0xEF MLOAD SWAP11 PUSH25 0xEDAC1442EE2427839F73055644B10285C964736F6C63430008 BYTE STOP CALLER "
		},
		"gasEstimates": {
			"creation": {
				"codeDepositCost": "605400",
				"executionCost": "636",
				"totalCost": "606036"
			},
			"external": {
				"authenticate(string,string)": "infinite",
				"deactivate(string)": "infinite",
				"isActive(string)": "infinite",
				"isRegistered(string)": "infinite",
				"register(string,string)": "infinite"
			}
		},
		"methodIdentifiers": {
			"authenticate(string,string)": "544541b3",
			"deactivate(string)": "27ee999d",
			"isActive(string)": "c8902a21",
			"isRegistered(string)": "c822d7f0",
			"register(string,string)": "3ffbd47f"
		}
	},
	"abi": [
		{
			"inputs": [
				{
					"internalType": "string",
					"name": "_email",
					"type": "string"
				},
				{
					"internalType": "string",
					"name": "_password",
					"type": "string"
				}
			],
			"name": "authenticate",
			"outputs": [
				{
					"internalType": "bool",
					"name": "",
					"type": "bool"
				}
			],
			"stateMutability": "view",
			"type": "function"
		},
		{
			"inputs": [
				{
					"internalType": "string",
					"name": "_email",
					"type": "string"
				}
			],
			"name": "deactivate",
			"outputs": [],
			"stateMutability": "nonpayable",
			"type": "function"
		},
		{
			"inputs": [
				{
					"internalType": "string",
					"name": "_email",
					"type": "string"
				}
			],
			"name": "isActive",
			"outputs": [
				{
					"internalType": "bool",
					"name": "",
					"type": "bool"
				}
			],
			"stateMutability": "view",
			"type": "function"
		},
		{
			"inputs": [
				{
					"internalType": "string",
					"name": "_email",
					"type": "string"
				}
			],
			"name": "isRegistered",
			"outputs": [
				{
					"internalType": "bool",
					"name": "",
					"type": "bool"
				}
			],
			"stateMutability": "view",
			"type": "function"
		},
		{
			"inputs": [
				{
					"internalType": "string",
					"name": "_email",
					"type": "string"
				},
				{
					"internalType": "string",
					"name": "_password",
					"type": "string"
				}
			],
			"name": "register",
			"outputs": [],
			"stateMutability": "nonpayable",
			"type": "function"
		}
	]
}