{
	"tests/UserRegistration_test.sol": {
		"UserRegistrationTest": {
			"abi": [
				{
					"inputs": [],
					"name": "beforeEach",
					"outputs": [],
					"stateMutability": "nonpayable",
					"type": "function"
				},
				{
					"inputs": [],
					"name": "testRegisterUser",
					"outputs": [],
					"stateMutability": "nonpayable",
					"type": "function"
				}
			],
			"devdoc": {
				"kind": "dev",
				"methods": {},
				"version": 1
			},
			"evm": {
				"assembly": "    /* \"tests/UserRegistration_test.sol\":136:571  contract UserRegistrationTest {... */\n  mstore(0x40, 0x80)\n  callvalue\n  dup1\n  iszero\n  tag_1\n  jumpi\n  0x00\n  dup1\n  revert\ntag_1:\n  pop\n  dataSize(sub_0)\n  dup1\n  dataOffset(sub_0)\n  0x00\n  codecopy\n  0x00\n  return\nstop\n\nsub_0: assembly {\n        /* \"tests/UserRegistration_test.sol\":136:571  contract UserRegistrationTest {... */\n      mstore(0x40, 0x80)\n      callvalue\n      dup1\n      iszero\n      tag_1\n      jumpi\n      0x00\n      dup1\n      revert\n    tag_1:\n      pop\n      jumpi(tag_2, lt(calldatasize, 0x04))\n      shr(0xe0, calldataload(0x00))\n      dup1\n      0x6331e7d4\n      eq\n      tag_3\n      jumpi\n      dup1\n      0xeb4c35cb\n      eq\n      tag_4\n      jumpi\n    tag_2:\n      0x00\n      dup1\n      revert\n        /* \"tests/UserRegistration_test.sol\":213:303  function beforeEach() public {... */\n    tag_3:\n      tag_5\n      tag_6\n      jump\t// in\n    tag_5:\n      stop\n        /* \"tests/UserRegistration_test.sol\":311:558  function testRegisterUser() public {... */\n    tag_4:\n      tag_5\n      tag_8\n      jump\t// in\n        /* \"tests/UserRegistration_test.sol\":213:303  function beforeEach() public {... */\n    tag_6:\n        /* \"tests/UserRegistration_test.sol\":272:294  new UserRegistration() */\n      mload(0x40)\n      tag_10\n      swap1\n      tag_11\n      jump\t// in\n    tag_10:\n      mload(0x40)\n      dup1\n      swap2\n      sub\n      swap1\n      0x00\n      create\n      dup1\n      iszero\n      dup1\n      iszero\n      tag_12\n      jumpi\n      returndatasize\n      0x00\n      dup1\n      returndatacopy\n      revert(0x00, returndatasize)\n    tag_12:\n      pop\n        /* \"tests/UserRegistration_test.sol\":253:269  userRegistration */\n      0x00\n        /* \"tests/UserRegistration_test.sol\":253:294  userRegistration = new UserRegistration() */\n      dup1\n      sload\n      not(sub(shl(0xa0, 0x01), 0x01))\n      and\n      sub(shl(0xa0, 0x01), 0x01)\n      swap3\n      swap1\n      swap3\n      and\n      swap2\n      swap1\n      swap2\n      or\n      swap1\n      sstore\n        /* \"tests/UserRegistration_test.sol\":213:303  function beforeEach() public {... */\n      jump\t// out\n        /* \"tests/UserRegistration_test.sol\":311:558  function testRegisterUser() public {... */\n    tag_8:\n        /* \"tests/UserRegistration_test.sol\":357:373  userRegistration */\n      0x00\n      dup1\n      sload\n        /* \"tests/UserRegistration_test.sol\":357:384  userRegistration.register() */\n      0x40\n      dup1\n      mload\n      shl(0xe3, 0x03547401)\n      dup2\n      mstore\n      swap1\n      mload\n      sub(shl(0xa0, 0x01), 0x01)\n        /* \"tests/UserRegistration_test.sol\":357:373  userRegistration */\n      swap1\n      swap3\n      and\n      swap3\n        /* \"tests/UserRegistration_test.sol\":357:382  userRegistration.register */\n      0x1aa3a008\n      swap3\n        /* \"tests/UserRegistration_test.sol\":357:384  userRegistration.register() */\n      0x04\n      dup1\n      dup5\n      add\n      swap4\n      dup3\n      swap1\n      sub\n      add\n      dup2\n        /* \"tests/UserRegistration_test.sol\":357:373  userRegistration */\n      dup4\n      dup8\n        /* \"tests/UserRegistration_test.sol\":357:384  userRegistration.register() */\n      dup1\n      extcodesize\n      iszero\n      dup1\n      iszero\n      tag_14\n      jumpi\n      0x00\n      dup1\n      revert\n    tag_14:\n      pop\n      gas\n      call\n      iszero\n      dup1\n      iszero\n      tag_16\n      jumpi\n      returndatasize\n      0x00\n      dup1\n      returndatacopy\n      revert(0x00, returndatasize)\n    tag_16:\n      pop\n      pop\n        /* \"tests/UserRegistration_test.sol\":459:475  userRegistration */\n      sload(0x00)\n        /* \"tests/UserRegistration_test.sol\":459:499  userRegistration.isActive(address(this)) */\n      mload(0x40)\n      shl(0xe0, 0x9f8a13d7)\n      dup2\n      mstore\n        /* \"tests/UserRegistration_test.sol\":493:497  this */\n      address\n        /* \"tests/UserRegistration_test.sol\":459:499  userRegistration.isActive(address(this)) */\n      0x04\n      dup3\n      add\n        /* \"#utility.yul\":160:211   */\n      mstore\n        /* \"tests/UserRegistration_test.sol\":446:452  Assert */\n      linkerSymbol(\"acbfb1c35000d78352310b16a054a6b1066124b9c6f054b10c085f549bff80c6\")\n      swap4\n      pop\n        /* \"tests/UserRegistration_test.sol\":446:458  Assert.equal */\n      0x767392b3\n      swap3\n      pop\n      sub(shl(0xa0, 0x01), 0x01)\n        /* \"tests/UserRegistration_test.sol\":459:475  userRegistration */\n      swap1\n      swap2\n      and\n      swap1\n        /* \"tests/UserRegistration_test.sol\":459:484  userRegistration.isActive */\n      0x9f8a13d7\n      swap1\n        /* \"#utility.yul\":133:151   */\n      0x24\n      add\n        /* \"tests/UserRegistration_test.sol\":459:499  userRegistration.isActive(address(this)) */\n      0x20\n      mload(0x40)\n      dup1\n      dup4\n      sub\n      dup2\n      dup7\n      gas\n      staticcall\n      iszero\n      dup1\n      iszero\n      tag_20\n      jumpi\n      returndatasize\n      0x00\n      dup1\n      returndatacopy\n      revert(0x00, returndatasize)\n    tag_20:\n      pop\n      pop\n      pop\n      pop\n      mload(0x40)\n      returndatasize\n      not(0x1f)\n      0x1f\n      dup3\n      add\n      and\n      dup3\n      add\n      dup1\n      0x40\n      mstore\n      pop\n      dup2\n      add\n      swap1\n      tag_21\n      swap2\n      swap1\n      tag_22\n      jump\t// in\n    tag_21:\n        /* \"tests/UserRegistration_test.sol\":446:550  Assert.equal(userRegistration.isActive(address(this)), true, \"User should be active after registration\") */\n      mload(0x40)\n      not(sub(shl(0xe0, 0x01), 0x01))\n      0xe0\n      dup5\n      swap1\n      shl\n      and\n      dup2\n      mstore\n        /* \"#utility.yul\":765:779   */\n      swap1\n      iszero\n        /* \"#utility.yul\":758:780   */\n      iszero\n        /* \"tests/UserRegistration_test.sol\":446:550  Assert.equal(userRegistration.isActive(address(this)), true, \"User should be active after registration\") */\n      0x04\n      dup3\n      add\n        /* \"#utility.yul\":740:781   */\n      mstore\n        /* \"tests/UserRegistration_test.sol\":501:505  true */\n      0x01\n        /* \"#utility.yul\":797:815   */\n      0x24\n      dup3\n      add\n        /* \"#utility.yul\":790:840   */\n      mstore\n        /* \"#utility.yul\":876:878   */\n      0x60\n        /* \"#utility.yul\":856:874   */\n      0x44\n      dup3\n      add\n        /* \"#utility.yul\":849:879   */\n      mstore\n        /* \"#utility.yul\":915:917   */\n      0x28\n        /* \"#utility.yul\":895:913   */\n      0x64\n      dup3\n      add\n        /* \"#utility.yul\":888:918   */\n      mstore\n        /* \"#utility.yul\":955:989   */\n      0x557365722073686f756c64206265206163746976652061667465722072656769\n        /* \"#utility.yul\":934:953   */\n      0x84\n      dup3\n      add\n        /* \"#utility.yul\":927:990   */\n      mstore\n      shl(0xc1, 0x39ba3930ba34b7b7)\n        /* \"#utility.yul\":1006:1025   */\n      0xa4\n      dup3\n      add\n        /* \"#utility.yul\":999:1038   */\n      mstore\n        /* \"#utility.yul\":1055:1074   */\n      0xc4\n      add\n        /* \"tests/UserRegistration_test.sol\":446:550  Assert.equal(userRegistration.isActive(address(this)), true, \"User should be active after registration\") */\n      0x20\n      mload(0x40)\n      dup1\n      dup4\n      sub\n      dup2\n      dup7\n      gas\n      delegatecall\n      iszero\n      dup1\n      iszero\n      tag_26\n      jumpi\n      returndatasize\n      0x00\n      dup1\n      returndatacopy\n      revert(0x00, returndatasize)\n    tag_26:\n      pop\n      pop\n      pop\n      pop\n      mload(0x40)\n      returndatasize\n      not(0x1f)\n      0x1f\n      dup3\n      add\n      and\n      dup3\n      add\n      dup1\n      0x40\n      mstore\n      pop\n      dup2\n      add\n      swap1\n      tag_27\n      swap2\n      swap1\n      tag_22\n      jump\t// in\n    tag_27:\n      pop\n        /* \"tests/UserRegistration_test.sol\":311:558  function testRegisterUser() public {... */\n      jump\t// out\n    tag_11:\n      dataSize(sub_0)\n      dup1\n      dataOffset(sub_0)\n      dup4\n      codecopy\n      add\n      swap1\n      jump\t// out\n        /* \"#utility.yul\":222:499   */\n    tag_22:\n        /* \"#utility.yul\":289:295   */\n      0x00\n        /* \"#utility.yul\":342:344   */\n      0x20\n        /* \"#utility.yul\":330:339   */\n      dup3\n        /* \"#utility.yul\":321:328   */\n      dup5\n        /* \"#utility.yul\":317:340   */\n      sub\n        /* \"#utility.yul\":313:345   */\n      slt\n        /* \"#utility.yul\":310:362   */\n      iszero\n      tag_31\n      jumpi\n        /* \"#utility.yul\":358:359   */\n      0x00\n        /* \"#utility.yul\":355:356   */\n      dup1\n        /* \"#utility.yul\":348:360   */\n      revert\n        /* \"#utility.yul\":310:362   */\n    tag_31:\n        /* \"#utility.yul\":390:399   */\n      dup2\n        /* \"#utility.yul\":384:400   */\n      mload\n        /* \"#utility.yul\":443:448   */\n      dup1\n        /* \"#utility.yul\":436:449   */\n      iszero\n        /* \"#utility.yul\":429:450   */\n      iszero\n        /* \"#utility.yul\":422:427   */\n      dup2\n        /* \"#utility.yul\":419:451   */\n      eq\n        /* \"#utility.yul\":409:469   */\n      tag_32\n      jumpi\n        /* \"#utility.yul\":465:466   */\n      0x00\n        /* \"#utility.yul\":462:463   */\n      dup1\n        /* \"#utility.yul\":455:467   */\n      revert\n        /* \"#utility.yul\":409:469   */\n    tag_32:\n        /* \"#utility.yul\":488:493   */\n      swap4\n        /* \"#utility.yul\":222:499   */\n      swap3\n      pop\n      pop\n      pop\n      jump\t// out\n    stop\n\n    sub_0: assembly {\n            /* \"contracts/UserRegistration.sol\":61:605  contract UserRegistration {... */\n          mstore(0x40, 0x80)\n          callvalue\n          dup1\n          iszero\n          tag_1\n          jumpi\n          0x00\n          dup1\n          revert\n        tag_1:\n          pop\n          dataSize(sub_0)\n          dup1\n          dataOffset(sub_0)\n          0x00\n          codecopy\n          0x00\n          return\n        stop\n\n        sub_0: assembly {\n                /* \"contracts/UserRegistration.sol\":61:605  contract UserRegistration {... */\n              mstore(0x40, 0x80)\n              callvalue\n              dup1\n              iszero\n              tag_1\n              jumpi\n              0x00\n              dup1\n              revert\n            tag_1:\n              pop\n              jumpi(tag_2, lt(calldatasize, 0x04))\n              shr(0xe0, calldataload(0x00))\n              dup1\n              0x1aa3a008\n              eq\n              tag_3\n              jumpi\n              dup1\n              0x9f8a13d7\n              eq\n              tag_4\n              jumpi\n            tag_2:\n              0x00\n              dup1\n              revert\n                /* \"contracts/UserRegistration.sol\":221:440  function register() public {... */\n            tag_3:\n              tag_5\n              tag_6\n              jump\t// in\n            tag_5:\n              stop\n                /* \"contracts/UserRegistration.sol\":497:602  function isActive(address user) public view returns (bool) {... */\n            tag_4:\n              tag_7\n              tag_8\n              calldatasize\n              0x04\n              tag_9\n              jump\t// in\n            tag_8:\n              sub(shl(0xa0, 0x01), 0x01)\n                /* \"contracts/UserRegistration.sol\":574:585  users[user] */\n              and\n                /* \"contracts/UserRegistration.sol\":550:554  bool */\n              0x00\n                /* \"contracts/UserRegistration.sol\":574:585  users[user] */\n              swap1\n              dup2\n              mstore\n              0x20\n              dup2\n              swap1\n              mstore\n              0x40\n              swap1\n              keccak256\n                /* \"contracts/UserRegistration.sol\":574:594  users[user].isActive */\n              sload\n              0x0100\n              swap1\n              div\n              0xff\n              and\n              swap1\n                /* \"contracts/UserRegistration.sol\":497:602  function isActive(address user) public view returns (bool) {... */\n              jump\n            tag_7:\n              mload(0x40)\n                /* \"#utility.yul\":470:484   */\n              swap1\n              iszero\n                /* \"#utility.yul\":463:485   */\n              iszero\n                /* \"#utility.yul\":445:486   */\n              dup2\n              mstore\n                /* \"#utility.yul\":433:435   */\n              0x20\n                /* \"#utility.yul\":418:436   */\n              add\n                /* \"contracts/UserRegistration.sol\":497:602  function isActive(address user) public view returns (bool) {... */\n              mload(0x40)\n              dup1\n              swap2\n              sub\n              swap1\n              return\n                /* \"contracts/UserRegistration.sol\":221:440  function register() public {... */\n            tag_6:\n                /* \"contracts/UserRegistration.sol\":274:284  msg.sender */\n              caller\n                /* \"contracts/UserRegistration.sol\":268:273  users */\n              0x00\n                /* \"contracts/UserRegistration.sol\":268:285  users[msg.sender] */\n              swap1\n              dup2\n              mstore\n              0x20\n              dup2\n              swap1\n              mstore\n              0x40\n              swap1\n              keccak256\n                /* \"contracts/UserRegistration.sol\":268:298  users[msg.sender].isRegistered */\n              sload\n              0xff\n              and\n                /* \"contracts/UserRegistration.sol\":267:298  !users[msg.sender].isRegistered */\n              iszero\n                /* \"contracts/UserRegistration.sol\":259:329  require(!users[msg.sender].isRegistered, \"User is already registered\") */\n              tag_14\n              jumpi\n              mload(0x40)\n              shl(0xe5, 0x461bcd)\n              dup2\n              mstore\n                /* \"#utility.yul\":699:701   */\n              0x20\n                /* \"contracts/UserRegistration.sol\":259:329  require(!users[msg.sender].isRegistered, \"User is already registered\") */\n              0x04\n              dup3\n              add\n                /* \"#utility.yul\":681:702   */\n              mstore\n                /* \"#utility.yul\":738:740   */\n              0x1a\n                /* \"#utility.yul\":718:736   */\n              0x24\n              dup3\n              add\n                /* \"#utility.yul\":711:741   */\n              mstore\n                /* \"#utility.yul\":777:805   */\n              0x5573657220697320616c72656164792072656769737465726564000000000000\n                /* \"#utility.yul\":757:775   */\n              0x44\n              dup3\n              add\n                /* \"#utility.yul\":750:806   */\n              mstore\n                /* \"#utility.yul\":823:841   */\n              0x64\n              add\n                /* \"contracts/UserRegistration.sol\":259:329  require(!users[msg.sender].isRegistered, \"User is already registered\") */\n              mload(0x40)\n              dup1\n              swap2\n              sub\n              swap1\n              revert\n            tag_14:\n                /* \"contracts/UserRegistration.sol\":356:366  msg.sender */\n              caller\n                /* \"contracts/UserRegistration.sol\":350:355  users */\n              0x00\n                /* \"contracts/UserRegistration.sol\":350:367  users[msg.sender] */\n              swap1\n              dup2\n              mstore\n              0x20\n              dup2\n              swap1\n              mstore\n              0x40\n              swap1\n              keccak256\n                /* \"contracts/UserRegistration.sol\":350:387  users[msg.sender].isRegistered = true */\n              dup1\n              sload\n              not(0xffff)\n                /* \"contracts/UserRegistration.sol\":398:431  users[msg.sender].isActive = true */\n              and\n              0x0101\n              or\n              swap1\n              sstore\n                /* \"contracts/UserRegistration.sol\":221:440  function register() public {... */\n              jump\t// out\n                /* \"#utility.yul\":14:300   */\n            tag_9:\n                /* \"#utility.yul\":73:79   */\n              0x00\n                /* \"#utility.yul\":126:128   */\n              0x20\n                /* \"#utility.yul\":114:123   */\n              dup3\n                /* \"#utility.yul\":105:112   */\n              dup5\n                /* \"#utility.yul\":101:124   */\n              sub\n                /* \"#utility.yul\":97:129   */\n              slt\n                /* \"#utility.yul\":94:146   */\n              iszero\n              tag_20\n              jumpi\n                /* \"#utility.yul\":142:143   */\n              0x00\n                /* \"#utility.yul\":139:140   */\n              dup1\n                /* \"#utility.yul\":132:144   */\n              revert\n                /* \"#utility.yul\":94:146   */\n            tag_20:\n                /* \"#utility.yul\":168:191   */\n              dup2\n              calldataload\n              sub(shl(0xa0, 0x01), 0x01)\n                /* \"#utility.yul\":220:251   */\n              dup2\n              and\n                /* \"#utility.yul\":210:252   */\n              dup2\n              eq\n                /* \"#utility.yul\":200:270   */\n              tag_21\n              jumpi\n                /* \"#utility.yul\":266:267   */\n              0x00\n                /* \"#utility.yul\":263:264   */\n              dup1\n                /* \"#utility.yul\":256:268   */\n              revert\n                /* \"#utility.yul\":200:270   */\n            tag_21:\n                /* \"#utility.yul\":289:294   */\n              swap4\n                /* \"#utility.yul\":14:300   */\n              swap3\n              pop\n              pop\n              pop\n              jump\t// out\n\n            auxdata: 0xa26469706673582212204e7a0ce8dc58054806dbb24332b808de31eafc070d42cf71fc29aff9e6c5b38a64736f6c634300081a0033\n        }\n    }\n\n    auxdata: 0xa26469706673582212208e5555a19b35478a36b1113d7665bec2259485769ae282bf2998d1761ee1f05864736f6c634300081a0033\n}\n",
				"bytecode": {
					"linkReferences": {
						"remix_tests.sol": {
							"Assert": [
								{
									"length": 20,
									"start": 279
								}
							]
						}
					},
					"object": "6080604052348015600e575f80fd5b506104068061001c5f395ff3fe608060405234801561000f575f80fd5b5060043610610034575f3560e01c80636331e7d414610038578063eb4c35cb14610042575b5f80fd5b61004061004a565b005b610040610091565b60405161005690610218565b604051809103905ff08015801561006f573d5f803e3d5ffd5b505f80546001600160a01b0319166001600160a01b0392909216919091179055565b5f805460408051630354740160e31b815290516001600160a01b0390921692631aa3a0089260048084019382900301818387803b1580156100d0575f80fd5b505af11580156100e2573d5f803e3d5ffd5b50505f54604051639f8a13d760e01b815230600482015273__$acbfb1c35000d78352310b16a054a6b106$__935063767392b392506001600160a01b0390911690639f8a13d790602401602060405180830381865afa158015610147573d5f803e3d5ffd5b505050506040513d601f19601f8201168201806040525081019061016b9190610225565b6040516001600160e01b031960e084901b16815290151560048201526001602482015260606044820152602860648201527f557365722073686f756c6420626520616374697665206166746572207265676960848201526739ba3930ba34b7b760c11b60a482015260c401602060405180830381865af41580156101f1573d5f803e3d5ffd5b505050506040513d601f19601f820116820180604052508101906102159190610225565b50565b6101858061024c83390190565b5f60208284031215610235575f80fd5b81518015158114610244575f80fd5b939250505056fe6080604052348015600e575f80fd5b506101698061001c5f395ff3fe608060405234801561000f575f80fd5b5060043610610034575f3560e01c80631aa3a008146100385780639f8a13d714610042575b5f80fd5b610040610086565b005b610072610050366004610106565b6001600160a01b03165f90815260208190526040902054610100900460ff1690565b604051901515815260200160405180910390f35b335f9081526020819052604090205460ff16156100e95760405162461bcd60e51b815260206004820152601a60248201527f5573657220697320616c72656164792072656769737465726564000000000000604482015260640160405180910390fd5b335f908152602081905260409020805461ffff1916610101179055565b5f60208284031215610116575f80fd5b81356001600160a01b038116811461012c575f80fd5b939250505056fea26469706673582212204e7a0ce8dc58054806dbb24332b808de31eafc070d42cf71fc29aff9e6c5b38a64736f6c634300081a0033a26469706673582212208e5555a19b35478a36b1113d7665bec2259485769ae282bf2998d1761ee1f05864736f6c634300081a0033",
					"opcodes": "PUSH1 0x80 PUSH1 0x40 MSTORE CALLVALUE DUP1 ISZERO PUSH1 0xE JUMPI PUSH0 DUP1 REVERT JUMPDEST POP PUSH2 0x406 DUP1 PUSH2 0x1C PUSH0 CODECOPY PUSH0 RETURN INVALID PUSH1 0x80 PUSH1 0x40 MSTORE CALLVALUE DUP1 ISZERO PUSH2 0xF JUMPI PUSH0 DUP1 REVERT JUMPDEST POP PUSH1 0x4 CALLDATASIZE LT PUSH2 0x34 JUMPI PUSH0 CALLDATALOAD PUSH1 0xE0 SHR DUP1 PUSH4 0x6331E7D4 EQ PUSH2 0x38 JUMPI DUP1 PUSH4 0xEB4C35CB EQ PUSH2 0x42 JUMPI JUMPDEST PUSH0 DUP1 REVERT JUMPDEST PUSH2 0x40 PUSH2 0x4A JUMP JUMPDEST STOP JUMPDEST PUSH2 0x40 PUSH2 0x91 JUMP JUMPDEST PUSH1 0x40 MLOAD PUSH2 0x56 SWAP1 PUSH2 0x218 JUMP JUMPDEST PUSH1 0x40 MLOAD DUP1 SWAP2 SUB SWAP1 PUSH0 CREATE DUP1 ISZERO DUP1 ISZERO PUSH2 0x6F JUMPI RETURNDATASIZE PUSH0 DUP1 RETURNDATACOPY RETURNDATASIZE PUSH0 REVERT JUMPDEST POP PUSH0 DUP1 SLOAD PUSH1 0x1 PUSH1 0x1 PUSH1 0xA0 SHL SUB NOT AND PUSH1 0x1 PUSH1 0x1 PUSH1 0xA0 SHL SUB SWAP3 SWAP1 SWAP3 AND SWAP2 SWAP1 SWAP2 OR SWAP1 SSTORE JUMP JUMPDEST PUSH0 DUP1 SLOAD PUSH1 0x40 DUP1 MLOAD PUSH4 0x3547401 PUSH1 0xE3 SHL DUP2 MSTORE SWAP1 MLOAD PUSH1 0x1 PUSH1 0x1 PUSH1 0xA0 SHL SUB SWAP1 SWAP3 AND SWAP3 PUSH4 0x1AA3A008 SWAP3 PUSH1 0x4 DUP1 DUP5 ADD SWAP4 DUP3 SWAP1 SUB ADD DUP2 DUP4 DUP8 DUP1 EXTCODESIZE ISZERO DUP1 ISZERO PUSH2 0xD0 JUMPI PUSH0 DUP1 REVERT JUMPDEST POP GAS CALL ISZERO DUP1 ISZERO PUSH2 0xE2 JUMPI RETURNDATASIZE PUSH0 DUP1 RETURNDATACOPY RETURNDATASIZE PUSH0 REVERT JUMPDEST POP POP PUSH0 SLOAD PUSH1 0x40 MLOAD PUSH4 0x9F8A13D7 PUSH1 0xE0 SHL DUP2 MSTORE ADDRESS PUSH1 0x4 DUP3 ADD MSTORE PUSH20 0x0 SWAP4 POP PUSH4 0x767392B3 SWAP3 POP PUSH1 0x1 PUSH1 0x1 PUSH1 0xA0 SHL SUB SWAP1 SWAP2 AND SWAP1 PUSH4 0x9F8A13D7 SWAP1 PUSH1 0x24 ADD PUSH1 0x20 PUSH1 0x40 MLOAD DUP1 DUP4 SUB DUP2 DUP7 GAS STATICCALL ISZERO DUP1 ISZERO PUSH2 0x147 JUMPI RETURNDATASIZE PUSH0 DUP1 RETURNDATACOPY RETURNDATASIZE PUSH0 REVERT JUMPDEST POP POP POP POP PUSH1 0x40 MLOAD RETURNDATASIZE PUSH1 0x1F NOT PUSH1 0x1F DUP3 ADD AND DUP3 ADD DUP1 PUSH1 0x40 MSTORE POP DUP2 ADD SWAP1 PUSH2 0x16B SWAP2 SWAP1 PUSH2 0x225 JUMP JUMPDEST PUSH1 0x40 MLOAD PUSH1 0x1 PUSH1 0x1 PUSH1 0xE0 SHL SUB NOT PUSH1 0xE0 DUP5 SWAP1 SHL AND DUP2 MSTORE SWAP1 ISZERO ISZERO PUSH1 0x4 DUP3 ADD MSTORE PUSH1 0x1 PUSH1 0x24 DUP3 ADD MSTORE PUSH1 0x60 PUSH1 0x44 DUP3 ADD MSTORE PUSH1 0x28 PUSH1 0x64 DUP3 ADD MSTORE PUSH32 0x557365722073686F756C64206265206163746976652061667465722072656769 PUSH1 0x84 DUP3 ADD MSTORE PUSH8 0x39BA3930BA34B7B7 PUSH1 0xC1 SHL PUSH1 0xA4 DUP3 ADD MSTORE PUSH1 0xC4 ADD PUSH1 0x20 PUSH1 0x40 MLOAD DUP1 DUP4 SUB DUP2 DUP7 GAS DELEGATECALL ISZERO DUP1 ISZERO PUSH2 0x1F1 JUMPI RETURNDATASIZE PUSH0 DUP1 RETURNDATACOPY RETURNDATASIZE PUSH0 REVERT JUMPDEST POP POP POP POP PUSH1 0x40 MLOAD RETURNDATASIZE PUSH1 0x1F NOT PUSH1 0x1F DUP3 ADD AND DUP3 ADD DUP1 PUSH1 0x40 MSTORE POP DUP2 ADD SWAP1 PUSH2 0x215 SWAP2 SWAP1 PUSH2 0x225 JUMP JUMPDEST POP JUMP JUMPDEST PUSH2 0x185 DUP1 PUSH2 0x24C DUP4 CODECOPY ADD SWAP1 JUMP JUMPDEST PUSH0 PUSH1 0x20 DUP3 DUP5 SUB SLT ISZERO PUSH2 0x235 JUMPI PUSH0 DUP1 REVERT JUMPDEST DUP2 MLOAD DUP1 ISZERO ISZERO DUP2 EQ PUSH2 0x244 JUMPI PUSH0 DUP1 REVERT JUMPDEST SWAP4 SWAP3 POP POP POP JUMP INVALID PUSH1 0x80 PUSH1 0x40 MSTORE CALLVALUE DUP1 ISZERO PUSH1 0xE JUMPI PUSH0 DUP1 REVERT JUMPDEST POP PUSH2 0x169 DUP1 PUSH2 0x1C PUSH0 CODECOPY PUSH0 RETURN INVALID PUSH1 0x80 PUSH1 0x40 MSTORE CALLVALUE DUP1 ISZERO PUSH2 0xF JUMPI PUSH0 DUP1 REVERT JUMPDEST POP PUSH1 0x4 CALLDATASIZE LT PUSH2 0x34 JUMPI PUSH0 CALLDATALOAD PUSH1 0xE0 SHR DUP1 PUSH4 0x1AA3A008 EQ PUSH2 0x38 JUMPI DUP1 PUSH4 0x9F8A13D7 EQ PUSH2 0x42 JUMPI JUMPDEST PUSH0 DUP1 REVERT JUMPDEST PUSH2 0x40 PUSH2 0x86 JUMP JUMPDEST STOP JUMPDEST PUSH2 0x72 PUSH2 0x50 CALLDATASIZE PUSH1 0x4 PUSH2 0x106 JUMP JUMPDEST PUSH1 0x1 PUSH1 0x1 PUSH1 0xA0 SHL SUB AND PUSH0 SWAP1 DUP2 MSTORE PUSH1 0x20 DUP2 SWAP1 MSTORE PUSH1 0x40 SWAP1 KECCAK256 SLOAD PUSH2 0x100 SWAP1 DIV PUSH1 0xFF AND SWAP1 JUMP JUMPDEST PUSH1 0x40 MLOAD SWAP1 ISZERO ISZERO DUP2 MSTORE PUSH1 0x20 ADD PUSH1 0x40 MLOAD DUP1 SWAP2 SUB SWAP1 RETURN JUMPDEST CALLER PUSH0 SWAP1 DUP2 MSTORE PUSH1 0x20 DUP2 SWAP1 MSTORE PUSH1 0x40 SWAP1 KECCAK256 SLOAD PUSH1 0xFF AND ISZERO PUSH2 0xE9 JUMPI PUSH1 0x40 MLOAD PUSH3 0x461BCD PUSH1 0xE5 SHL DUP2 MSTORE PUSH1 0x20 PUSH1 0x4 DUP3 ADD MSTORE PUSH1 0x1A PUSH1 0x24 DUP3 ADD MSTORE PUSH32 0x5573657220697320616C72656164792072656769737465726564000000000000 PUSH1 0x44 DUP3 ADD MSTORE PUSH1 0x64 ADD PUSH1 0x40 MLOAD DUP1 SWAP2 SUB SWAP1 REVERT JUMPDEST CALLER PUSH0 SWAP1 DUP2 MSTORE PUSH1 0x20 DUP2 SWAP1 MSTORE PUSH1 0x40 SWAP1 KECCAK256 DUP1 SLOAD PUSH2 0xFFFF NOT AND PUSH2 0x101 OR SWAP1 SSTORE JUMP JUMPDEST PUSH0 PUSH1 0x20 DUP3 DUP5 SUB SLT ISZERO PUSH2 0x116 JUMPI PUSH0 DUP1 REVERT JUMPDEST DUP2 CALLDATALOAD PUSH1 0x1 PUSH1 0x1 PUSH1 0xA0 SHL SUB DUP2 AND DUP2 EQ PUSH2 0x12C JUMPI PUSH0 DUP1 REVERT JUMPDEST SWAP4 SWAP3 POP POP POP JUMP INVALID LOG2 PUSH5 0x6970667358 0x22 SLT KECCAK256 0x4E PUSH27 0xCE8DC58054806DBB24332B808DE31EAFC070D42CF71FC29AFF9E6 0xC5 0xB3 DUP11 PUSH5 0x736F6C6343 STOP ADDMOD BYTE STOP CALLER LOG2 PUSH5 0x6970667358 0x22 SLT KECCAK256 DUP15 SSTORE SSTORE LOG1 SWAP12 CALLDATALOAD SELFBALANCE DUP11 CALLDATASIZE 0xB1 GT RETURNDATASIZE PUSH23 0x65BEC2259485769AE282BF2998D1761EE1F05864736F6C PUSH4 0x4300081A STOP CALLER "
				},
				"gasEstimates": {
					"creation": {
						"codeDepositCost": "206000",
						"executionCost": "249",
						"totalCost": "206249"
					},
					"external": {
						"beforeEach()": "infinite",
						"testRegisterUser()": "infinite"
					}
				},
				"methodIdentifiers": {
					"beforeEach()": "6331e7d4",
					"testRegisterUser()": "eb4c35cb"
				}
			},
			"storageLayout": {
				"storage": [
					{
						"astId": 819,
						"contract": "tests/UserRegistration_test.sol:UserRegistrationTest",
						"label": "userRegistration",
						"offset": 0,
						"slot": "0",
						"type": "t_contract(UserRegistration)61"
					}
				],
				"types": {
					"t_contract(UserRegistration)61": {
						"encoding": "inplace",
						"label": "contract UserRegistration",
						"numberOfBytes": "20"
					}
				}
			},
			"userdoc": {
				"kind": "user",
				"methods": {},
				"version": 1
			}
		}
	}
}