{
	"contracts/UserRegistration.sol": {
		"UserRegistration": {
			"abi": [
				{
					"anonymous": false,
					"inputs": [
						{
							"indexed": false,
							"internalType": "address",
							"name": "user",
							"type": "address"
						},
						{
							"indexed": false,
							"internalType": "string",
							"name": "message",
							"type": "string"
						}
					],
					"name": "DebugAddress",
					"type": "event"
				},
				{
					"inputs": [
						{
							"internalType": "address",
							"name": "user",
							"type": "address"
						}
					],
					"name": "isActive",
					"outputs": [
						{
							"internalType": "bool",
							"name": "",
							"type": "bool"
						}
					],
					"stateMutability": "view",
					"type": "function"
				},
				{
					"inputs": [],
					"name": "register",
					"outputs": [],
					"stateMutability": "nonpayable",
					"type": "function"
				}
			],
			"devdoc": {
				"kind": "dev",
				"methods": {},
				"version": 1
			},
			"evm": {
				"assembly": "    /* \"contracts/UserRegistration.sol\":61:605  contract UserRegistration {... */\n  mstore(0x40, 0x80)\n  callvalue\n  dup1\n  iszero\n  tag_1\n  jumpi\n  0x00\n  dup1\n  revert\ntag_1:\n  pop\n  dataSize(sub_0)\n  dup1\n  dataOffset(sub_0)\n  0x00\n  codecopy\n  0x00\n  return\nstop\n\nsub_0: assembly {\n        /* \"contracts/UserRegistration.sol\":61:605  contract UserRegistration {... */\n      mstore(0x40, 0x80)\n      callvalue\n      dup1\n      iszero\n      tag_1\n      jumpi\n      0x00\n      dup1\n      revert\n    tag_1:\n      pop\n      jumpi(tag_2, lt(calldatasize, 0x04))\n      shr(0xe0, calldataload(0x00))\n      dup1\n      0x1aa3a008\n      eq\n      tag_3\n      jumpi\n      dup1\n      0x9f8a13d7\n      eq\n      tag_4\n      jumpi\n    tag_2:\n      0x00\n      dup1\n      revert\n        /* \"contracts/UserRegistration.sol\":221:440  function register() public {... */\n    tag_3:\n      tag_5\n      tag_6\n      jump\t// in\n    tag_5:\n      stop\n        /* \"contracts/UserRegistration.sol\":497:602  function isActive(address user) public view returns (bool) {... */\n    tag_4:\n      tag_7\n      tag_8\n      calldatasize\n      0x04\n      tag_9\n      jump\t// in\n    tag_8:\n      sub(shl(0xa0, 0x01), 0x01)\n        /* \"contracts/UserRegistration.sol\":574:585  users[user] */\n      and\n        /* \"contracts/UserRegistration.sol\":550:554  bool */\n      0x00\n        /* \"contracts/UserRegistration.sol\":574:585  users[user] */\n      swap1\n      dup2\n      mstore\n      0x20\n      dup2\n      swap1\n      mstore\n      0x40\n      swap1\n      keccak256\n        /* \"contracts/UserRegistration.sol\":574:594  users[user].isActive */\n      sload\n      0x0100\n      swap1\n      div\n      0xff\n      and\n      swap1\n        /* \"contracts/UserRegistration.sol\":497:602  function isActive(address user) public view returns (bool) {... */\n      jump\n    tag_7:\n      mload(0x40)\n        /* \"#utility.yul\":470:484   */\n      swap1\n      iszero\n        /* \"#utility.yul\":463:485   */\n      iszero\n        /* \"#utility.yul\":445:486   */\n      dup2\n      mstore\n        /* \"#utility.yul\":433:435   */\n      0x20\n        /* \"#utility.yul\":418:436   */\n      add\n        /* \"contracts/UserRegistration.sol\":497:602  function isActive(address user) public view returns (bool) {... */\n      mload(0x40)\n      dup1\n      swap2\n      sub\n      swap1\n      return\n        /* \"contracts/UserRegistration.sol\":221:440  function register() public {... */\n    tag_6:\n        /* \"contracts/UserRegistration.sol\":274:284  msg.sender */\n      caller\n        /* \"contracts/UserRegistration.sol\":268:273  users */\n      0x00\n        /* \"contracts/UserRegistration.sol\":268:285  users[msg.sender] */\n      swap1\n      dup2\n      mstore\n      0x20\n      dup2\n      swap1\n      mstore\n      0x40\n      swap1\n      keccak256\n        /* \"contracts/UserRegistration.sol\":268:298  users[msg.sender].isRegistered */\n      sload\n      0xff\n      and\n        /* \"contracts/UserRegistration.sol\":267:298  !users[msg.sender].isRegistered */\n      iszero\n        /* \"contracts/UserRegistration.sol\":259:329  require(!users[msg.sender].isRegistered, \"User is already registered\") */\n      tag_14\n      jumpi\n      mload(0x40)\n      shl(0xe5, 0x461bcd)\n      dup2\n      mstore\n        /* \"#utility.yul\":699:701   */\n      0x20\n        /* \"contracts/UserRegistration.sol\":259:329  require(!users[msg.sender].isRegistered, \"User is already registered\") */\n      0x04\n      dup3\n      add\n        /* \"#utility.yul\":681:702   */\n      mstore\n        /* \"#utility.yul\":738:740   */\n      0x1a\n        /* \"#utility.yul\":718:736   */\n      0x24\n      dup3\n      add\n        /* \"#utility.yul\":711:741   */\n      mstore\n        /* \"#utility.yul\":777:805   */\n      0x5573657220697320616c72656164792072656769737465726564000000000000\n        /* \"#utility.yul\":757:775   */\n      0x44\n      dup3\n      add\n        /* \"#utility.yul\":750:806   */\n      mstore\n        /* \"#utility.yul\":823:841   */\n      0x64\n      add\n        /* \"contracts/UserRegistration.sol\":259:329  require(!users[msg.sender].isRegistered, \"User is already registered\") */\n      mload(0x40)\n      dup1\n      swap2\n      sub\n      swap1\n      revert\n    tag_14:\n        /* \"contracts/UserRegistration.sol\":356:366  msg.sender */\n      caller\n        /* \"contracts/UserRegistration.sol\":350:355  users */\n      0x00\n        /* \"contracts/UserRegistration.sol\":350:367  users[msg.sender] */\n      swap1\n      dup2\n      mstore\n      0x20\n      dup2\n      swap1\n      mstore\n      0x40\n      swap1\n      keccak256\n        /* \"contracts/UserRegistration.sol\":350:387  users[msg.sender].isRegistered = true */\n      dup1\n      sload\n      not(0xffff)\n        /* \"contracts/UserRegistration.sol\":398:431  users[msg.sender].isActive = true */\n      and\n      0x0101\n      or\n      swap1\n      sstore\n        /* \"contracts/UserRegistration.sol\":221:440  function register() public {... */\n      jump\t// out\n        /* \"#utility.yul\":14:300   */\n    tag_9:\n        /* \"#utility.yul\":73:79   */\n      0x00\n        /* \"#utility.yul\":126:128   */\n      0x20\n        /* \"#utility.yul\":114:123   */\n      dup3\n        /* \"#utility.yul\":105:112   */\n      dup5\n        /* \"#utility.yul\":101:124   */\n      sub\n        /* \"#utility.yul\":97:129   */\n      slt\n        /* \"#utility.yul\":94:146   */\n      iszero\n      tag_20\n      jumpi\n        /* \"#utility.yul\":142:143   */\n      0x00\n        /* \"#utility.yul\":139:140   */\n      dup1\n        /* \"#utility.yul\":132:144   */\n      revert\n        /* \"#utility.yul\":94:146   */\n    tag_20:\n        /* \"#utility.yul\":168:191   */\n      dup2\n      calldataload\n      sub(shl(0xa0, 0x01), 0x01)\n        /* \"#utility.yul\":220:251   */\n      dup2\n      and\n        /* \"#utility.yul\":210:252   */\n      dup2\n      eq\n        /* \"#utility.yul\":200:270   */\n      tag_21\n      jumpi\n        /* \"#utility.yul\":266:267   */\n      0x00\n        /* \"#utility.yul\":263:264   */\n      dup1\n        /* \"#utility.yul\":256:268   */\n      revert\n        /* \"#utility.yul\":200:270   */\n    tag_21:\n        /* \"#utility.yul\":289:294   */\n      swap4\n        /* \"#utility.yul\":14:300   */\n      swap3\n      pop\n      pop\n      pop\n      jump\t// out\n\n    auxdata: 0xa26469706673582212204e7a0ce8dc58054806dbb24332b808de31eafc070d42cf71fc29aff9e6c5b38a64736f6c634300081a0033\n}\n",
				"bytecode": {
					"linkReferences": {},
					"object": "6080604052348015600e575f80fd5b506101698061001c5f395ff3fe608060405234801561000f575f80fd5b5060043610610034575f3560e01c80631aa3a008146100385780639f8a13d714610042575b5f80fd5b610040610086565b005b610072610050366004610106565b6001600160a01b03165f90815260208190526040902054610100900460ff1690565b604051901515815260200160405180910390f35b335f9081526020819052604090205460ff16156100e95760405162461bcd60e51b815260206004820152601a60248201527f5573657220697320616c72656164792072656769737465726564000000000000604482015260640160405180910390fd5b335f908152602081905260409020805461ffff1916610101179055565b5f60208284031215610116575f80fd5b81356001600160a01b038116811461012c575f80fd5b939250505056fea26469706673582212204e7a0ce8dc58054806dbb24332b808de31eafc070d42cf71fc29aff9e6c5b38a64736f6c634300081a0033",
					"opcodes": "PUSH1 0x80 PUSH1 0x40 MSTORE CALLVALUE DUP1 ISZERO PUSH1 0xE JUMPI PUSH0 DUP1 REVERT JUMPDEST POP PUSH2 0x169 DUP1 PUSH2 0x1C PUSH0 CODECOPY PUSH0 RETURN INVALID PUSH1 0x80 PUSH1 0x40 MSTORE CALLVALUE DUP1 ISZERO PUSH2 0xF JUMPI PUSH0 DUP1 REVERT JUMPDEST POP PUSH1 0x4 CALLDATASIZE LT PUSH2 0x34 JUMPI PUSH0 CALLDATALOAD PUSH1 0xE0 SHR DUP1 PUSH4 0x1AA3A008 EQ PUSH2 0x38 JUMPI DUP1 PUSH4 0x9F8A13D7 EQ PUSH2 0x42 JUMPI JUMPDEST PUSH0 DUP1 REVERT JUMPDEST PUSH2 0x40 PUSH2 0x86 JUMP JUMPDEST STOP JUMPDEST PUSH2 0x72 PUSH2 0x50 CALLDATASIZE PUSH1 0x4 PUSH2 0x106 JUMP JUMPDEST PUSH1 0x1 PUSH1 0x1 PUSH1 0xA0 SHL SUB AND PUSH0 SWAP1 DUP2 MSTORE PUSH1 0x20 DUP2 SWAP1 MSTORE PUSH1 0x40 SWAP1 KECCAK256 SLOAD PUSH2 0x100 SWAP1 DIV PUSH1 0xFF AND SWAP1 JUMP JUMPDEST PUSH1 0x40 MLOAD SWAP1 ISZERO ISZERO DUP2 MSTORE PUSH1 0x20 ADD PUSH1 0x40 MLOAD DUP1 SWAP2 SUB SWAP1 RETURN JUMPDEST CALLER PUSH0 SWAP1 DUP2 MSTORE PUSH1 0x20 DUP2 SWAP1 MSTORE PUSH1 0x40 SWAP1 KECCAK256 SLOAD PUSH1 0xFF AND ISZERO PUSH2 0xE9 JUMPI PUSH1 0x40 MLOAD PUSH3 0x461BCD PUSH1 0xE5 SHL DUP2 MSTORE PUSH1 0x20 PUSH1 0x4 DUP3 ADD MSTORE PUSH1 0x1A PUSH1 0x24 DUP3 ADD MSTORE PUSH32 0x5573657220697320616C72656164792072656769737465726564000000000000 PUSH1 0x44 DUP3 ADD MSTORE PUSH1 0x64 ADD PUSH1 0x40 MLOAD DUP1 SWAP2 SUB SWAP1 REVERT JUMPDEST CALLER PUSH0 SWAP1 DUP2 MSTORE PUSH1 0x20 DUP2 SWAP1 MSTORE PUSH1 0x40 SWAP1 KECCAK256 DUP1 SLOAD PUSH2 0xFFFF NOT AND PUSH2 0x101 OR SWAP1 SSTORE JUMP JUMPDEST PUSH0 PUSH1 0x20 DUP3 DUP5 SUB SLT ISZERO PUSH2 0x116 JUMPI PUSH0 DUP1 REVERT JUMPDEST DUP2 CALLDATALOAD PUSH1 0x1 PUSH1 0x1 PUSH1 0xA0 SHL SUB DUP2 AND DUP2 EQ PUSH2 0x12C JUMPI PUSH0 DUP1 REVERT JUMPDEST SWAP4 SWAP3 POP POP POP JUMP INVALID LOG2 PUSH5 0x6970667358 0x22 SLT KECCAK256 0x4E PUSH27 0xCE8DC58054806DBB24332B808DE31EAFC070D42CF71FC29AFF9E6 0xC5 0xB3 DUP11 PUSH5 0x736F6C6343 STOP ADDMOD BYTE STOP CALLER "
				},
				"gasEstimates": {
					"creation": {
						"codeDepositCost": "72200",
						"executionCost": "121",
						"totalCost": "72321"
					},
					"external": {
						"isActive(address)": "2513",
						"register()": "26611"
					}
				},
				"methodIdentifiers": {
					"isActive(address)": "9f8a13d7",
					"register()": "1aa3a008"
				}
			},
			"storageLayout": {
				"storage": [
					{
						"astId": 11,
						"contract": "contracts/UserRegistration.sol:UserRegistration",
						"label": "users",
						"offset": 0,
						"slot": "0",
						"type": "t_mapping(t_address,t_struct(User)6_storage)"
					}
				],
				"types": {
					"t_address": {
						"encoding": "inplace",
						"label": "address",
						"numberOfBytes": "20"
					},
					"t_bool": {
						"encoding": "inplace",
						"label": "bool",
						"numberOfBytes": "1"
					},
					"t_mapping(t_address,t_struct(User)6_storage)": {
						"encoding": "mapping",
						"key": "t_address",
						"label": "mapping(address => struct UserRegistration.User)",
						"numberOfBytes": "32",
						"value": "t_struct(User)6_storage"
					},
					"t_struct(User)6_storage": {
						"encoding": "inplace",
						"label": "struct UserRegistration.User",
						"members": [
							{
								"astId": 3,
								"contract": "contracts/UserRegistration.sol:UserRegistration",
								"label": "isRegistered",
								"offset": 0,
								"slot": "0",
								"type": "t_bool"
							},
							{
								"astId": 5,
								"contract": "contracts/UserRegistration.sol:UserRegistration",
								"label": "isActive",
								"offset": 1,
								"slot": "0",
								"type": "t_bool"
							}
						],
						"numberOfBytes": "32"
					}
				}
			},
			"userdoc": {
				"kind": "user",
				"methods": {},
				"version": 1
			}
		}
	}
}